:100000000C940A010C942B010C942B010C942B01E1
:100010000C942B010C942B010C942B010C942B01B0
:100020000C942B010C942B010C942B010C942B01A0
:100030000C942B010C942B010C942B010C942B0190
:100040000C942B010C942B010C942B010C942B0180
:100050000C942B010C942B010C942B010C942B0170
:100060000C942B010C942B010C942B010C942B0160
:100070000C942B010C942B010C942B010C942B0150
:100080000C942B010C942B010C942B010C942B0140
:100090000C942B010C942B010C942B010C94B40C9C
:1000A0000C94960D0C94780E0C942B010C942B014F
:1000B0000C942B010C942B010C942B010C942B0110
:1000C0000C942B010C942B010C942B010C942B0100
:1000D0000C942B010C942B010C942B010C942B01F0
:1000E0000C942B010C942B010C942B010C942B01E0
:1000F0000C942B010C942B010C942B010C942B01D0
:100100000C942B010C942B010C942B010C942B01BF
:100110000C942B010C942B010C942B010C945F0A72
:100120000C94260B0C94ED0B0C942B010C942B01CE
:100130000C942B010C942B010C942B010C942B018F
:100140000C942B010C942B010C942B010C942B017F
:100150000C942B010C942B010C942B010C942B016F
:100160000C942B010C942B010C942B010C942B015F
:100170000C942B010C942B010C942B010C942B014F
:100180000C942B010C942B010C942B010C942B013F
:100190000C942B010C942B010C942B010C942B012F
:1001A0000C942B010C942B010C942B010C942B011F
:1001B0000C942B010C942B010C942B010C942B010F
:1001C0000C942B010C942B010C942B010C942B01FF
:1001D0000C942B010C942B010C942B010C947503A3
:1001E0000C9498030C942B010C942B010C942B0170
:1001F0000C942B010C942B010C942B010C942303D5
:100200000C9430020C9491106364696E6F70737576
:1002100078585B0011241FBECFEFCDBFDFE5DEBFF6
:1002200000E00CBF10E2A0E0B0E2ECE7F4E300E095
:100230000BBF02C007900D92A83DB107D9F721E28C
:10024000A8EDB0E201C01D92A83EB207E1F70E94FE
:100250005A0F0C943C1A0C9400008091500082605C
:10026000809350008091510081FFFCCF88ED84BFC6
:1002700081E08093400008958BEC80935200809140
:1002800050008860809350008091510083FFFCCF24
:1002900082EC8093550080915000806180935000E3
:1002A0008091510084FFFCCF88ED84BF84E080936F
:1002B0004000809150008E7F8093500080915000CC
:1002C0008D7F8093500008958BEC80935200809135
:1002D00050008860809350008091510083FFFCCFD4
:1002E00081EC809355008091500080618093500094
:1002F0008091510084FFFCCF88ED84BF84E080931F
:100300004000809150008E7F80935000809150007B
:100310008D7F809350000895809150008460809379
:1003200050008091510082FFFCCF80915600897F60
:100330008093560080915600809356008091600013
:100340008160809360000895809150008460809364
:1003500050008091510082FFFCCF809156008E7F2B
:1003600080935600809156008093560080916800DB
:10037000816080936800089580915200826080932C
:10038000520080915000886080935000809151000D
:1003900083FFFCCF80915600897F80935600809127
:1003A0005600826080935600809160008160809347
:1003B000600008958091520082608093520088ED21
:1003C00084BF8091500088608093500080915100DC
:1003D00083FFFCCF809156008E7F809356008091E2
:1003E0005600816080935600809168008160809300
:1003F000680008952091A32191E0920F8091A2219D
:10040000943610F09DE9920F891710F0891B08951A
:100410008C59FCCFCF93DF93C82FD1E20E94FA0111
:100420008823D9F08091A321E82FF0E0E25CFE4D13
:10043000C0838F5F843608F080E09091A200292F5E
:100440002E7F2093A2008093A32181E28093A30BAF
:100450009093A200DF91CF910895D093A30BDECFAC
:10046000CF93DF93D82FCFEF0E94FA01882379F042
:10047000CC2389F0DA3019F48DE00E940A028D2F26
:100480000E940A0290E080E0DF91CF910895CC2392
:1004900011F0C150E9CF81E090E0F6CF8F929F92AA
:1004A000AF92BF92CF92DF92EF92FF92CF93C42F81
:1004B0000E94851220E030E041EE59E40E94E411F0
:1004C0006B017C018C2F0C2E000C990BC7FF2FC0E9
:1004D00091958195910961E070E002C0660F771FE8
:1004E0008A95E2F7072E000C880B990B0E94871261
:1004F0004B015C0120E030E040E85FE3C701B6015A
:100500000E9472119B01AC01C501B4010E949E13AF
:100510000E940B140E945612CB01CF91FF90EF90D6
:10052000DF90CF90BF90AF909F908F90089561E043
:1005300070E002C0660F771FCA95E2F7072E000C25
:10054000880B990B0E9487129B01AC01C701B60171
:100550000E94E41120E030E040E85FE30E94721165
:10056000D7CF0C940A02CF93DF93EC0189918111CC
:1005700003C0DF91CF9108950E940A02CE01F5CF0A
:10058000CF92DF92EF92FF92CF936B017C01C9EF84
:100590004C2FC701B6010E944E028115904118F000
:1005A000CF5FC830A9F74C2FC701B6010E944E0299
:1005B00028E12093B20638E03093A5063093A106D7
:1005C00034E03093A2068093A60B9F70C295C07F43
:1005D000C92BC093A70B2093A40B80E28093A30B9D
:1005E0008091A20083608093A20080E090E28093DB
:1005F000E2219093E3218093E4219093E521CF9130
:10060000FF90EF90DF90CF90089580913D219091E1
:100610003C21891710F0891B08958C59FCCFCF938A
:10062000C0913C210E9405038823E1F3EC2FF0E008
:10063000E852FF4D8081CF5FC43608F0C0E0C09320
:100640003C21CF9108950E940F0390E008950E94ED
:100650000503882321F00E940F0390E0089580E0B5
:1006600091E00895CF92DF92EF92FF920F931F9344
:10067000CF93DF937C016B01C82FDF2D10E000E0EA
:100680008091E2219091E3210E944A148A3059F02E
:100690008D30A1F400ED17E00E940503811115C013
:1006A00001501109C9F71882C701DF91CF911F913D
:1006B0000F91FF90EF90DF90CF9008950C151D05DE
:1006C00008F489930F5F1F4FDBCF8091E221909157
:1006D000E3210E944A148A3031F36091E221709143
:1006E000E32190E00E94DE14DECF8F938FB78F93CB
:1006F0008BB78F939F93EF93FF9380913D21E82FCA
:10070000F0E09091A00BE852FF4D90838F5F84360C
:1007100008F080E090913C21981380933D21FF9157
:10072000EF919F918F918BBF8F918FBF8F91189574
:100730002F932FB72F932BB72F938F939F93EF93D5
:10074000FF938091A2219091A321891310C080E290
:100750008093A30B892F8093A221FF91EF919F910A
:100760008F912F912BBF2F912FBF2F911895E82F8D
:10077000F0E0E25CFE4D20812093A00B8F5F843679
:1007800008F080E08913E7CFE2CFCF93DF93EC014D
:1007900083E08093A10691E090934106E0E0FBE0C6
:1007A00093E39183A0E0B8E093E111969C931197B5
:1007B00080838C938FEF90E086A397A396968D937A
:1007C0009C9397978A819B8182A793A78C819D8117
:1007D00080A791A78E819F8198968D939C939997DE
:1007E000DF91CF9108952F923F924F925F926F9237
:1007F0007F928F929F92AF92BF92CF92DF92EF92B1
:10080000FF920F931F93CF93DF93CDB7DEB760971F
:10081000CDBFDEBF8B01FB016281738190E080E080
:100820000E94851220E030E04FE753E40E94E4117B
:100830006F83788789879A87F8016481758190E052
:1008400080E00E94851220E030E04FE753E40E94F0
:10085000E4113B014C01F8016681778190E080E072
:100860000E94851220E030E04FE753E40E94E4113B
:100870007B018C019301A4016F81788589859A851C
:100880000E9499139701A801181664F46F81788566
:1008900089859A850E94991318160CF4ADC05701EA
:1008A000680108C0B301C4010E9499135301640197
:1008B0001816ACF79301A4016F81788589859A8514
:1008C0000E94DF119701A80187FF9BC06F81788587
:1008D00089859A850E94DF1187FD9EC0EB86FC8684
:1008E0000D871E872B853C854D855E85B501C6012C
:1008F0000E9472111B012C012B853C854D855E8564
:10090000B501C6010E94DF11882309F4CCC095010E
:10091000A6016F81788589859A850E94DF118111F2
:1009200084C09701A801B301C4010E947211A20101
:1009300091010E94E41120E030E040E752E40E947F
:100940009E1320E030E044EB53E40E94731120E05A
:1009500030E044EB53E40E94CD120E9456126F87A0
:10096000788B20E030E0A901B501C6010E94DF11BB
:1009700020E090E0882381F09501A601C201B10139
:100980000E94E41120E030E048EC52E40E949E1303
:100990000E945612262F972F0F85098388898A83F4
:1009A000122F2B839C8320E030E048EC52E4B50109
:1009B000C6010E949E130E9456126D837E83202FD3
:1009C0003A81412F5C817E8180E090E06096CDBFCE
:1009D000DEBFDF91CF911F910F91FF90EF90DF90DD
:1009E000CF90BF90AF909F908F907F906F905F90CF
:1009F0004F903F902F900895AF80B884C984DA84D7
:100A000059CFB301C4010E94DF1187FF67CF6B8606
:100A10007C868D869E8666CFFF81FB8788858C8746
:100A2000E985ED87FA85FE875DCF9501A601B301C3
:100A3000C4010E94DF11811117C02F8138854985BB
:100A40005A85B701C8010E947211A20191010E944A
:100A5000E41120E030E040E752E40E949E1320E0E1
:100A600030E040EF52E471CF9501A601B701C80113
:100A70000E94DF11811175CF9301A4016F817885E8
:100A800089859A850E947211A20191010E94E41148
:100A900020E030E040E752E40E949E1320E030E086
:100AA00040E753E452CF1F86188A5BCF2F923F92C4
:100AB0004F925F926F927F928F929F92AF92BF926E
:100AC000CF92DF92EF92FF920F931F93CF93DF931A
:100AD000CDB7DEB72A97CDBFDEBF8B01FB0180808B
:100AE00091806481758190E080E00E94851220E011
:100AF00030E048EC52E40E94E4112B013C01F80183
:100B00006281738190E080E00E94851220E030E0F5
:100B100048EC52E40E94E411A30192010E949E134A
:100B20007B018C01B40190E080E00E94851220E0FE
:100B300030E040E752E40E94E41120E030E040E081
:100B400050E40E94CD1220E030E040E85FE30E94D4
:100B500072119B01AC015F7760E070E080E89FE379
:100B60000E9472119701A8010E949E135B016C0103
:100B7000362E2B2C8987DA869701A801C301B20192
:100B80000E9472112B013C01FCE38F169104E8F0E6
:100B900088E788169104F8F0E4EB8E16910408F4C7
:100BA00070C0F0EF8F16910408F472C08CE28816C2
:100BB00081E0980608F471C01501460157016801EB
:100BC000E12CF12C00E010E00AC057016801E32C91
:100BD000F22C09851A85212C312C812C912CA30112
:100BE0009201B501C6010E94731120E030E04FE789
:100BF00053E40E949E130E945612D62E6B837C8370
:100C0000A3019201B701C8010E94731120E030E0F6
:100C10004FE753E40E949E130E945612162F6D83D5
:100C20007E83A3019201B101C4010E94731120E0EF
:100C300030E04FE753E40E949E130E945612862F25
:100C4000262F372F2F83388729813A814D2D5C81BC
:100C5000612F7E8198852A96CDBFDEBFDF91CF912F
:100C60001F910F91FF90EF90DF90CF90BF90AF90CA
:100C70009F908F907F906F905F904F903F902F90BC
:100C8000089515014601A12CB12CC12CD12CA7CF60
:100C90001701480175018601F6CF1701480190CF71
:100CA000422BFB01418382E08083089581E090E044
:100CB0008093C2219093C3218093C0219093C1213E
:100CC0008093BE219093BF211092A4211092A52160
:100CD0006130F9F0662341F0623009F180EE8093D3
:100CE00080018093810120C080EE8093800110926A
:100CF0008101109282018BE291E08093260A909309
:100D0000270A84E08093000A1092010A1092060AD2
:100D100008951092800180EE80938101EACF1092B5
:100D200080011092810180EE80938201E4CFE0E0A7
:100D3000FAE01082168208950F931F93FC01E61BC0
:100D4000F70B021B110BE09FC001E19F900DF09F7C
:100D5000900D1124FA01E61BF70BBF010E945B10F6
:100D6000822F860F1F910F9108958F929F92AF92BD
:100D7000BF92CF92DF92EF92FF920F931F93CF9388
:100D8000DF934A015B01D22FC32F98014D2F5C2FB7
:100D9000B401C5010E9499139601A7011816BCF46D
:100DA000B401C5010E949913181614F46401750169
:100DB000B601C701DF91CF911F910F91FF90EF9086
:100DC000DF90CF90BF90AF909F908F900895B80123
:100DD0008D2F9C2F0E949913181654F76801ED2E41
:100DE000FC2EE6CF8F929F92AF92BF92CF92DF926E
:100DF000EF92FF920F931F93CF93DF934A015B0112
:100E0000D22FC32F98014D2F5C2FB401C5010E9432
:100E1000DF119601A70187FF17C0B401C5010E9429
:100E2000DF1187FF02C064017501B601C701DF91C0
:100E3000CF911F910F91FF90EF90DF90CF90BF90D7
:100E4000AF909F908F900895B8018D2F9C2F0E9496
:100E5000DF1187FFEACF6801ED2EFC2EE6CFDC0123
:100E60001296ED91FC916383828187FFFDCF838190
:100E70000895CF93DF93EC0188819981803826E033
:100E80009207D1F480E18093850660E0CE010E9454
:100E90002F0760E0CE010E942F07E881F98188E0EA
:100EA00085838683E03886E0F80769F480E18093E3
:100EB0008606DF91CF9108958036964031F780E124
:100EC00080936506E2CFE036F64099F780E18093A3
:100ED0006606EFCFEF920F931F93CF93DF93EC0152
:100EE000FB01688379834A835B832C833D830E8374
:100EF0001F8388EB818380E4828388E0858380ED93
:100F0000DA018C93EE2019F0868580628687CE0107
:100F10000E943907EC81FD818FE08283EE81FF81A1
:100F200083E081A392E090A381E082A391A790A7A0
:100F300082A781AB90AB82AB20E1218312829483A4
:100F4000808383E8838380EE809380018093810196
:100F5000809382018091A20081608093A2007894A6
:100F6000DF91CF911F910F91EF900895CF93DF9371
:100F7000EC0188819981803826E09207A9F480E10C
:100F800080938506CE010E942F07E881F98188E0D1
:100F900085838683E03886E0F80769F480E18093F2
:100FA0008606DF91CF9108958036964059F780E10B
:100FB00080936506E7CFE036F64099F780E18093AD
:100FC0006606EFCF2F923F924F925F926F927F9281
:100FD0008F929F92AF92BF92CF92DF92EF92FF9249
:100FE0000F931F93CF93DF93CDB7DEB7AE97CDBFEF
:100FF000DEBF1C0186E0EEE0F0E2DE011996019012
:101000000D928A95E1F78CE990E29F938F930E946D
:101010008414C1010E94390788EA90E29F938F935C
:101020000E9484148E010B5E1F4F0DA31EA30F9010
:101030000F900F900F902801712C612C662DC1012B
:101040000E9456068091A4219091A5210597D0F386
:101050001092000A1092060A830133E0000F111F5C
:101060003A95E1F7F801EA55FE4D20813181428140
:1010700053816481758186819781A0E00E94661109
:1010800094F420813181428153816481758186810C
:1010900097810E9413112083318342835383648399
:1010A000758386839783C090A421D090A521C80121
:1010B0008A559E4D4C01DC01FC911196EC911197E3
:1010C00012964C91129713965C91139714966C910B
:1010D000149715967C91159716968C9116971796DE
:1010E0009C915601C12CD12CE12CF12C00E010E098
:1010F0002F2F3E2F0E948510F401208331834283DD
:101100005383648375838683978380819181228151
:10111000338144815581668177817F936F935F939B
:101120004F933F932F939F938F9323EBA22E20E215
:10113000B22EBF92AF920E948414D4013C911196BA
:101140002C91119712968C91129713968C9113975C
:1011500014968C91149715968C91159716968C91E0
:10116000169717968C91832F922FF201819391936A
:101170002F01FFEF6F1A7F0ACDBFDEBF13E06116AC
:10118000710409F05BCF88EB90E29F938F930E94EC
:101190008414CE01099689A39AA32E019BE1490EDE
:1011A000511C0F900F904BA25CA2712C612CA9A135
:1011B000BAA16C91C1010E94B607E9A1FAA16181AF
:1011C000C1010E94B607662DC1010E94560680919A
:1011D000A4219091A5210597D0F31092000A1092B6
:1011E000060A830193E0000F111F9A95E1F7F801B9
:1011F000EA55FE4D208131814281538164817581A0
:1012000086819781A0E00E94661194F4208131814B
:101210004281538164817581868197810E94131177
:1012200020833183428353836483758386839783CA
:10123000C090A421D090A521C8018A559E4D4C0193
:10124000DC01FC911196EC91119712964C9112973A
:1012500013965C91139714966C91149715967C9144
:10126000159716968C91169717969C915601C12C3E
:10127000D12CE12CF12C00E010E02F2F3E2F0E940A
:101280008510F40120833183428353836483758303
:101290008683978380819181228133814481558126
:1012A000668177817F936F935F934F933F932F93E3
:1012B0009F938F9383EBA82E80E2B82EBF92AF92BC
:1012C0000E948414D4012C9111963C91119712968E
:1012D0004C91129713965C91139714966C911497F6
:1012E00015967C91159716968C91169717969C914A
:1012F000ADA1BEA1ED91FD91ADA3BEA35F01D12C27
:10130000C12CE12CF12C8701EFA3B8A6C9A6DAA65F
:10131000EBA6FCA60DA71EA7CDBFDEBFC12CD12C0E
:10132000E12CF12C00E010E00E945D110CF0AAC04D
:10133000ABA1BCA11D921C92FFEF6F1A7F0A09A1FD
:101340001AA10E5F1F4F09A31AA38BA19CA102969D
:101350008BA39CA393E06916710409F028CF8AE05F
:1013600090E00E9498146B8D7C8D90E080E00E944C
:10137000851226E636E646E65FE30E949E130E944B
:101380005612162F072F6B8F7C8F6D8D7E8D90E000
:1013900080E00E94851220E030E040E45FE30E949C
:1013A0009E130E945612962E872E6D8F7E8F87EC8D
:1013B00090E29F938F930E9484140F931F9303EBEB
:1013C00010E21F930F930E9484148F929F921F9399
:1013D0000F930E94841488A18F938F8D8F931F93F6
:1013E0000F930E9484148AE090E00E949814C10137
:1013F0000E9439078E01015F1F4F4201A6E08A0E4D
:10140000911CCDBFDEBFD2016D917D912D0190E089
:1014100080E00E94851220E030E04AEF53E40E9411
:10142000E41120E030E04FE753E40E949E130E9455
:101430005612F801619371938F014814590419F7FA
:1014400069892A898B899C894F8538893C832E83B9
:1014500029813A815C817E81AE96CDBFDEBFDF916E
:10146000CF911F910F91FF90EF90DF90CF90BF90A1
:10147000AF909F908F907F906F905F904F903F9034
:101480002F900895D4010C9111961C9111971296EA
:101490002C91129713963C91139714964C91149794
:1014A00015965C91159716966C91169717967C91E8
:1014B0000E1B1F0BEBA1FCA1008311833DCF0F92EC
:1014C0000FB60F921F9211248F928BB68F929F921C
:1014D000AF92BF92CF92DF92EF92FF920F931F9342
:1014E0002F933F934F935F936F937F938F939F932C
:1014F000AF93BF93EF93FF938091C2219091C3214B
:101500000197D1F41092E1211092DF211092E02195
:101510001092C2211092C3211092A6211092A721ED
:101520001092A8211092A9211092AA211092AB2109
:101530001092AC211092AD2180912402909125024D
:101540002091DF213091E021820F931F8093DF21D2
:101550009093E0212091E1212F5F2093E121243617
:1015600009F057C064E670E00E946F10CB01770F5E
:10157000AA0BBB0B8093CC219093CD21A093CE21BD
:10158000B093CF218091CC219091CD21A091CE21FB
:10159000B091CF21F091A621E091A721C090A82180
:1015A000D090A921E090AA21F090AB210091AC212C
:1015B0001091AD214C015D01BB0C8808982C5401A1
:1015C0009C01AD01682D782D882D982DAF2EBE2E53
:1015D0000E9454112093A6213093A7214093A82163
:1015E0005093A9216093AA217093AB218093AC21E1
:1015F0009093AD211092DF211092E0211092E12111
:101600008091A4219091A52101968093A42190938B
:10161000A521FF91EF91BF91AF919F918F917F9104
:101620006F915F914F913F912F911F910F91FF907B
:10163000EF90DF90CF90BF90AF909F908F908BBE38
:101640008F901F900F900FBE0F9018950F920FB6AE
:101650000F921F9211248F928BB68F929F92AF920E
:10166000BF92CF92DF92EF92FF920F931F932F932F
:101670003F934F935F936F937F938F939F93AF931A
:10168000BF93EF93FF938091C0219091C121019767
:10169000D1F41092DE211092DC211092DD21109203
:1016A000C0211092C1211092AE211092AF21109250
:1016B000B0211092B1211092B2211092B321109258
:1016C000B4211092B52180912C0290912D0220918D
:1016D000DC213091DD21820F931F8093DC219093D8
:1016E000DD212091DE212F5F2093DE21243609F0B9
:1016F00057C064E670E00E946F10CB01770FAA0B11
:10170000BB0B8093C8219093C921A093CA21B093A9
:10171000CB218091C8219091C921A091CA21B0917B
:10172000CB21F091AE21E091AF21C090B021D090BB
:10173000B121E090B221F090B3210091B421109139
:10174000B5214C015D01BB0C8808982C54019C010B
:10175000AD01682D782D882D982DAF2EBE2E0E94BC
:1017600054112093AE213093AF214093B021509378
:10177000B1216093B2217093B3218093B4219093EF
:10178000B5211092DC211092DD211092DE21809192
:10179000A4219091A52101968093A4219093A52145
:1017A000FF91EF91BF91AF919F918F917F916F9139
:1017B0005F914F913F912F911F910F91FF90EF906B
:1017C000DF90CF90BF90AF909F908F908BBE8F9007
:1017D0001F900F900FBE0F9018950F920FB60F929B
:1017E0001F9211248F928BB68F929F92AF92BF92CD
:1017F000CF92DF92EF92FF920F931F932F933F931D
:101800004F935F936F937F938F939F93AF93BF9308
:10181000EF93FF938091BE219091BF210197D1F466
:101820001092DB211092D9211092DA211092BE2160
:101830001092BF211092B6211092B7211092B821B8
:101840001092B9211092BA211092BB211092BC21A2
:101850001092BD2180913402909135022091D921BE
:101860003091DA21820F931F8093D9219093DA214E
:101870002091DB212F5F2093DB21243609F057C014
:1018800064E670E00E946F10CB01770FAA0BBB0BD0
:101890008093C4219093C521A093C621B093C72102
:1018A0008091C4219091C521A091C621B091C721FA
:1018B000F091B621E091B721C090B821D090B92124
:1018C000E090BA21F090BB210091BC211091BD2184
:1018D0004C015D01BB0C8808982C54019C01AD01A2
:1018E000682D782D882D982DAF2EBE2E0E94541174
:1018F0002093B6213093B7214093B8215093B9215A
:101900006093BA217093BB218093BC219093BD2139
:101910001092D9211092DA211092DB218091A4211A
:101920009091A52101968093A4219093A521FF91E8
:10193000EF91BF91AF919F918F917F916F915F9147
:101940004F913F912F911F910F91FF90EF90DF905A
:10195000CF90BF90AF909F908F908BBE8F901F9035
:101960000F900FBE0F9018950F920FB60F921F9207
:1019700011248F928BB68F929F92AF92BF92CF928B
:10198000DF92EF92FF920F931F932F933F934F930A
:101990005F936F937F938F939F93AF93BF93EF93D7
:1019A000FF938091C2219091C321019751F510922C
:1019B000D8211092D6211092D7211092C2211092D4
:1019C000C3211092A6211092A7211092A821109253
:1019D000A9211092AA211092AB211092AC21109251
:1019E000AD2120916402309165028091D6219091C1
:1019F000D721820F931F8093D6219093D72181E026
:101A000013C08091D6219091D7212091D82120FF19
:101A1000E8CF2091640230916502821B930B809382
:101A2000D6219093D72188E0809361028091D821BC
:101A30008F5F8093D821843609F05BC08091D621D6
:101A40009091D72164E670E00E946F10CB01770F70
:101A5000AA0BBB0B8093CC219093CD21A093CE21D8
:101A6000B093CF218091CC219091CD21A091CE2116
:101A7000B091CF21F091A621E091A721C090A8219B
:101A8000D090A921E090AA21F090AB210091AC2147
:101A90001091AD214C015D01BB0C8808982C5401BC
:101AA0009C01AD01682D782D882D982DAF2EBE2E6E
:101AB0000E9454112093A6213093A7214093A8217E
:101AC0005093A9216093AA217093AB218093AC21FC
:101AD0009093AD211092D6211092D7211092D82147
:101AE0008091A4219091A52101968093A4219093A7
:101AF000A521FF91EF91BF91AF919F918F917F9120
:101B00006F915F914F913F912F911F910F91FF9096
:101B1000EF90DF90CF90BF90AF909F908F908BBE53
:101B20008F901F900F900FBE0F9018950F920FB6C9
:101B30000F921F9211248F928BB68F929F92AF9229
:101B4000BF92CF92DF92EF92FF920F931F932F934A
:101B50003F934F935F936F937F938F939F93AF9335
:101B6000BF93EF93FF938091C0219091C121019782
:101B700051F51092D5211092D3211092D4211092B8
:101B8000C0211092C1211092AE211092AF2110926B
:101B9000B0211092B1211092B2211092B321109273
:101BA000B4211092B52120916C0230916D02809188
:101BB000D3219091D421820F931F8093D3219093AE
:101BC000D42182E013C08091D3219091D42120911F
:101BD000D52120FFE8CF20916C0230916D02821B4D
:101BE000930B8093D3219093D42180E18093690259
:101BF0008091D5218F5F8093D521843609F05BC019
:101C00008091D3219091D42164E670E00E946F10FE
:101C1000CB01770FAA0BBB0B8093C8219093C921EE
:101C2000A093CA21B093CB218091C8219091C92162
:101C3000A091CA21B091CB21F091AE21E091AF21CA
:101C4000C090B021D090B121E090B221F090B321AA
:101C50000091B4211091B5214C015D01BB0C8808A5
:101C6000982C54019C01AD01682D782D882D982D5C
:101C7000AF2EBE2E0E9454112093AE213093AF217F
:101C80004093B0215093B1216093B2217093B3215E
:101C90008093B4219093B5211092D3211092D42136
:101CA0001092D5218091A4219091A5210196809335
:101CB000A4219093A521FF91EF91BF91AF919F91A6
:101CC0008F917F916F915F914F913F912F911F91D4
:101CD0000F91FF90EF90DF90CF90BF90AF909F90CB
:101CE0008F908BBE8F901F900F900FBE0F90189506
:101CF0000F920FB60F921F9211248F928BB68F9274
:101D00009F92AF92BF92CF92DF92EF92FF920F938A
:101D10001F932F933F934F935F936F937F938F9373
:101D20009F93AF93BF93EF93FF938091BE219091C8
:101D3000BF21019751F51092D2211092D02110921B
:101D4000D1211092BE211092BF211092B621109283
:101D5000B7211092B8211092B9211092BA21109295
:101D6000BB211092BC211092BD21209174023091B0
:101D700075028091D0219091D121820F931F809381
:101D8000D0219093D12183E013C08091D0219091F4
:101D9000D1212091D22120FFE8CF209174023091EF
:101DA0007502821B930B8093D0219093D12188E1FF
:101DB000809371028091D2218F5F8093D2218436EB
:101DC00009F05BC08091D0219091D12164E670E050
:101DD0000E946F10CB01770FAA0BBB0B8093C4211D
:101DE0009093C521A093C621B093C7218091C421AF
:101DF0009091C521A091C621B091C721F091B62143
:101E0000E091B721C090B821D090B921E090BA21DB
:101E1000F090BB210091BC211091BD214C015D01CE
:101E2000BB0C8808982C54019C01AD01682D782DBD
:101E3000882D982DAF2EBE2E0E9454112093B621CE
:101E40003093B7214093B8215093B9216093BA21C0
:101E50007093BB218093BC219093BD211092D0211F
:101E60001092D1211092D2218091A4219091A5218C
:101E700001968093A4219093A521FF91EF91BF91AA
:101E8000AF919F918F917F916F915F914F913F9112
:101E90002F911F910F91FF90EF90DF90CF90BF9007
:101EA000AF909F908F908BBE8F901F900F900FBE22
:101EB0000F901895CDB7DEB76797CDBFDEBF83E52E
:101EC0008F8B0E943C0160E078E488EE91E00E94F4
:101ED000C002E12C00E012E020E036E040EC5AE0E5
:101EE00060E876E0CE0109960E946A0778948E0138
:101EF000095E1F4F84E1E82E80E2F82E9AE0792EE9
:101F000024E5C22E20E2D22E3EE6A32E30E2B32EEE
:101F100044E6842E912C0E9405038823E1F31F934D
:101F20000F93FF92EF920E94CA148F890F900F9027
:101F30000F900F90823509F4BCC0833509F0B9C009
:101F4000CE0109960E94E20729833A834B835C8382
:101F50006D837E838F839887BE016F5F7F4FCE0135
:101F600009960E94F303298B3A8B4B8B5C8B6D8B0C
:101F70007E8B8B899C890A9708F043C087E190E2A9
:101F80000E949E148E898F938D898F938C898F9355
:101F90008B898F938A898F9389898F93DF92CF92D0
:101FA0000E9484148A818F9389818F9388858F936F
:101FB0008F818F938E818F938D818F938C818F935F
:101FC0008B818F93BF92AF920E9484148B8A9C8ADC
:101FD0008D8A9E8ABE016F5E7F4FCE0109960E9458
:101FE000560529833A834B835C836D837E838F837D
:101FF0009887CE0101960E94C5037F8ACDBFDEBFC0
:102000008ACF89899A89089720F48EE190E20E940C
:102010009E1489899A890897429720F483E290E276
:102020000E949E1489899A894A978D9720F48BE2A1
:1020300090E20E949E1489899A898754910980357B
:10204000910520F483E390E20E949E1489899A8985
:10205000875991098634910520F48AE390E20E9421
:102060009E1489899A898D5D9109C79720F480E42F
:1020700090E20E949E1489899A898451914081340A
:10208000910520F486E490E20E949E1489899A8941
:1020900085559140449720F48EE490E20E949E146E
:1020A00089899A898936914008F46CCF8EE190E253
:1020B00067CF7F8A30CFAA1BBB1B51E107C0AA1F85
:1020C000BB1FA617B70710F0A61BB70B881F991FD9
:1020D0005A95A9F780959095BC01CD01089597FB7D
:1020E000072E16F4009407D077FD09D00E945B10EC
:1020F00007FC05D03EF4909581959F4F089570950B
:1021000061957F4F0895689401C0E894F92FF12BF1
:1021100012F00C94B710A0E0B0E0E1E9F0E10C940B
:102120002911092E059422F40E941311112392F40F
:10213000F0E80F26FFEFE094F09400951095B0942E
:10214000C094D094A194BF0ACF0ADF0AEF0AFF0A15
:102150000F0B1F0B0E94C21007FC0E941311CDB77A
:10216000DEB7ECE00C944211689401C0E8948F92C1
:102170009F92CF93DF930E94C210DF91CF919F90E7
:102180008F90089588249924F401E401B0E49F938A
:10219000AA279A158B049C04ED05FE05CF05D007F0
:1021A000A10798F4AD2FDC2FCF2FFE2FE92D982C0F
:1021B000892E982F872F762F652F542F432F322F5C
:1021C0002227B85031F7BF9127C01B2EBF91BB27E4
:1021D000220F331F441F551F661F771F881F991F2B
:1021E000881C991CEE1FFF1FCC1FDD1FAA1FBB1FE1
:1021F0008A149B04EC05FD05CE05DF05A007B10799
:1022000048F08A189B08EC09FD09CE09DF09A00BEC
:10221000B10B21601A94E1F62EF49401AF01BE01D6
:10222000CD01000C0895609570958095909530953E
:102230004095509521953F4F4F4F5F4F6F4F7F4FC8
:102240008F4F9F4F08952F923F924F925F926F92C0
:102250007F928F929F92AF92BF92CF92DF92EF9236
:10226000FF920F931F93CF93DF93CDB7DEB7CA1BB7
:10227000DB0BCDBFDEBF19942A88398848885F847C
:102280006E847D848C849B84AA84B984C884DF8016
:10229000EE80FD800C811B81AA81B981CE0FD11DFA
:1022A000CDBFDEBFED0108952A0D3B1D4C1D5D1D08
:1022B0006E1D7F1D801F911F08952A153B054C053B
:1022C0005D056E057F058007910708950024A7FD31
:1022D00000942A17300540055005600570058005FB
:1022E000900508955058BB27AA270E948A110C9484
:1022F0005F130E94511338F00E94581320F039F4F4
:102300009F3F19F426F40C944E130EF4E095E7FB6E
:102310000C943A13E92F0E94701358F3BA1762070E
:1023200073078407950720F079F4A6F50C949213AF
:102330000EF4E0950B2EBA2FA02D0B01B9019001E0
:102340000C01CA01A0011124FF27591B99F0593F24
:1023500050F4503E68F11A16F040A22F232F342F6C
:102360004427585FF3CF469537952795A795F040BA
:102370005395C9F77EF41F16BA0B620B730B840BCF
:10238000BAF09150A1F0FF0FBB1F661F771F881F87
:10239000C2F70EC0BA0F621F731F841F48F48795DF
:1023A00077956795B795F7959E3F08F0B0CF9395D1
:1023B000880F08F09927EE0F9795879508950E944A
:1023C000161308F481E008950E94F8110C945F132D
:1023D0000E94581358F00E94511340F029F45F3FB7
:1023E00029F00C943A1351110C9493130C944E133E
:1023F0000E94701368F39923B1F3552391F3951B51
:10240000550BBB27AA2762177307840738F09F5F15
:102410005F4F220F331F441FAA1FA9F335D00E2E82
:102420003AF0E0E832D091505040E695001CCAF7EF
:102430002BD0FE2F29D0660F771F881FBB1F2617B2
:1024400037074807AB07B0E809F0BB0B802DBF0189
:10245000FF2793585F4F3AF09E3F510578F00C9458
:102460003A130C9493135F3FE4F3983ED4F38695AC
:1024700077956795B795F7959F5FC9F7880F911D79
:102480009695879597F90895E1E0660F771F881F65
:10249000BB1F621773078407BA0720F0621B730B18
:1024A000840BBA0BEE1F88F7E09508950E9478130D
:1024B00088F09F5798F0B92F9927B751B0F0E1F005
:1024C000660F771F881F991F1AF0BA95C9F714C0B5
:1024D000B13091F00E949213B1E008950C949213E0
:1024E000672F782F8827B85F39F0B93FCCF38695EE
:1024F00077956795B395D9F73EF49095809570954B
:1025000061957F4F8F4F9F4F0895E89409C097FBC7
:102510003EF490958095709561957F4F8F4F9F4FBA
:102520009923A9F0F92F96E9BB279395F6958795FE
:1025300077956795B795F111F8CFFAF4BB0F11F4C1
:1025400060FF1BC06F5F7F4F8F4F9F4F16C0882368
:1025500011F096E911C0772321F09EE8872F762F9E
:1025600005C0662371F096E8862F70E060E02AF0DF
:102570009A95660F771F881FDAF7880F96958795CB
:1025800097F908950E94511320F019F00E945813F2
:1025900050F40C944E130C949313E92F0E94701373
:1025A00088F35523B1F3E7FB621773078407950798
:1025B000A8F189F3E92FFF2788232AF03197660FC6
:1025C000771F881FDAF7952F5527442332F0915053
:1025D0005040220F331F441FD2F7BB27E91BF50BD6
:1025E000621B730B840BB109B1F222F4620F731FEB
:1025F000841FB11D31972AF0660F771F881FBB1FFC
:10260000EFCF9150504062F041F0882332F0660FD6
:10261000771F881F91505040C1F793950C94401339
:102620008695779567959F5FD9F7F7CF990F000843
:10263000550FAA0BE0E8FEEF16161706E807F90794
:10264000C0F012161306E407F50798F0621B730B2F
:10265000840B950B39F40A2661F0232B242B252BB0
:1026600021F408950A2609F4A140A6958FEF811D53
:10267000811D089597F99F6780E870E060E00895F4
:102680009F3F31F0915020F4879577956795B795E6
:10269000880F911D9695879597F908959FEF80EC87
:1026A000089500240A9416161706180609060895B8
:1026B00000240A9412161306140605060895092E1E
:1026C0000394000C11F4882352F0BB0F40F4BF2B8D
:1026D00011F460FF04C06F5F7F4F8F4F9F4F0895CD
:1026E00057FD9058440F551F59F05F3F71F04795C3
:1026F000880F97FB991F61F09F3F79F087950895A8
:10270000121613061406551FF2CF4695F1DF08C0C6
:10271000161617061806991FF1CF869571056105E3
:1027200008940895E894BB2766277727CB0197F98B
:1027300008950E94161308F48FEF08950E94B113B4
:102740000C945F130E94511338F00E94581320F02C
:10275000952311F00C943A130C944E1311240C94FD
:1027600093130E94701370F3959FC1F3950F50E07F
:10277000551F629FF001729FBB27F00DB11D639F33
:10278000AA27F00DB11DAA1F649F6627B00DA11DD9
:10279000661F829F2227B00DA11D621F739FB00D7F
:1027A000A11D621F839FA00D611D221F749F3327EF
:1027B000A00D611D231F849F600D211D822F762F88
:1027C0006A2F11249F5750409AF0F1F088234AF065
:1027D000EE0FFF1FBB1F661F771F881F91505040D1
:1027E000A9F79E3F510580F00C943A130C94931373
:1027F0005F3FE4F3983ED4F3869577956795B79558
:10280000F795E7959F5FC1F7FE2B880F911D969571
:10281000879597F908950E947813E8F09E37E8F0BD
:102820009639B8F49E3848F4672F782F8827985F38
:10283000F9CF86957795679593959539D0F3B62F0F
:10284000B1706B0F711D811D20F487957795679589
:1028500093950C942F140C9440130C949313882389
:1028600071F4772321F09850872B762F07C06623C9
:1028700011F499270DC09051862B70E060E02AF08A
:102880009A95660F771F881FDAF7880F96958795B8
:1028900097F90895CF93DF93EC012B8120FF2FC090
:1028A00026FF0CC02F7B2B838E819F8101968E8308
:1028B0009F838A8190E0DF91CF91089522FF14C019
:1028C000E881F9818081082E000C990B2062009725
:1028D000A9F03196E883F9832E813F812F5F3F4F26
:1028E0002E833F839927E7CFEA85FB85199597FFCC
:1028F000F3CF2B81019631F080E2282B2B838FEFD1
:102900009FEFD9CF80E1F9CFCF93DF93CDB7DEB77B
:10291000AE014A5F5F4FFA0161917191AF01809101
:10292000E4219091E5210E94F614DF91CF91089562
:102930006091E4217091E5210C94AB190F931F93E2
:10294000CF93DF93E091E421F091E521238110E022
:1029500000E021FD0EC00FEF1FEFC801DF91CF9106
:102960001F910F9108951995892B11F00FEF1FEF0B
:10297000CE01EC0189916091E4217091E521DB01A8
:102980001896ED91FC918111EECF8AE01995892B73
:1029900021F3E1CFCF93DF93CDB7DEB7AE014A5F2E
:1029A0005F4FFA0161917191AF018091E2219091A5
:1029B000E3210E946D18DF91CF910895FB012381DF
:1029C00020FF11C026FD0FC08F3F980771F0828352
:1029D0002F7D20642383268137812150310926836E
:1029E0003783992708958FEF9FEF08952F923F9295
:1029F0004F925F926F927F928F929F92AF92BF920F
:102A0000CF92DF92EF92FF920F931F93CF93DF93BA
:102A1000CDB7DEB72B97CDBFDEBF7C013B018A016E
:102A2000FC0116821782838181FFCBC19AE0292E97
:102A3000CE0101965C01F7019381F30193FD85912D
:102A400093FF81913F01882309F446C1853239F40F
:102A500093FD859193FF81913F01853229F4B70160
:102A600090E00E94AB19E7CF912C412C512CFFE153
:102A7000F51538F08B3209F188F4803201F1833298
:102A800021F157FC3AC020ED280F2A3040F556FEC0
:102A90001FC0929C200D1124922E06C08D3291F001
:102AA000803379F7689450F8F30193FD859193FF93
:102AB00081913F018111DBCF20C0689451F8689467
:102AC00052F8F2CF689453F8EFCF689454F8ECCFF3
:102AD000429C200D1124422E689455F8E5CF8E3289
:102AE00029F456FCF9C0689456F8DECF8C3619F4F8
:102AF000689457F8D9CF8836B9F2982F9F7D9554AE
:102B00009330C0F08336A1F18337C1F1833509F0EA
:102B10005BC0F801C190D1908F01692D70E056FC27
:102B200002C06FEF7FEFC6010E9495194C016894B7
:102B300057F80AC00C5F1F4F2FE329838824839422
:102B4000912C6501E89457F853FC04C0481419040B
:102B500009F018F5342C8114910431F5332009F46F
:102B60006ACFB70180E290E00E94AB193A94F6CFA9
:102B7000F801808189830E5F1F4FE0CFF801C1907B
:102B8000D1908F01692D70E056FC02C06FEF7FEF8E
:102B9000C6010E94A0194C01D5CFB70180E290E098
:102BA0000E94AB194A94D2CFF60157FC859157FE8B
:102BB00081916F01B70190E00E94AB1931103A94F6
:102BC000F1E08F1A9108C7CF843619F0893609F0E1
:102BD00074C0F80157FE6AC0619171918191919121
:102BE0008F01252D2F76D22E97FF09C090958095C5
:102BF000709561957F4F8F4F9F4F6894D7F82AE06B
:102C000030E0A5010E94DB19C82ECA188C2C5D2C5F
:102C1000D6FE0CC0E89450F8C91440F4D4FE05C0A8
:102C2000D2FC03C0FD2DFE7E5F2E892C54FEA1C078
:102C3000FE01EC0DF11D8081803309F093C0252D3C
:102C4000297E522E852D8870382E53FCA1C050FE4F
:102C50009BC09C2C841418F44C0C942C981854FE93
:102C60009DC0B70180E390E00E94AB1952FE09C0FD
:102C700088E790E051FE02C088E590E0B7010E942D
:102C8000AB19C91408F496C0CA94D12C9FEFC91A85
:102C9000D90ACA0CDB1CF60182916F01B70190E0E2
:102CA0000E94AB19AC14BD04B1F758CF619171917A
:102CB000072E000C880B990B93CFD52CE894D4F8F1
:102CC0002AE030E08537C9F1952D997FD92E8F36CE
:102CD00091F1D8F4883539F1F701868197812B96E7
:102CE000CDBFDEBFDF91CF911F910F91FF90EF908D
:102CF000DF90CF90BF90AF909F908F907F906F901C
:102D00005F904F903F902F900895803749F088371B
:102D100019F7D4FE02C06894D2F820E130E00DC06B
:102D20006894D4F8F6CF54FE03C0E92FE660DE2E97
:102D300020E132E002C028E030E0F801D7FE0DC00B
:102D400061917191819191918F01A5010E94DB198F
:102D5000C82ECA18E894D7F859CF6191719190E0C4
:102D600080E0F2CF52FC02C083946CCF83948394B2
:102D700069CF852D867809F465CFF6CFB70180E25B
:102D800090E00E94AB1983948414C0F3312C67CF78
:102D9000342C3818841408F462CFF8CF852D867847
:102DA00009F46FCF8BE251FE80E257FC8DE2B70150
:102DB00090E065CFB70180E390E00E94AB199A9450
:102DC00060CF8FEF9FEF8BCF20FD09C0FC0123FD6B
:102DD00005C022FF02C0738362835183408308953C
:102DE00033E044FD10C034E046FD0DC0DB01FC01C2
:102DF000AA0FBB1FEE1FFF1F1094D1F76A0F7B1F96
:102E00008E1F9F1F31E0660F771F881F991F31505B
:102E1000D1F7620F711D811D911D08950F931F93AE
:102E2000CF93DF938C01C8010E944A14EC0197FDF7
:102E300008C00E948119892BB1F7B801CE010E9408
:102E4000DE14CE01DF91CF911F910F9108958F92E3
:102E50009F92AF92BF92EF92FF920F931F93CF93E7
:102E6000DF938C01D62F7A01B22E0E944A149C0166
:102E700033272B32310529F02D323105A9F468941E
:102E8000B7F8D15061F480E0DF91CF911F910F919D
:102E9000FF90EF90BF90AF909F908F900895C801E2
:102EA0000E944A1497FDEFCFCB2DCD7F2B2D2073A1
:102EB000F9F48033E9F4AA24AA94AD0E89F0C8018C
:102EC0000E944A1497FD0CC0282F2F7D283561F4ED
:102ED000C264D25029F0C8010E944A1497FF08C06A
:102EE000812C912C54011BC0B6FE2BC0C260DA2D80
:102EF000812C912C540120ED280F283028F1C4FD9D
:102F000009C02A3008F1C6FF05C02F7D3FEE320F01
:102F10003630C8F0B8010E94DE14C1FFB4CFC7FF3D
:102F200008C0B094A09490948094811C911CA11C22
:102F3000B11C2C2FB501A401C7010E94E41681E049
:102F4000A3CFC261D4CF27504C2FC501B4010E943A
:102F5000F0164B015C01C260D15009F3C8010E9418
:102F60004A1497FFC8CFD9CF8F929F92AF92BF924A
:102F7000CF92DF92EF92FF920F931F93CF93DF9345
:102F8000CDB7DEB7A097CDBFDEBF5C01962E7A012C
:102F9000CE0101966C0180E2F60111928A95E9F763
:102FA000F5018380890150E040E0B0E020E0A0E03E
:102FB00061E070E0F80183FC959183FE9191892F87
:102FC0008F01911113C010E000E0C801A096CDBFA1
:102FD000DEBFDF91CF911F910F91FF90EF90DF90B7
:102FE000CF90BF90AF909F908F9008959E3519F429
:102FF0004115510531F1A4171506ECF49D3549F141
:103000009D32C9F4222309F1E82FE695E695E6956D
:10301000EC0DFD2DF11D982F97709B0101C0220F23
:103020009A95EAF79081292B20838B1781F08B17D3
:1030300030F48F5FE9CF2111E7CFB92FE5CF815071
:10304000E3CFA1E04F5F5F4FB5CF21E0FBCF20E0A2
:10305000F9CF222319F08E8180628E83AA2361F03A
:10306000F6019E012F5D3F4FDF018D91809580839A
:10307000FD01A217B307C1F788248394C5010E94FC
:103080004A1497FD16C0E82FE695E695E695EC0DF7
:10309000FD2DF11D208130E0AC014770552702C0A5
:1030A000359527954A95E2F720FD06C0B5010E94A7
:1030B000DE14882059F087CFE114F10419F0F701EC
:1030C00081937F019A94812C9110D8CFE114F1045F
:1030D00009F47BCFF701108278CF6F927F928F92A5
:1030E0009F92AF92BF92CF92DF92EF92FF920F9397
:1030F0001F93CF93DF935C01EB01742E652EFC01CF
:1031000016821782C12CF501F380FE01F3FC859134
:10311000F3FE8191182FEF018823E9F090E00E94DF
:103120008119892B21F0C5010E940E17ECCF1532B1
:1031300041F4FE01F3FC1591F3FE1191EF011532FC
:1031400069F4C5010E944A1497FD8CC01817D9F282
:10315000B5010E94DE148C2D90E088C000E01A3288
:1031600031F4F3FC1591F3FE1191EF0101E0D12C44
:1031700020ED210F2A3048F101FF37C0DD2059F33F
:103180001836B1F11C3609F43DC0112321F3612F2B
:1031900070E088E092E00E948A19892BE1F2F12C1C
:1031A000E12C00FD06C0E72DF62DE190F1907E2E7A
:1031B0006F2E1E3679F5F5014681578170E060E08B
:1031C000202FC7010E94E4169ECF02606D2D70E093
:1031D00090E080E040E20E94F016D62EFE01F3FC63
:1031E0001591F3FE1191EF01C3CFDD24DA94C8CF1E
:1031F000FE01F3FC1591F3FE1191EF01183609F071
:10320000C4CF08600460FE01F3FC1591F3FE119138
:10321000EF01BBCF1336B1F401FD02C0DD24D3941E
:10322000C5010E944A1497FD1DC0E114F10419F074
:10323000F70181937F01DA94D110F2CF00FD63CFC3
:10324000C39461CF1B3509F59E01A7016D2DC50102
:103250000E94B417EC01892B89F7F50183818073F3
:1032600009F479CF8FEF9FEFC11075CFDF91CF9128
:103270001F910F91FF90EF90DF90CF90BF90AF9094
:103280009F908F907F906F900895C5010E940E17B8
:1032900097FDE8CF1F3699F130F4143641F0193616
:1032A00039F0006405C01337A9F01537D1F7006273
:1032B000202FA7016D2DC5010E9427178111BECFB8
:1032C000CCCFE114F10419F0F70181927F01DA9477
:1032D000DD2071F0C5010E944A144C0197FD08C021
:1032E0000E948119892B69F3B501C4010E94DE1483
:1032F000E114F10409F4A2CFF70110829FCF00611D
:10330000D7CF91110C94391A803219F08950855019
:10331000C8F70895FC010590061621F00020D9F7A2
:10332000C00108953197CF010895FC0105906150C7
:1033300070400110D8F7809590958E0F9F1F0895CB
:10334000FC016150704001900110D8F78095909574
:103350008E0F9F1F08950F931F93CF93DF93182F06
:10336000092FEB018B8181FD09C01FEF0FEF812F2A
:10337000902FDF91CF911F910F91089582FF14C07C
:103380002E813F818C819D81281739073CF4E8818B
:10339000F981CF0101968883998310838E819F8163
:1033A00001968E839F83E3CFE885F985812F199558
:1033B000892BA1F3DACFFA01AA27283051F1203165
:1033C00081F1E8946F936E7F6E5F7F4F8F4F9F4FB9
:1033D000AF4FB1E03ED0B4E03CD0670F781F891FFB
:1033E0009A1FA11D680F791F8A1F911DA11D6A0FC9
:1033F000711D811D911DA11D20D009F468943F917C
:103400002AE0269F11243019305D3193DEF6CF017A
:103410000895462F4770405D4193B3E00FD0C9F740
:10342000F6CF462F4F70405D4A3318F0495D31FDAD
:103430004052419302D0A9F7EACFB4E0A695979500
:10344000879577956795BA95C9F7009761057105D6
:1034500008959B01AC010A2E069457954795379520
:103460002795BA95C9F7620F731F841F951FA01D7A
:0C3470000895992788270895F894FFCF4D
:10347C00000000030000000030022303000002499A
:10348C0004920924256300205748495445002052D2
:10349C00454400204F52414E4745002059454C4C65
:1034AC004F570020475245454E00204359414E008E
:1034BC0020424C55450020505552504C4500205050
:1034CC00494E4B00483A20253564207C20533A2045
:1034DC00253564207C20563A202535640A004C455D
:1034EC00445F52656420253564207C2047726565F5
:1034FC006E20253564207C20426C75652025356452
:10350C00207C2043616C202535640A001B5B481B22
:10351C005B324A1B5B334A0044696F646520636FFE
:10352C00723A0025356420000A44696F64652056A0
:10353C00616C7565733A00436F72656374656420E2
:08354C0076616C7565733A00AD
:00000001FF
