:100000000C940A010C942B010C942B010C942B01E1
:100010000C942B010C942B010C942B010C942B01B0
:100020000C942B010C942B010C942B010C942B01A0
:100030000C942B010C942B010C942B010C942B0190
:100040000C942B010C942B010C942B010C942B0180
:100050000C9493120C942B010C942B010C942B01F7
:100060000C942B010C942B010C942B010C942B0160
:100070000C942B010C942B010C942B010C942B0150
:100080000C942B010C942B010C942B010C942B0140
:100090000C942B010C942B010C942B010C94240C2C
:1000A0000C94CD0C0C94760D0C942B010C942B011C
:1000B0000C942B010C942B010C942B010C942B0110
:1000C0000C942B010C942B010C942B010C942B0100
:1000D0000C942B010C942B010C942B010C942B01F0
:1000E0000C942B010C942B010C942B010C942B01E0
:1000F0000C942B010C942B010C942B010C942B01D0
:100100000C942B010C942B010C942B010C942B01BF
:100110000C942B010C942B010C942B010C94290AA8
:100120000C94D20A0C947B0B0C942B010C942B0195
:100130000C942B010C942B010C942B010C942B018F
:100140000C942B010C942B010C942B010C942B017F
:100150000C942B010C942B010C942B010C942B016F
:100160000C942B010C942B010C942B010C942B015F
:100170000C942B010C942B010C942B010C942B014F
:100180000C942B010C942B010C942B010C942B013F
:100190000C942B010C942B010C942B010C942B012F
:1001A0000C942B010C942B010C942B010C942B011F
:1001B0000C942B010C942B010C942B010C942B010F
:1001C0000C942B010C942B010C942B010C942B01FF
:1001D0000C942B010C942B010C942B010C947503A3
:1001E0000C9498030C942B010C942B010C942B0170
:1001F0000C942B010C942B010C942B010C94721475
:100200000C9423030C9430026364696E6F707375F1
:1002100078585B0011241FBECFEFCDBFDFE5DEBFF6
:1002200000E00CBF10E2A0E0B0E2E4E1FDE300E09A
:100230000BBF02C007900D92A632B107D9F721E299
:10024000A6E2B0E201C01D92A833B207E1F70E9416
:10025000D2120C94881E0C94000080915000826091
:10026000809350008091510081FFFCCF88ED84BFC6
:1002700081E08093400008958BEC80935200809140
:1002800050008860809350008091510083FFFCCF24
:1002900082EC8093550080915000806180935000E3
:1002A0008091510084FFFCCF88ED84BF84E080936F
:1002B0004000809150008E7F8093500080915000CC
:1002C0008D7F8093500008958BEC80935200809135
:1002D00050008860809350008091510083FFFCCFD4
:1002E00081EC809355008091500080618093500094
:1002F0008091510084FFFCCF88ED84BF84E080931F
:100300004000809150008E7F80935000809150007B
:100310008D7F809350000895809150008460809379
:1003200050008091510082FFFCCF80915600897F60
:100330008093560080915600809356008091600013
:100340008160809360000895809150008460809364
:1003500050008091510082FFFCCF809156008E7F2B
:1003600080935600809156008093560080916800DB
:10037000816080936800089580915200826080932C
:10038000520080915000886080935000809151000D
:1003900083FFFCCF80915600897F80935600809127
:1003A0005600826080935600809160008160809347
:1003B000600008958091520082608093520088ED21
:1003C00084BF8091500088608093500080915100DC
:1003D00083FFFCCF809156008E7F809356008091E2
:1003E0005600816080935600809168008160809300
:1003F000680008952091F12091E0920F8091F02003
:10040000943610F09DE9920F891710F0891B08951A
:100410008C59FCCFCF93DF93C82FD1E20E94FA0111
:100420008823D9F08091F120E82FF0E0E457FF4DC8
:10043000C0838F5F843608F080E09091A200292F5E
:100440002E7F2093A2008093F12081E28093A30B62
:100450009093A200DF91CF910895D093A30BDECFAC
:10046000CF93DF93D82FCFEF0E94FA01882379F042
:10047000CC2389F0DA3019F48DE00E940A028D2F26
:100480000E940A0290E080E0DF91CF910895CC2392
:1004900011F0C150E9CF81E090E0F6CF8F929F92AA
:1004A000AF92BF92CF92DF92EF92FF92CF93C42F81
:1004B0000E94B51620E030E041EE59E40E94D115CB
:1004C0006B017C018C2F0C2E000C990BC7FF2FC0E9
:1004D00091958195910961E070E002C0660F771FE8
:1004E0008A95E2F7072E000C880B990B0E94B7162D
:1004F0004B015C0120E030E040E85FE3C701B6015A
:100500000E945F159B01AC01C501B4010E941C183B
:100510000E9489180E948616CB01CF91FF90EF9020
:10052000DF90CF90BF90AF909F908F90089561E043
:1005300070E002C0660F771FCA95E2F7072E000C25
:10054000880B990B0E94B7169B01AC01C701B6013D
:100550000E94D11520E030E040E85FE30E945F1583
:10056000D7CF0C940A02CF93DF93EC0189918111CC
:1005700003C0DF91CF9108950E940A02CE01F5CF0A
:10058000CF92DF92EF92FF92CF936B017C01C9EF84
:100590004C2FC701B6010E944E028115904118F000
:1005A000CF5FC830A9F74C2FC701B6010E944E0299
:1005B00028E12093B20638E03093A5063093A106D7
:1005C00034E03093A2068093A60B9F70C295C07F43
:1005D000C92BC093A70B2093A40B80E28093A30B9D
:1005E0008091A20083608093A20080E090E28093DB
:1005F0003221909333218093342190933521CF91F0
:10060000FF90EF90DF90CF90089580918B20909194
:100610008A20891710F0891B08958C59FCCFCF933D
:10062000C0918A200E9405038823E1F3EC2FF0E0BB
:10063000EA5DFF4D8081CF5FC43608F0C0E0C09313
:100640008A20CF9108950E940F0390E008950E94A0
:100650000503882321F00E940F0390E0089580E0B5
:1006600091E00895CF92DF92EF92FF920F931F9344
:10067000CF93DF937C016B01C82FDF2D10E000E0EA
:1006800080913221909133210E94C8188A3059F00C
:100690008D30A1F400ED17E00E940503811115C013
:1006A00001501109C9F71882C701DF91CF911F913D
:1006B0000F91FF90EF90DF90CF9008950C151D05DE
:1006C00008F489930F5F1F4FDBCF80913221909107
:1006D00033210E94C8188A3031F360913221709121
:1006E000332190E00E942A19DECF8F938FB78F932A
:1006F0008BB78F939F93EF93FF9380918B20E82F7D
:10070000F0E09091A00BEA5DFF4D90838F5F8436FF
:1007100008F080E090918A20981380938B20FF91BD
:10072000EF919F918F918BBF8F918FBF8F91189574
:100730002F932FB72F932BB72F938F939F93EF93D5
:10074000FF938091F0209091F120891310C080E2F6
:100750008093A30B892F8093F020FF91EF919F91BD
:100760008F912F912BBF2F912FBF2F911895E82F8D
:10077000F0E0E457FF4D20812093A00B8F5F84367B
:1007800008F080E08913E7CFE2CFCF93DF93EC014D
:1007900083E08093A10691E090934106E0E0FBE0C6
:1007A00093E39183A0E0B8E093E111969C931197B5
:1007B00080838C938FEF90E086A397A396968D937A
:1007C0009C9397978A819B8182A793A78C819D8117
:1007D00080A791A78E819F8198968D939C939997DE
:1007E000DF91CF9108952F923F924F925F926F9237
:1007F0007F928F929F92AF92BF92CF92DF92EF92B1
:10080000FF920F931F93CF93DF93CDB7DEB760971F
:10081000CDBFDEBF8C01FC016281738190E080E07E
:100820000E94B51620E030E04FE753E40E94D11556
:100830006F83788789879A87F8016481758190E052
:1008400080E00E94B51620E030E04FE753E40E94BC
:10085000D1153B014C01F8016681778190E080E081
:100860000E94B51620E030E04FE753E40E94D11516
:100870007B018C019301A4016F81788589859A851C
:100880000E9417189701A801181664F46F817885E3
:1008900089859A850E94171818160CF4ADC0570167
:1008A000680108C0B301C4010E9417185301640114
:1008B0001816ACF79301A4016F81788589859A8514
:1008C0000E94CC159701A80187FF9BC06F81788596
:1008D00089859A850E94CC1587FD9EC0EB86FC8693
:1008E0000D871E872B853C854D855E85B501C6012C
:1008F0000E945F151B012C012B853C854D855E8573
:10090000B501C6010E94CC15882309F4CCC095011D
:10091000A6016F81788589859A850E94CC15811101
:1009200084C09701A801B301C4010E945F15A20110
:1009300091010E94D11520E030E040E752E40E948E
:100940001C1820E030E044EB53E40E94601520E0E6
:1009500030E044EB53E40E943B170E9486166F87F9
:10096000788B20E030E0A901B501C6010E94CC15CA
:1009700020E090E0882381F09501A601C201B10139
:100980000E94D11520E030E048EC52E40E941C188F
:100990000E948616262F972F0F85098388898A83C0
:1009A000122F2B839C8320E030E048EC52E4B50109
:1009B000C6010E941C180E9486166D837E83202F1C
:1009C0003A81412F5C817E8180E090E06096CDBFCE
:1009D000DEBFDF91CF911F910F91FF90EF90DF90DD
:1009E000CF90BF90AF909F908F907F906F905F90CF
:1009F0004F903F902F900895AF80B884C984DA84D7
:100A000059CFB301C4010E94CC1587FF67CF6B8615
:100A10007C868D869E8666CFFF81FB8788858C8746
:100A2000E985ED87FA85FE875DCF9501A601B301C3
:100A3000C4010E94CC15811117C02F8138854985CA
:100A40005A85B701C8010E945F15A20191010E9459
:100A5000D11520E030E040E752E40E941C1820E06D
:100A600030E040EF52E471CF9501A601B701C80113
:100A70000E94CC15811175CF9301A4016F817885F7
:100A800089859A850E945F15A20191010E94D11566
:100A900020E030E040E752E40E941C1820E030E003
:100AA00040E753E452CF1F86188A5BCF2F923F92C4
:100AB0004F925F926F927F928F929F92AF92BF926E
:100AC000CF92DF92EF92FF920F931F93CF93DF931A
:100AD000CDB7DEB72A97CDBFDEBF8C01FC01808089
:100AE00091806481758190E080E00E94B51620E0DD
:100AF00030E048EC52E40E94D1152B013C01F80192
:100B00006281738190E080E00E94B51620E030E0C1
:100B100048EC52E40E94D115A30192010E941C18D6
:100B20007B018C01B40190E080E00E94B51620E0CA
:100B300030E040E752E40E94D11520E030E040E090
:100B400050E40E943B1720E030E040E85FE30E9461
:100B50005F159B01AC015F7760E070E080E89FE388
:100B60000E945F159701A8010E941C185B016C018F
:100B7000362E2B2C8987DA869701A801C301B20192
:100B80000E945F152B013C01FCE38F169104E8F0F5
:100B900088E788169104F8F0E4EB8E16910408F4C7
:100BA00070C0F0EF8F16910408F472C08CE28816C2
:100BB00081E0980608F471C01501460157016801EB
:100BC000E12CF12C00E010E00AC057016801E32C91
:100BD000F22C09851A85212C312C812C912CA30112
:100BE0009201B501C6010E94601520E030E04FE798
:100BF00053E40E941C180E948616D62E6B837C83B9
:100C0000A3019201B701C8010E94601520E030E005
:100C10004FE753E40E941C180E948616162F6D831E
:100C20007E83A3019201B101C4010E94601520E0FE
:100C300030E04FE753E40E941C180E948616862F6E
:100C4000262F372F2F83388729813A814D2D5C81BC
:100C5000612F7E8198852A96CDBFDEBFDF91CF912F
:100C60001F910F91FF90EF90DF90CF90BF90AF90CA
:100C70009F908F907F906F905F904F903F902F90BC
:100C8000089515014601A12CB12CC12CD12CA7CF60
:100C90001701480175018601F6CF1701480190CF71
:100CA0008F929F92AF92BF92CF92DF92EF92FF927C
:100CB0000F931F93CF93DF934B015C016901D42FF6
:100CC000C52F0E9417189701A8011816BCF4B4018B
:100CD000C5010E941718181614F474018501B70194
:100CE000C801DF91CF911F910F91FF90EF90DF909E
:100CF000CF90BF90AF909F908F900895B6018D2FA9
:100D00009C2F0E941718181654F776010D2F1C2FD0
:100D1000E6CF8F929F92AF92BF92CF92DF92EF92E7
:100D2000FF920F931F93CF93DF934B015C016901F7
:100D3000D42FC52F0E94CC159701A80187FF17C09B
:100D4000B401C5010E94CC1587FF02C07401850162
:100D5000B701C801DF91CF911F910F91FF90EF90E4
:100D6000DF90CF90BF90AF909F908F900895B60185
:100D70008D2F9C2F0E94CC1587FFEACF76010D2F77
:100D80001C2FE6CF422BFB0141838FE08083089527
:100D900021E030E0209310213093112120930E2187
:100DA00030930F2120930C2130930D211092F220CB
:100DB0001092F320FC01848195818115F6E09F0754
:100DC00091F482E08093400281E0809300026130E0
:100DD00049F1662391F0623059F180EF80938001F0
:100DE000809381012AC08032964089F782E0809307
:100DF000000281E080934002EACF80EF809380017F
:100E0000109281011092820181E390E08093260B81
:100E10009093270B84E08093000B1092010B1092AB
:100E2000060B08951092800180EF80938101EACF34
:100E3000109280011092810180EF80938201E4CFB3
:100E4000E0E0FBE010821682E0E8F1E0108211821F
:100E5000128208950F931F93FC01E61BF70B021BF0
:100E6000110BE09FC001E19F900DF09F900D1124A8
:100E7000FA01E61BF70BBF010E943C14822F860F7C
:100E80001F910F910895DC011296ED91FC916383FF
:100E9000828187FFFDCF83810895CF93DF93EC019B
:100EA00088819981803826E09207E1F480E180937F
:100EB000850660E0CE010E94430760E0CE010E94FB
:100EC000430788819981803626E0920791F480E17A
:100ED0008093250698E09093860680936606DF91BE
:100EE000CF9108958036964021F780E18093650682
:100EF000E0CF8038964099F788E08093850680930C
:100F0000860680E180938606EACFEF920F931F93C7
:100F1000CF93DF93EC01FB01688379834A835B8382
:100F20002C833D830E831F83603686E0780709F0AB
:100F300059C080E18093210680E28093220680EBF5
:100F4000818380E4828388E0858380EDDA018C935D
:100F5000EE2019F0868580628687CE010E944D07BB
:100F6000AC81BD818EE012968C931297EE81FF8149
:100F7000A03286E0B80709F040C089E181A39FE074
:100F800090A381E082A321E121A790A782A729E075
:100F900021AB90AB82ABEE81FF8180E18183128235
:100FA00087E0848381E0808393E89383A11596E0B2
:100FB000B90799F592E0909340028093000280EF88
:100FC0008093800180938101809382018091A200AF
:100FD00081608093A2007894DF91CF911F910F914F
:100FE000EF9008956038764009F0A9CF88E08093AB
:100FF000810680E180930206A2CFA11596E0B90791
:1010000051F688E181A39FE090A381E082A320E1D3
:1010100021A790A782A728E0BBCFA032B64079F6DF
:1010200092E09093000280934002C9CF1F93CF9328
:10103000DF93EC01162F672F88819981803826E095
:101040009207E1F480E180938506CE010E94430778
:10105000612FCE010E94430788819981803626E066
:10106000920799F480E18093250698E09093860694
:1010700080936606DF91CF911F9108958036964048
:1010800021F780E180936506E0CF8038964091F7A4
:1010900088E0809385068093860680E180938606AB
:1010A000E9CF2F923F924F925F926F927F928F92F1
:1010B0009F92AF92BF92CF92DF92EF92FF920F93E7
:1010C0001F93CF93DF93CDB7DEB76F97CDBFDEBF52
:1010D0003C0186E0EEE0F0E2DE01199601900D920F
:1010E0008A95E1F71E012FE0220E311CCE010996F0
:1010F0008D8F9E8F512C412C4F8EC3010E944D0726
:10110000642DC3010E94C8068091F2209091F320C3
:101110000597D0F3C3010E9420074201F3E0880C39
:10112000991CFA95E1F7F401EC50FF4D20813181D3
:10113000428153816481758186819781A5E0AA2EC1
:10114000B12CC12CD12CE12CF12C00E010E00E943C
:1011500066142D8B3E8B4F8B588F698F7A8F8B8FB8
:101160009C8FED8DFE8D61917191ED8FFE8FC3018E
:101170000E9416086F8DC3010E94C8068091F2205C
:101180009091F3200597D0F3C3010E942007F4014A
:10119000EC50FF4D20813181428153816481758102
:1011A00086819781A0E00E94531599F094F02081E8
:1011B00031814281538164817581868197810E944A
:1011C000F41420833183428353836483758386833D
:1011D0009783F401EC50FF4D20813181428153818E
:1011E0006481758186819781E5E0AE2EB12CC12C9A
:1011F000D12CE12CF12C00E010E00E946614490192
:101200008D899E89881A990A97FCBAC0F10180825B
:101210009182FFEF4F1A5F0A22E0220E311C83E019
:101220004816510409F068CF6F857889072E000CA5
:10123000880B990B0E94B7162AE939E949E15FE367
:101240000E941C180E947F168B01095011096989A0
:101250007A89072E000C880B990B0E94B71623E39E
:1012600033E343E35FE30E941C180E947F165B0197
:10127000EAE1AE1AB108EB88FC88F8E1EF1AF10850
:10128000C3010E944D07B801110F880B990B0E94F2
:10129000B7162B013C01B701FF0C880B990B0E947C
:1012A000B7166B017C01B501BB0C880B990B0E9432
:1012B000B7164B015C019B01AC01B201C3010E9456
:1012C000171818160CF060C09601A701B201C301EF
:1012D0000E94171818160CF464C07C2D6D2D9E2DDD
:1012E0008F2D272F362F492F582FB201C3010E946F
:1012F000D11520E030E04FE753E40E941C180E9413
:101300008616162F272E9401A501B201C3010E9453
:10131000171818160CF04AC09601A701B201C301B4
:101320000E94171818160CF44EC07C2D6D2D9E2DA2
:101330008F2D272F362F492F582FB401C5010E941A
:10134000D11520E030E04FE753E40E941C180E94C2
:101350008616362E072F9401A501B201C3010E9403
:1013600017181816ACF59601A701B201C3010E9427
:1013700017184201530118169CF14601570130C05D
:1013800091948194910842CF9401A501B601C701BF
:101390000E94CC1587FFA1CF782D692D9A2D8B2D1A
:1013A000A0CF742D652D962D872D9BCF9401A5017F
:1013B000B601C7010E94CC1587FFB7CF782D692DE4
:1013C0009A2D8B2DB6CF742D652D962D872DB1CFEF
:1013D0009401A501B601C7010E94CC1587FFCDCFAE
:1013E000712E812F922D8B839C83832D902F8D8343
:1013F0009E839401A501B601C7010E94D11520E08A
:1014000030E04FE753E40E941C180E948616862F96
:10141000262F372F2F83388729813A81472D5C81EA
:10142000632D7E8198856F96CDBFDEBFDF91CF9112
:101430001F910F91FF90EF90DF90CF90BF90AF90F2
:101440009F908F907F906F905F904F903F902F90E4
:1014500008950F920FB60F921F921124AF92BF9270
:10146000CF92DF92EF92FF920F931F932F933F93B0
:101470004F935F936F937F938F939F93AF93BF939C
:1014800080911021909111210197E1F4109228216F
:101490001092292110922621109227211092F420D7
:1014A0001092F5201092F6201092F7201092F8205A
:1014B0001092F9201092FA201092FB201092102125
:1014C00010921121809124029091250220912621D1
:1014D00030912721820F931F8093262190932721FB
:1014E00060912821709129216F5F7F4F609328219F
:1014F0007093292164367105F1F5A090F420B09025
:10150000F520C090F620D090F720E090F820F090E1
:10151000F9200091FA201091FB200E9450149B01A9
:10152000932F990F990B492F592F692F792F892FB5
:101530000E9435152093F4203093F5204093F62037
:101540005093F7206093F8207093F9208093FA204D
:101550009093FB201092262110922721109228218F
:10156000109229218091F2209091F320019680938E
:10157000F2209093F320BF91AF919F918F917F9133
:101580006F915F914F913F912F911F910F91FF901C
:10159000EF90DF90CF90BF90AF901F900F900FBE55
:1015A0000F9018950F920FB60F921F921124AF92C1
:1015B000BF92CF92DF92EF92FF920F931F932F93E0
:1015C0003F934F935F936F937F938F939F93AF93CB
:1015D000BF9380910E2190910F210197E1F4109219
:1015E0002421109225211092222110922321109261
:1015F000FC201092FD201092FE201092FF201092ED
:1016000000211092012110920221109203211092C8
:101610000E2110920F2180912C0290912D02209189
:10162000222130912321820F931F809322219093B6
:10163000232160912421709125216F5F7F4F60935A
:1016400024217093252164367105F1F5A090FC20CA
:10165000B090FD20C090FE20D090FF20E0900021AF
:10166000F090012100910221109103210E94501459
:101670009B01932F990F990B492F592F692F792F80
:10168000892F0E9435152093FC203093FD20409334
:10169000FE205093FF2060930021709301218093DE
:1016A0000221909303211092222110922321109263
:1016B0002421109225218091F2209091F32001960F
:1016C0008093F2209093F320BF91AF919F918F91DF
:1016D0007F916F915F914F913F912F911F910F914A
:1016E000FF90EF90DF90CF90BF90AF901F900F9042
:1016F0000FBE0F9018950F920FB60F921F921124E4
:10170000AF92BF92CF92DF92EF92FF920F931F930F
:101710002F933F934F935F936F937F938F939F93F9
:10172000AF93BF9380910C2190910D210197E1F42B
:10173000109220211092212110921E2110921F211F
:101740001092042110920521109206211092072177
:10175000109208211092092110920A2110920B2157
:1017600010920C2110920D2180913402909135023B
:1017700020911E2130911F21820F931F80931E21E3
:1017800090931F2160912021709121216F5F7F4FE5
:10179000609320217093212164367105F1F5A090AA
:1017A0000421B0900521C0900621D0900721E0903F
:1017B0000821F090092100910A2110910B210E942B
:1017C00050149B01932F990F990B492F592F692F73
:1017D000792F892F0E9435152093042130930521FC
:1017E00040930621509307216093082170930921AB
:1017F00080930A2190930B2110921E2110921F2199
:1018000010922021109221218091F2209091F320BA
:1018100001968093F2209093F320BF91AF919F9116
:101820008F917F916F915F914F913F912F911F9178
:101830000F91FF90EF90DF90CF90BF90AF901F90EF
:101840000F900FBE0F9018950F920FB60F921F9228
:101850001124AF92BF92CF92DF92EF92FF920F933B
:101860001F932F933F934F935F936F937F938F9328
:101870009F93AF93BF938091102190911121019775
:10188000E1F410921C2110921D2110921A21109245
:101890001B211092F4201092F5201092F620109245
:1018A000F7201092F8201092F9201092FA2010924E
:1018B000FB201092102110921121809164029091CE
:1018C000650220911A2130911B21820F931F809372
:1018D0001A2190931B2160911C2170911D216F5F33
:1018E0007F4F60931C2170931D2164367105F1F5C3
:1018F000A090F420B090F520C090F620D090F72072
:10190000E090F820F090F9200091FA201091FB204F
:101910000E9450149B01932F990F990B492F592F17
:10192000692F792F892F0E9435152093F420309349
:10193000F5204093F6205093F7206093F8207093A1
:10194000F9208093FA209093FB2010921A21109294
:101950001B2110921C2110921D218091F220909148
:10196000F32001968093F2209093F320BF91AF91E2
:101970009F918F917F916F915F914F913F912F91A7
:101980001F910F91FF90EF90DF90CF90BF90AF909D
:101990001F900F900FBE0F9018950F920FB60F92D9
:1019A0001F921124AF92BF92CF92DF92EF92FF92DB
:1019B0000F931F932F933F934F935F936F937F9357
:1019C0008F939F93AF93BF9380910E2190910F219E
:1019D0000197E1F41092182110921921109216210A
:1019E000109217211092FC201092FD201092FE20E0
:1019F0001092FF20109200211092012110920221DA
:101A00001092032110920E2110920F2180916C02EE
:101A100090916D022091162130911721820F931F12
:101A200080931621909317216091182170911921AC
:101A30006F5F7F4F60931821709319216436710591
:101A4000F1F5A090FC20B090FD20C090FE20D09039
:101A5000FF20E0900021F0900121009102211091DF
:101A600003210E9450149B01932F990F990B492F2A
:101A7000592F692F792F892F0E9435152093FC202B
:101A80003093FD204093FE205093FF20609300216F
:101A900070930121809302219093032110921621CB
:101AA0001092172110921821109219218091F22082
:101AB0009091F32001968093F2209093F320BF91B0
:101AC000AF919F918F917F916F915F914F913F91D6
:101AD0002F911F910F91FF90EF90DF90CF90BF90CB
:101AE000AF901F900F900FBE0F9018950F920FB6EA
:101AF0000F921F921124AF92BF92CF92DF92EF927A
:101B0000FF920F931F932F933F934F935F936F9386
:101B10007F938F939F93AF93BF9380910C2190916C
:101B20000D210197E1F410921421109215211092C9
:101B3000122110921321109204211092052110926B
:101B4000062110920721109208211092092110926B
:101B50000A2110920B2110920C2110920D218091DC
:101B60007402909175022091122130911321820FFD
:101B7000931F8093122190931321609114217091EF
:101B800015216F5F7F4F6093142170931521643688
:101B90007105F1F5A0900421B0900521C0900621B7
:101BA000D0900721E0900821F090092100910A21AE
:101BB00010910B210E9450149B01932F990F990BA8
:101BC000492F592F692F792F892F0E94351520937E
:101BD00004213093052140930621509307216093FF
:101BE00008217093092180930A2190930B21109270
:101BF000122110921321109214211092152180911C
:101C0000F2209091F32001968093F2209093F3209C
:101C1000BF91AF919F918F917F916F915F914F9104
:101C20003F912F911F910F91FF90EF90DF90CF90F8
:101C3000BF90AF901F900F900FBE0F901895FC01B2
:101C400080E991E08083918312821382148215824D
:101C50001682178210861186A0E6B6E0A287B387A7
:101C600092E0958781E0848710922A2110922B219F
:101C700010922C2110922D2110922E2110922F21A2
:101C8000109230211092312112969C931297119646
:101C90008C93E0EAF0E082818160828378940895F9
:101CA000EF92FF920F931F93FC0160837183E28296
:101CB000F382048315832683378340875187A0E608
:101CC000B6E0A287B38792E0958781E0848710927F
:101CD0002A2110922B2110922C2110922D2110924A
:101CE0002E2110922F211092302110923121129624
:101CF0009C93129711968C93E0EAF0E082818160C8
:101D0000828378941F910F91FF90EF900895FC01CA
:101D100080E991E08083918312821382148215827C
:101D200016821782108611866287738725874487FB
:101D300010922A2110922B2110922C2110922D21E9
:101D400010922E2110922F211092302110923121C9
:101D500082E0FB01828381E08183E0EAF0E082811E
:101D600081608283789408958F92AF92CF92DF92B0
:101D7000EF92FF920F931F93CF93DF93CDB7DEB710
:101D8000FC01D60160837183E282F38204831583B0
:101D90002683378340875187C286D3868586A4866B
:101DA00010922A2110922B2110922C2110922D2179
:101DB00010922E2110922F21109230211092312159
:101DC00012968C9212971196AC92E0EAF0E0828122
:101DD000816082837894DF91CF911F910F91FF9062
:101DE000EF90DF90CF90AF908F900895E0E4F8E00F
:101DF0008FE190E086A397A381E0808311828683A0
:101E00000895E0E4F8E01082168208952F923F9240
:101E10004F925F926F927F928F929F92AF92BF92FA
:101E2000CF92DF92EF92FF920F931F93CF93DF93A6
:101E3000CDB7DEB72D97CDBFDEBF1C01CB01BA01F8
:101E400021EC3CE24EE758E30E941C1823E533EBFB
:101E500047E05DE30E9460156E837F8388879987E2
:101E6000D1016D917C9190E080E00E94B51620E058
:101E700030E040E250E40E941C182E813F814885EA
:101E800059850E94D1150E94481639014A016B8775
:101E90007A872C01F101F281F983D1011396BC916B
:101EA000BA83F101B481F581FC87F101F681FD87E8
:101EB000F101F781FB83F101F085FC83F101F185EC
:101EC000FD8329813A814B2F5C856D857B818C81D7
:101ED0009F2FA0E00E945315B1F09301A4016B85E0
:101EE0007A85C201A980BA80CB2EDC84ED84FB8088
:101EF0000C811F2F0E944A1530F435018B2E9D2C2A
:101F0000EB86FA862801D1011A96ED91FC911B9778
:101F10001C968C911C978683EFE3F1E03197F1F7E3
:101F200000C000001A96ED91FC911B971C968C91B5
:101F30001C978583EFE7FEE33197F1F700C00000BF
:101F40001A96ED91FC911B971C968C9186831092AA
:101F50002A2110922B2110922C2110922D211092C7
:101F60002E2110922F2110923021109231210E94A7
:101F7000F60EF1018585883009F4A4C108F055C03A
:101F8000823009F40BC1843009F452C1813009F068
:101F900054C00284F385E02D808580FD18C0209117
:101FA0002A2130912B2140912C2150912D2160919B
:101FB0002E2170912F218091302190913121530158
:101FC0006401EB84FA8482010E944A1528F310927E
:101FD0002A2110922B2110922C2110922D21109247
:101FE0002E2110922F2110923021109231218085C4
:101FF00080FF18C020912A2130912B2140912C2163
:1020000050912D2160912E2170912F2180913021AE
:102010009091312153016401EB84FA8482010E9482
:102020004A1528F30E94010F08C0803209F4DEC16E
:1020300008F064C0803109F48FC120912A213091C9
:102040002B2140912C2150912D2160912E217091B6
:102050002F21809130219091312153016401EB8433
:10206000FA8482010E944A1508F054C220912A2164
:1020700030912B2140912C2150912D2160912E21C6
:1020800070912F2180913021909131210E94F21680
:1020900020E030E040E05FE30E941C182E813F8189
:1020A000488559850E941C1826E636E646E650E427
:1020B0000E941C180E9486166115710541F0F101FD
:1020C000808191818617970710F470E060E0CB0162
:1020D0002D96CDBFDEBFDF91CF911F910F91FF9065
:1020E000EF90DF90CF90BF90AF909F908F907F90B8
:1020F0006F905F904F903F902F900895803409F437
:10210000BFC1803809F099CF0284F385E02D808526
:1021100087FD18C020912A2130912B2140912C213C
:1021200050912D2160912E2170912F21809130218D
:102130009091312153016401EB84FA8482010E9461
:102140004A1528F310922A2110922B2110922C214B
:1021500010922D2110922E2110922F2110923021B9
:1021600010923121808587FF5DCF20912A21309107
:102170002B2140912C2150912D2160912E21709185
:102180002F21809130219091312153016401EB8402
:10219000FA8482010E944A1528F344CF0284F38511
:1021A000E02D808581FD18C020912A2130912B21BE
:1021B00040912C2150912D2160912E2170912F2141
:1021C000809130219091312153016401EB84FA8494
:1021D00082010E944A1528F310922A2110922B2185
:1021E00010922C2110922D2110922E2110922F212D
:1021F0001092302110923121808581FF13CF2091E0
:102200002A2130912B2140912C2150912D21609138
:102210002E2170912F2180913021909131215301F5
:102220006401EB84FA8482010E944A1528F3FACEF5
:102230000284F385E02D808582FD18C020912A213B
:1022400030912B2140912C2150912D2160912E21F4
:1022500070912F218091302190913121530164019F
:10226000EB84FA8482010E944A1528F310922A21F5
:1022700010922B2110922C2110922D2110922E21A0
:1022800010922F211092302110923121808582FFEF
:10229000C9CE20912A2130912B2140912C2150919F
:1022A0002D2160912E2170912F21809130219091CC
:1022B000312153016401EB84FA8482010E944A15A2
:1022C00028F3B0CE0284F385E02D808583FD18C00D
:1022D00020912A2130912B2140912C2150912D21A8
:1022E00060912E2170912F21809130219091312188
:1022F00053016401EB84FA8482010E944A1528F399
:1023000010922A2110922B2110922C2110922D2113
:1023100010922E2110922F211092302110923121F3
:10232000808583FF7FCE20912A2130912B214091FF
:102330002C2150912D2160912E2170912F2180917F
:1023400030219091312153016401EB84FA848201A0
:102350000E944A1528F366CE0284F385E02D80851D
:1023600084FD18C020912A2130912B2140912C21ED
:1023700050912D2160912E2170912F21809130213B
:102380009091312153016401EB84FA8482010E940F
:102390004A1528F310922A2110922B2110922C21F9
:1023A00010922D2110922E2110922F211092302167
:1023B00010923121808584FF35CE20912A213091E1
:1023C0002B2140912C2150912D2160912E21709133
:1023D0002F21809130219091312153016401EB84B0
:1023E000FA8482010E944A1528F31CCE0284F385E8
:1023F000E02D808585FD18C020912A2130912B2168
:1024000040912C2150912D2160912E2170912F21EE
:10241000809130219091312153016401EB84FA8441
:1024200082010E944A1528F310922A2110922B2132
:1024300010922C2110922D2110922E2110922F21DA
:102440001092302110923121808585FFEBCD2091B3
:102450002A2130912B2140912C2150912D216091E6
:102460002E2170912F2180913021909131215301A3
:102470006401EB84FA8482010E944A1528F3D2CDCC
:102480000284F385E02D808586FD18C020912A21E5
:1024900030912B2140912C2150912D2160912E21A2
:1024A00070912F218091302190913121530164014D
:1024B000EB84FA8482010E944A1528F310922A21A3
:1024C00010922B2110922C2110922D2110922E214E
:1024D00010922F211092302110923121808586FF99
:1024E000A1CD20912A2130912B2140912C21509176
:1024F0002D2160912E2170912F218091302190917A
:10250000312153016401EB84FA8482010E944A154F
:1025100028F388CD20E030E040E050E060E070E05B
:1025200080E090E0B3CD0F920FB60F921F9211246E
:102530002F933F934F935F936F937F938F939F93CB
:10254000AF9320912A2130912B2140912C21509141
:102550002D2160912E2170912F2180913021909119
:102560003121A1E00E943E1520932A2130932B2196
:1025700040932C2150932D2160932E2170932F2175
:102580008093302190933121AF919F918F917F91D2
:102590006F915F914F913F912F911F900F900FBEC0
:1025A0000F901895CDB7DEB7EB97CDBFDEBF8AE0B1
:1025B0008BAF0E943C0160E078E488EE91E00E94DD
:1025C000C002E12C00E012E020E036E040EC5AE0EE
:1025D00060E876E0CE0185960E94850700E412E06F
:1025E00020E236E040EC59E060E676E0CE014D9620
:1025F0000E94850782E0882EAA24A39490E8C92E21
:1026000096E0D92EF12C00E010E020E030E040E030
:1026100050E068E270E0CE010F960E94B40E20E612
:10262000C22E26E0D22E20E030E040E050E068E20A
:1026300070E0CE0101960E94B40E78943E012BE327
:10264000620E711C34E1C32E30E2D32E44E6A42E78
:10265000B12C54E1852E912C3324339407E110E200
:1026600066E0262E7CE1472E70E2572E0E9405037D
:10267000882309F4D0C07F926F92DF92CF920E949C
:1026800016198BAD0F900F900F900F90823509F4B3
:10269000F0C08C3409F0BFC0CE0185960E9451086D
:1026A0002DA73EA74FA758AB69AB7AAB8BAB9CABC2
:1026B000CE018D960E94F3032DAB3EAB4FAB58AFCE
:1026C00069AF7AAF8DA99EA90B9750F41F923F92E4
:1026D0001F930F930E9402190F900F900F900F906D
:1026E0008DA99EA90B97449758F41F9282E08F936F
:1026F0001F930F930E9402190F900F900F900F904D
:102700008DA99EA94F97C79758F41F9283E08F9386
:102710001F930F930E9402190F900F900F900F902C
:102720008DA99EA9865591098134910558F41F926F
:1027300084E08F931F930F930E9402190F900F90C4
:102740000F900F908DA99EA9875991098634910504
:1027500058F41F9285E08F931F930F930E940219E4
:102760000F900F900F900F908DA99EA98D5D9109EC
:102770008D9750F41F922F921F930F930E9402196E
:102780000F900F900F900F908DA99EA98A509140A5
:10279000C79758F41F9288E08F931F930F930E945E
:1027A00002190F900F900F900F908DA99EA9815440
:1027B0009140839758F41F9297E09F931F930F9334
:1027C0000E9402190F900F900F900F908DA99EA953
:1027D0008436914050F01F923F921F930F930E94B6
:1027E00002190F900F900F900F90AFAAB8AE89AE5C
:1027F0009AAECE01C5960E9456052DA73EA74FA7BB
:1028000058AB69AB7AAB8BAB9CABCE018D960E947B
:10281000C5038AE08BAF4CEB54E762EB71E4CE0169
:102820000F960E94060F7C014CEB54E762EB71E4BB
:10283000CE0101960E94060F092E000CAA0BBB0BBD
:10284000BF93AF939F938F93C701FF0CAA0BBB0B52
:10285000BF93AF939F938F935F924F920E94021901
:102860008FE39FE10197F1F700C00000CDBFDEBF0D
:10287000FDCECE014D9612CFAA1BBB1B51E107C066
:10288000AA1FBB1FA617B70710F0A61BB70B881F00
:10289000991F5A95A9F780959095BC01CD0108958F
:1028A00097FB072E16F4009407D077FD09D00E94FD
:1028B0003C1407FC05D03EF4909581959F4F0895F8
:1028C000709561957F4F0895689401C0E894F92F41
:1028D000F12B12F00C949814A0E0B0E0E2E7F4E1E0
:1028E0000C940A15092E059422F40E94F414112365
:1028F00092F4F0E80F26FFEFE094F0940095109525
:10290000B094C094D094A194BF0ACF0ADF0AEF0A12
:10291000FF0A0F0B1F0B0E94A31407FC0E94F41464
:10292000CDB7DEB7ECE00C942315689401C0E894B1
:102930008F929F92CF93DF930E94A314DF91CF9148
:102940009F908F90089588249924F401E401B0E4C5
:102950009F93AA279A158B049C04ED05FE05CF05CD
:10296000D007A10798F4AD2FDC2FCF2FFE2FE92D34
:10297000982C892E982F872F762F652F542F432F31
:10298000322F2227B85031F7BF9127C01B2EBF919D
:10299000BB27220F331F441F551F661F771F881F39
:1029A000991F881C991CEE1FFF1FCC1FDD1FAA1F3B
:1029B000BB1F8A149B04EC05FD05CE05DF05A007AF
:1029C000B10748F08A189B08EC09FD09CE09DF0918
:1029D000A00BB10B21601A94E1F62EF49401AF0123
:1029E000BE01CD01000C089560957095809590957D
:1029F00030954095509521953F4F4F4F5F4F6F4F0A
:102A00007F4F8F4F9F4F08952F923F924F925F922B
:102A10006F927F928F929F92AF92BF92CF92DF92EE
:102A2000EF92FF920F931F93CF93DF93CDB7DEB753
:102A3000CA1BDB0BCDBFDEBF19942A8839884888B2
:102A40005F846E847D848C849B84AA84B984C884CA
:102A5000DF80EE80FD800C811B81AA81B981CE0FC1
:102A6000D11DCDBFDEBFED0108952A0D3B1D4C1DCC
:102A70005D1D6E1D7F1D801F911F08950024A7FD01
:102A800000942A0F301D401D501D601D701D801DBB
:102A9000901D08952A153B054C055D056E057F05C3
:102AA0008007910708950024A7FD00942A17300598
:102AB0004005500560057005800590050895505843
:102AC000BB27AA270E9477150C94DD170E94CF1709
:102AD00038F00E94D61720F039F49F3F19F426F4FD
:102AE0000C94BC170EF4E095E7FB0C94A817E92FA3
:102AF0000E94EE1758F3BA17620773078407950709
:102B000020F079F4A6F50C9410180EF4E0950B2E35
:102B1000BA2FA02D0B01B90190010C01CA01A0012F
:102B20001124FF27591B99F0593F50F4503E68F18A
:102B30001A16F040A22F232F342F4427585FF3CFCB
:102B4000469537952795A795F0405395C9F77EF49C
:102B50001F16BA0B620B730B840BBAF09150A1F0E5
:102B6000FF0FBB1F661F771F881FC2F70EC0BA0F6B
:102B7000621F731F841F48F4879577956795B795F3
:102B8000F7959E3F08F0B0CF9395880F08F09927EE
:102B9000EE0F9795879508950E94841708F481E0B9
:102BA00008950E94E5150C94DD170E94D61758F081
:102BB0000E94CF1740F029F45F3F29F00C94A8172A
:102BC00051110C9411180C94BC170E94EE1768F365
:102BD0009923B1F3552391F3951B550BBB27AA27D6
:102BE00062177307840738F09F5F5F4F220F331F10
:102BF000441FAA1FA9F335D00E2E3AF0E0E832D0D8
:102C000091505040E695001CCAF72BD0FE2F29D0DA
:102C1000660F771F881FBB1F261737074807AB07AC
:102C2000B0E809F0BB0B802DBF01FF2793585F4F21
:102C30003AF09E3F510578F00C94A8170C941118A7
:102C40005F3FE4F3983ED4F3869577956795B79503
:102C5000F7959F5FC9F7880F911D9695879597F90E
:102C60000895E1E0660F771F881FBB1F6217730787
:102C70008407BA0720F0621B730B840BBA0BEE1F9C
:102C800088F7E0950895BEE304D008F490E808952D
:102C9000BFE322273327A9010E94F61760F19F574F
:102CA00048F1B91740F1BFE3B91B9927B8503AF47E
:102CB000660F771F881F991FB395D2F316C0B850BF
:102CC0004AF0232F342F452F562F672F782F882730
:102CD000B850BAF7B85F49F08695779567955795DC
:102CE000479537952795BA95B9F716F40E94BF17FF
:102CF00088940895889460E070E0CB0108950E9464
:102D000086166894B1110C94111808950E94F61754
:102D100088F09F5798F0B92F9927B751B0F0E1F09C
:102D2000660F771F881F991F1AF0BA95C9F714C04C
:102D3000B13091F00E941018B1E008950C94101871
:102D4000672F782F8827B85F39F0B93FCCF3869585
:102D500077956795B395D9F73EF4909580957095E2
:102D600061957F4F8F4F9F4F0895E89409C097FB5F
:102D70003EF490958095709561957F4F8F4F9F4F52
:102D80009923A9F0F92F96E9BB279395F695879596
:102D900077956795B795F111F8CFFAF4BB0F11F459
:102DA00060FF1BC06F5F7F4F8F4F9F4F16C0882300
:102DB00011F096E911C0772321F09EE8872F762F36
:102DC00005C0662371F096E8862F70E060E02AF077
:102DD0009A95660F771F881FDAF7880F9695879563
:102DE00097F90895E894F92F96EBFF2381F01216D6
:102DF00013061406440B9395F6958795779567957A
:102E000057954040FF23B9F71BC0992708958823A1
:102E100051F49850D2F7872B762F652F542F432FDC
:102E2000322F20E0B1F3121613061406440B882348
:102E30003AF09A95440F551F661F771F881FCAF7EF
:102E400055234AF4440F551F11F460FF04C06F5F0F
:102E50007F4F8F4F9F4F880F9695879597F90895CD
:102E60000E94CF1720F019F00E94D61750F40C944E
:102E7000BC170C941118E92F0E94EE1788F3552304
:102E8000B1F3E7FB6217730784079507A8F189F38D
:102E9000E92FFF2788232AF03197660F771F881FB5
:102EA000DAF7952F5527442332F091505040220FE6
:102EB000331F441FD2F7BB27E91BF50B621B730BB3
:102EC000840BB109B1F222F4620F731F841FB11D8C
:102ED00031972AF0660F771F881FBB1FEFCF9150E5
:102EE000504062F041F0882332F0660F771F881F50
:102EF00091505040C1F793950C94AE1786957795F5
:102F000067959F5FD9F7F7CF990F0008550FAA0B68
:102F1000E0E8FEEF16161706E807F907C0F01216EC
:102F20001306E407F50798F0621B730B840B950BEF
:102F300039F40A2661F0232B242B252B21F4089544
:102F40000A2609F4A140A6958FEF811D811D0895E1
:102F500097F99F6780E870E060E008959F3F31F047
:102F6000915020F4879577956795B795880F911DB7
:102F70009695879597F908959FEF80EC0895909521
:102F800080957095609550954095309521953F4F6F
:102F90004F4F5F4F6F4F7F4F8F4F9F4F08950024CC
:102FA0000A941616170618060906089500240A94AE
:102FB00012161306140605060895092E0394000C34
:102FC00011F4882352F0BB0F40F4BF2B11F460FFC3
:102FD00004C06F5F7F4F8F4F9F4F089557FD9058EC
:102FE000440F551F59F05F3F71F04795880F97FBCD
:102FF000991F61F09F3F79F0879508951216130687
:103000001406551FF2CF4695F1DF08C016161706B5
:103010001806991FF1CF86957105610508940895EA
:10302000E894BB2766277727CB0197F908950E947C
:10303000841708F48FEF08950E942F180C94DD1761
:103040000E94CF1738F00E94D61720F0952311F078
:103050000C94A8170C94BC1711240C9411180E94FE
:10306000EE1770F3959FC1F3950F50E0551F629FC7
:10307000F001729FBB27F00DB11D639FAA27F00DD1
:10308000B11DAA1F649F6627B00DA11D661F829FF8
:103090002227B00DA11D621F739FB00DA11D621FDD
:1030A000839FA00D611D221F749F3327A00D611DFA
:1030B000231F849F600D211D822F762F6A2F1124DC
:1030C0009F5750409AF0F1F088234AF0EE0FFF1F0F
:1030D000BB1F661F771F881F91505040A9F79E3F66
:1030E000510580F00C94A8170C9411185F3FE4F37D
:1030F000983ED4F3869577956795B795F795E795BC
:103100009F5FC1F7FE2B880F911D9695879597F9C4
:1031100008950E94F617E8F09E37E8F09639B8F463
:103120009E3848F4672F782F8827985FF9CF8695C7
:103130007795679593959539D0F3B62FB1706B0F4E
:10314000711D811D20F487957795679593950C9453
:10315000AD180C94AE170C941118882371F47723D2
:1031600021F09850872B762F07C0662311F49927FA
:103170000DC09051862B70E060E02AF09A95660FA2
:10318000771F881FDAF7880F9695879597F9089526
:10319000CF93DF93EC012B8120FF2FC026FF0CC0C3
:1031A0002F7B2B838E819F8101968E839F838A81C3
:1031B00090E0DF91CF91089522FF14C0E881F9815A
:1031C0008081082E000C990B20620097A9F031969F
:1031D000E883F9832E813F812F5F3F4F2E833F830A
:1031E0009927E7CFEA85FB85199597FFF3CF2B81C8
:1031F000019631F080E2282B2B838FEF9FEFD9CF00
:1032000080E1F9CFCF93DF93CDB7DEB7AE014A5F50
:103210005F4FFA0161917191AF01809134219091DA
:1032200035210E944219DF91CF910895CF93DF930A
:10323000CDB7DEB7AE014A5F5F4FFA016191719180
:10324000AF0180913221909133210E94B91CDF910E
:10325000CF910895FB01238120FF11C026FD0FC0EF
:103260008F3F980771F082832F7D2064238326810E
:1032700037812150310926833783992708958FEFAD
:103280009FEF08952F923F924F925F926F927F929D
:103290008F929F92AF92BF92CF92DF92EF92FF9266
:1032A0000F931F93CF93DF93CDB7DEB72B97CDBF8F
:1032B000DEBF7C013B018A01FC01168217828381FB
:1032C00081FFCBC19AE0292ECE0101965C01F70166
:1032D0009381F30193FD859193FF81913F018823B1
:1032E00009F446C1853239F493FD859193FF8191AC
:1032F0003F01853229F4B70190E00E94F71DE7CF26
:10330000912C412C512CFFE1F51538F08B3209F14D
:1033100088F4803201F1833221F157FC3AC020ED6C
:10332000280F2A3040F556FE1FC0929C200D112414
:10333000922E06C08D3291F0803379F7689450F860
:10334000F30193FD859193FF81913F018111DBCFC3
:1033500020C0689451F8689452F8F2CF689453F8FA
:10336000EFCF689454F8ECCF429C200D1124422EEC
:10337000689455F8E5CF8E3229F456FCF9C068946C
:1033800056F8DECF8C3619F4689457F8D9CF8836C2
:10339000B9F2982F9F7D95549330C0F08336A1F1F8
:1033A0008337C1F1833509F05BC0F801C190D1903A
:1033B0008F01692D70E056FC02C06FEF7FEFC601F0
:1033C0000E94E11D4C01689457F80AC00C5F1F4F22
:1033D0002FE3298388248394912C6501E89457F87E
:1033E00053FC04C04814190409F018F5342C811456
:1033F000910431F5332009F46ACFB70180E290E0FF
:103400000E94F71D3A94F6CFF801808189830E5F00
:103410001F4FE0CFF801C190D1908F01692D70E06E
:1034200056FC02C06FEF7FEFC6010E94EC1D4C01FD
:10343000D5CFB70180E290E00E94F71D4A94D2CF29
:10344000F60157FC859157FE81916F01B70190E01D
:103450000E94F71D31103A94F1E08F1A9108C7CFFE
:10346000843619F0893609F074C0F80157FE6AC035
:1034700061917191819191918F01252D2F76D22E9D
:1034800097FF09C090958095709561957F4F8F4FFC
:103490009F4F6894D7F82AE030E0A5010E94271ECC
:1034A000C82ECA188C2C5D2CD6FE0CC0E89450F89F
:1034B000C91440F4D4FE05C0D2FC03C0FD2DFE7E2D
:1034C0005F2E892C54FEA1C0FE01EC0DF11D808100
:1034D000803309F093C0252D297E522E852D8870CA
:1034E000382E53FCA1C050FE9BC09C2C841418F4B1
:1034F0004C0C942C981854FE9DC0B70180E390E0CA
:103500000E94F71D52FE09C088E790E051FE02C0FC
:1035100088E590E0B7010E94F71DC91408F496C031
:10352000CA94D12C9FEFC91AD90ACA0CDB1CF60128
:1035300082916F01B70190E00E94F71DAC14BD04A9
:10354000B1F758CF61917191072E000C880B990B40
:1035500093CFD52CE894D4F82AE030E08537C9F130
:10356000952D997FD92E8F3691F1D8F4883539F180
:10357000F701868197812B96CDBFDEBFDF91CF917A
:103580001F910F91FF90EF90DF90CF90BF90AF9081
:103590009F908F907F906F905F904F903F902F9073
:1035A0000895803749F0883719F7D4FE02C068942F
:1035B000D2F820E130E00DC06894D4F8F6CF54FE84
:1035C00003C0E92FE660DE2E20E132E002C028E0F1
:1035D00030E0F801D7FE0DC0619171918191919118
:1035E0008F01A5010E94271EC82ECA18E894D7F89B
:1035F00059CF6191719190E080E0F2CF52FC02C00E
:1036000083946CCF8394839469CF852D867809F455
:1036100065CFF6CFB70180E290E00E94F71D83945A
:103620008414C0F3312C67CF342C3818841408F478
:1036300062CFF8CF852D867809F46FCF8BE251FEEB
:1036400080E257FC8DE2B70190E065CFB70180E3DF
:1036500090E00E94F71D9A9460CF8FEF9FEF8BCF81
:1036600020FD09C0FC0123FD05C022FF02C07383B9
:10367000628351834083089533E044FD10C034E0F9
:1036800046FD0DC0DB01FC01AA0FBB1FEE1FFF1F93
:103690001094D1F76A0F7B1F8E1F9F1F31E0660FBA
:1036A000771F881F991F3150D1F7620F711D811D3F
:1036B000911D08950F931F93CF93DF938C01C80141
:1036C0000E94C818EC0197FD08C00E94CD1D892BEF
:1036D000B1F7B801CE010E942A19CE01DF91CF9136
:1036E0001F910F9108958F929F92AF92BF92EF9288
:1036F000FF920F931F93CF93DF938C01D62F7A0104
:10370000B22E0E94C8189C0133272B32310529F0B4
:103710002D323105A9F46894B7F8D15061F480E0F6
:10372000DF91CF911F910F91FF90EF90BF90AF90DD
:103730009F908F900895C8010E94C81897FDEFCF01
:10374000CB2DCD7F2B2D2073F9F48033E9F4AA24FF
:10375000AA94AD0E89F0C8010E94C81897FD0CC04C
:10376000282F2F7D283561F4C264D25029F0C8017A
:103770000E94C81897FF08C0812C912C54011BC0CF
:10378000B6FE2BC0C260DA2D812C912C540120EDA5
:10379000280F283028F1C4FD09C02A3008F1C6FFDF
:1037A00005C02F7D3FEE320F3630C8F0B8010E94C1
:1037B0002A19C1FFB4CFC7FF08C0B094A094909459
:1037C0008094811C911CA11CB11C2C2FB501A4015B
:1037D000C7010E94301B81E0A3CFC261D4CF275024
:1037E0004C2FC501B4010E943C1B4B015C01C2601F
:1037F000D15009F3C8010E94C81897FFC8CFD9CF8C
:103800008F929F92AF92BF92CF92DF92EF92FF92F0
:103810000F931F93CF93DF93CDB7DEB7A097CDBFA4
:10382000DEBF5C01962E7A01CE0101966C0180E22A
:10383000F60111928A95E9F7F5018380890150E03C
:1038400040E0B0E020E0A0E061E070E0F80183FC3F
:10385000959183FE9191892F8F01911113C010E0F2
:1038600000E0C801A096CDBFDEBFDF91CF911F91D0
:103870000F91FF90EF90DF90CF90BF90AF909F900F
:103880008F9008959E3519F44115510531F1A41713
:103890001506ECF49D3549F19D32C9F4222309F156
:1038A000E82FE695E695E695EC0DFD2DF11D982F98
:1038B00097709B0101C0220F9A95EAF79081292BFE
:1038C00020838B1781F08B1730F48F5FE9CF2111A4
:1038D000E7CFB92FE5CF8150E3CFA1E04F5F5F4F36
:1038E000B5CF21E0FBCF20E0F9CF222319F08E8164
:1038F00080628E83AA2361F0F6019E012F5D3F4F07
:10390000DF018D9180958083FD01A217B307C1F778
:1039100088248394C5010E94C81897FD16C0E82F1B
:10392000E695E695E695EC0DFD2DF11D208130E044
:10393000AC014770552702C0359527954A95E2F7A7
:1039400020FD06C0B5010E942A19882059F087CFB2
:10395000E114F10419F0F70181937F019A94812C0D
:103960009110D8CFE114F10409F47BCFF701108254
:1039700078CF6F927F928F929F92AF92BF92CF92A9
:10398000DF92EF92FF920F931F93CF93DF935C012F
:10399000EB01742E652EFC0116821782C12CF501F5
:1039A000F380FE01F3FC8591F3FE8191182FEF0166
:1039B0008823E9F090E00E94CD1D892B21F0C501FC
:1039C0000E945A1BECCF153241F4FE01F3FC159115
:1039D000F3FE1191EF01153269F4C5010E94C81878
:1039E00097FD8CC01817D9F2B5010E942A198C2DA9
:1039F00090E088C000E01A3231F4F3FC1591F3FE38
:103A00001191EF0101E0D12C20ED210F2A3048F176
:103A100001FF37C0DD2059F31836B1F11C3609F427
:103A20003DC0112321F3612F70E088E092E00E94F5
:103A3000D61D892BE1F2F12CE12C00FD06C0E72D0B
:103A4000F62DE190F1907E2E6F2E1E3679F5F50160
:103A50004681578170E060E0202FC7010E94301B33
:103A60009ECF02606D2D70E090E080E040E20E9409
:103A70003C1BD62EFE01F3FC1591F3FE1191EF01D4
:103A8000C3CFDD24DA94C8CFFE01F3FC1591F3FE19
:103A90001191EF01183609F0C4CF08600460FE01EF
:103AA000F3FC1591F3FE1191EF01BBCF1336B1F486
:103AB00001FD02C0DD24D394C5010E94C81897FD02
:103AC0001DC0E114F10419F0F70181937F01DA942C
:103AD000D110F2CF00FD63CFC39461CF1B3509F540
:103AE0009E01A7016D2DC5010E94001CEC01892BD0
:103AF00089F7F5018381807309F479CF8FEF9FEF08
:103B0000C11075CFDF91CF911F910F91FF90EF9072
:103B1000DF90CF90BF90AF909F908F907F906F90ED
:103B20000895C5010E945A1B97FDE8CF1F3699F1F1
:103B300030F4143641F0193639F0006405C01337FB
:103B4000A9F01537D1F70062202FA7016D2DC5010F
:103B50000E94731B8111BECFCCCFE114F10419F088
:103B6000F70181927F01DA94DD2071F0C5010E9496
:103B7000C8184C0197FD08C00E94CD1D892B69F320
:103B8000B501C4010E942A19E114F10409F4A2CF7D
:103B9000F70110829FCF0061D7CF91110C94851E41
:103BA000803219F089508550C8F70895FC010590BE
:103BB000061621F00020D9F7C00108953197CF01F2
:103BC0000895FC010590615070400110D8F7809570
:103BD00090958E0F9F1F0895FC01615070400190D9
:103BE0000110D8F7809590958E0F9F1F08950F9321
:103BF0001F93CF93DF93182F092FEB018B8181FD4A
:103C000009C01FEF0FEF812F902FDF91CF911F91F0
:103C10000F91089582FF14C02E813F818C819D8178
:103C2000281739073CF4E881F981CF010196888390
:103C3000998310838E819F8101968E839F83E3CF2A
:103C4000E885F985812F1995892BA1F3DACFFA013F
:103C5000AA27283051F1203181F1E8946F936E7FCB
:103C60006E5F7F4F8F4F9F4FAF4FB1E03ED0B4E0BC
:103C70003CD0670F781F891F9A1FA11D680F791FFD
:103C80008A1F911DA11D6A0F711D811D911DA11D0E
:103C900020D009F468943F912AE0269F112430191E
:103CA000305D3193DEF6CF010895462F4770405DB9
:103CB0004193B3E00FD0C9F7F6CF462F4F70405D68
:103CC0004A3318F0495D31FD4052419302D0A9F7C3
:103CD000EACFB4E0A6959795879577956795BA95BD
:103CE000C9F700976105710508959B01AC010A2E83
:103CF00006945795479537952795BA95C9F7620F5A
:103D0000731F841F951FA01D089599278827089564
:043D1000F894FFCF55
:103D14000000000300000000300223030000499269
:103D2400922424492563002025640A0020256C641C
:063D340020256C640A006A
:00000001FF
