:100000000C9408010C9429010C9429010C942901E9
:100010000C9429010C9429010C9429010C942901B8
:100020000C9429010C9429010C9429010C942901A8
:100030000C9429010C9429010C9429010C94290198
:100040000C9429010C9429010C9429010C94290188
:100050000C942B130C9429010C9429010C94290164
:100060000C9429010C9429010C9429010C94290168
:100070000C9429010C9429010C9429010C94290158
:100080000C9429010C9429010C9429010C94290148
:100090000C9429010C9429010C9429010C94470C0F
:1000A0000C94170D0C94E70D0C9429010C94290164
:1000B0000C9429010C9429010C9429010C94290118
:1000C0000C9429010C9429010C9429010C94290108
:1000D0000C9429010C9429010C9429010C942901F8
:1000E0000C9429010C9429010C9429010C942901E8
:1000F0000C9429010C9429010C9429010C942901D8
:100100000C9429010C9429010C9429010C942901C7
:100110000C9429010C9429010C9429010C94D70901
:100120000C94A70A0C94770B0C9429010C942901C8
:100130000C9429010C9429010C9429010C94290197
:100140000C9429010C9429010C9429010C94290187
:100150000C9429010C9429010C9429010C94290177
:100160000C9429010C9429010C9429010C94290167
:100170000C9429010C9429010C9429010C94290157
:100180000C9429010C9429010C9429010C94290147
:100190000C9429010C9429010C9429010C94290137
:1001A0000C9429010C9429010C9429010C94290127
:1001B0000C9429010C9429010C9429010C94290117
:1001C0000C9429010C9429010C9429010C94290107
:1001D0000C9429010C9429010C9429010C947303AB
:1001E0000C9496030C9429010C9429010C94290178
:1001F0000C9429010C9429010C9429010C942103DD
:100200000C942E026364696E6F70737578585B008E
:1002100011241FBECFEFCDBFDFE5DEBF00E00CBF76
:1002200010E2A0E0B0E2E2ECFCE300E00BBF02C0B1
:1002300007900D92A632B107D9F721E2A6E2B0E20B
:1002400001C01D92A434B207E1F70E946A130C9416
:100250005F1E0C94000080915000826080935000DB
:100260008091510081FFFCCF88ED84BF81E08093B5
:10027000400008958BEC809352008091500088607C
:10028000809350008091510083FFFCCF82EC8093DB
:100290005500809150008061809350008091510002
:1002A00084FFFCCF88ED84BF84E080934000809180
:1002B00050008E7F80935000809150008D7F8093FE
:1002C000500008958BEC809352008091500088601C
:1002D000809350008091510083FFFCCF81EC80938C
:1002E00055008091500080618093500080915100B2
:1002F00084FFFCCF88ED84BF84E080934000809130
:1003000050008E7F80935000809150008D7F8093AD
:100310005000089580915000846080935000809137
:10032000510082FFFCCF80915600897F8093560058
:100330008091560080935600809160008160809388
:1003400060000895809150008460809350008091F7
:10035000510082FFFCCF809156008E7F8093560023
:100360008091560080935600809168008160809350
:1003700068000895809152008260809352008091BD
:1003800050008860809350008091510083FFFCCF23
:1003900080915600897F809356008091560082603C
:1003A0008093560080916000816080936000089582
:1003B0008091520082608093520088ED84BF8091CA
:1003C00050008860809350008091510083FFFCCFE3
:1003D000809156008E7F80935600809156008160F8
:1003E0008093560080916800816080936800089532
:1003F0002091F12091E0920F8091F020943610F03E
:100400009DE9920F891710F0891B08958C59FCCF34
:10041000CF93DF93C82FD1E20E94F8018823D9F04F
:100420008091F120E82FF0E0E457FF4DC0838F5F0B
:10043000843608F080E09091A200292F2E7F20932F
:10044000A2008093F12081E28093A30B9093A200FD
:10045000DF91CF910895D093A30BDECFCF93DF939D
:10046000D82FCFEF0E94F801882379F0CC2389F0B0
:10047000DA3019F48DE00E9408028D2F0E940802E4
:1004800090E080E0DF91CF910895CC2311F0C1502E
:10049000E9CF81E090E0F6CF8F929F92AF92BF922A
:1004A000CF92DF92EF92FF92CF93C42F0E948C16CF
:1004B00020E030E041EE59E40E94AF156B017C0171
:1004C0008C2F0C2E000C990BC7FF2FC09195819596
:1004D000910961E070E002C0660F771F8A95E2F72C
:1004E000072E000C880B990B0E948E164B015C01A5
:1004F00020E030E040E85FE3C701B6010E943D150F
:100500009B01AC01C501B4010E94F3170E94601861
:100510000E945D16CB01CF91FF90EF90DF90CF90BE
:10052000BF90AF909F908F90089561E070E002C0FF
:10053000660F771FCA95E2F7072E000C880B990B00
:100540000E948E169B01AC01C701B6010E94AF1537
:1005500020E030E040E85FE30E943D15D7CF0C94E7
:100560000802CF93DF93EC018991811103C0DF91E1
:10057000CF9108950E940802CE01F5CFCF92DF926D
:10058000EF92FF92CF936B017C01C9EF4C2FC70113
:10059000B6010E944C028115904118F0CF5FC8301F
:1005A000A9F74C2FC701B6010E944C0228E1209305
:1005B000B20638E03093A5063093A10634E03093BC
:1005C000A2068093A60B9F70C295C07FC92BC093D3
:1005D000A70B2093A40B80E28093A30B8091A20031
:1005E00083608093A20080E090E280933E2190930C
:1005F0003F218093402190934121CF91FF90EF9034
:10060000DF90CF90089580918B2090918A20891758
:1006100010F0891B08958C59FCCFCF93C0918A208C
:100620000E9403038823E1F3EC2FF0E0EA5DFF4D25
:100630008081CF5FC43608F0C0E0C0938A20CF919C
:1006400008950E940D0390E008950E9403038823FB
:1006500021F00E940D0390E0089580E091E008955C
:10066000CF92DF92EF92FF920F931F93CF93DF937E
:100670007C016B01C82FDF2D10E000E080913E214E
:1006800090913F210E949F188A3059F08D30A1F43B
:1006900000ED17E00E940303811115C001501109FC
:1006A000C9F71882C701DF91CF911F910F91FF9079
:1006B000EF90DF90CF9008950C151D0508F48993F5
:1006C0000F5F1F4FDBCF80913E2190913F210E9411
:1006D0009F188A3031F360913E2170913F2190E064
:1006E0000E940119DECF8F938FB78F938BB78F93B3
:1006F0009F93EF93FF9380918B20E82FF0E09091F0
:10070000A00BEA5DFF4D90838F5F843608F080E098
:1007100090918A20981380938B20FF91EF919F9165
:100720008F918BBF8F918FBF8F9118952F932FB77C
:100730002F932BB72F938F939F93EF93FF938091DA
:10074000F0209091F120891310C080E28093A30BD8
:10075000892F8093F020FF91EF919F918F912F919E
:100760002BBF2F912FBF2F911895E82FF0E0E45762
:10077000FF4D20812093A00B8F5F843608F080E02E
:100780008913E7CFE2CFCF93DF93EC0183E080932F
:10079000A10691E090934106E0E0FBE093E39183B2
:1007A000A0E0B8E093E111969C93119780838C931D
:1007B0008FEF90E086A397A396968D939C9397973F
:1007C0008A819B8182A793A78C819D8180A791A715
:1007D0008E819F8198968D939C939997DF91CF916D
:1007E00008952F923F924F925F926F927F928F92D5
:1007F0009F92AF92BF92CF92DF92EF92FF920F93B0
:100800001F93CF93DF93CDB7DEB76097CDBFDEBF29
:100810008C01FC016281738190E080E00E948C1663
:1008200020E030E04FE753E40E94AF156F837887F4
:1008300089879A87F8016481758190E080E00E9441
:100840008C1620E030E04FE753E40E94AF153B01E7
:100850004C01F8016681778190E080E00E948C165F
:1008600020E030E04FE753E40E94AF157B018C019C
:100870009301A4016F81788589859A850E94EE177E
:100880009701A801181664F46F81788589859A8587
:100890000E94EE1718160CF4ADC05701680108C08D
:1008A000B301C4010E94EE17530164011816ACF79E
:1008B0009301A4016F81788589859A850E94AA1584
:1008C0009701A80187FF9BC06F81788589859A85EC
:1008D0000E94AA1587FD9EC0EB86FC860D871E87A9
:1008E0002B853C854D855E85B501C6010E943D1571
:1008F0001B012C012B853C854D855E85B501C6010C
:100900000E94AA15882309F4CCC09501A6016F8125
:10091000788589859A850E94AA15811184C09701DE
:10092000A801B301C4010E943D15A20191010E94DA
:10093000AF1520E030E040E752E40E94F31720E0DA
:1009400030E044EB53E40E943E1520E030E044EBFD
:1009500053E40E9412170E945D166F87788B20E087
:1009600030E0A901B501C6010E94AA1520E090E07F
:10097000882381F09501A601C201B1010E94AF1543
:1009800020E030E048EC52E40E94F3170E945D162C
:10099000262F972F0F85098388898A83122F2B830F
:1009A0009C8320E030E048EC52E4B501C6010E948F
:1009B000F3170E945D166D837E83202F3A81412FAD
:1009C0005C817E8180E090E06096CDBFDEBFDF91EC
:1009D000CF911F910F91FF90EF90DF90CF90BF903C
:1009E000AF909F908F907F906F905F904F903F90CF
:1009F0002F900895AF80B884C984DA8459CFB301A9
:100A0000C4010E94AA1587FF67CF6B867C868D86FE
:100A10009E8666CFFF81FB8788858C87E985ED8779
:100A2000FA85FE875DCF9501A601B301C4010E943E
:100A3000AA15811117C02F81388549855A85B701BC
:100A4000C8010E943D15A20191010E94AF1520E04E
:100A500030E040E752E40E94F31720E030E040EF3E
:100A600052E471CF9501A601B701C8010E94AA15F1
:100A7000811175CF9301A4016F81788589859A854D
:100A80000E943D15A20191010E94AF1520E030E0C7
:100A900040E752E40E94F31720E030E040E753E4DF
:100AA00052CF1F86188A5BCF2F923F924F925F9250
:100AB0006F927F928F929F92AF92BF92CF92DF926E
:100AC000EF92FF920F931F93CF93DF93CDB7DEB7D3
:100AD0002A97CDBFDEBF8C01FC01808091806481AC
:100AE000758190E080E00E948C1620E030E048ECB8
:100AF00052E40E94AF152B013C01F8016281738121
:100B000090E080E00E948C1620E030E048EC52E457
:100B10000E94AF15A30192010E94F3177B018C0183
:100B2000B40190E080E00E948C1620E030E040E7C5
:100B300052E40E94AF1520E030E040E050E40E9413
:100B4000121720E030E040E85FE30E943D159B0172
:100B5000AC015F7760E070E080E89FE30E943D15A4
:100B60009701A8010E94F3175B016C01362E2B2C14
:100B70008987DA869701A801C301B2010E943D1559
:100B80002B013C01FCE38F169104E8F088E78816FE
:100B90009104F8F0E4EB8E16910408F470C0F0EFC5
:100BA0008F16910408F472C08CE2881681E09806D2
:100BB00008F471C01501460157016801E12CF12CC0
:100BC00000E010E00AC057016801E32CF22C09850F
:100BD0001A85212C312C812C912CA3019201B50175
:100BE000C6010E943E1520E030E04FE753E40E942A
:100BF000F3170E945D16D62E6B837C83A3019201AE
:100C0000B701C8010E943E1520E030E04FE753E4F1
:100C10000E94F3170E945D16162F6D837E83A30139
:100C20009201B101C4010E943E1520E030E04FE77F
:100C300053E40E94F3170E945D16862F262F372F4C
:100C40002F83388729813A814D2D5C81612F7E81E8
:100C500098852A96CDBFDEBFDF91CF911F910F916E
:100C6000FF90EF90DF90CF90BF90AF909F908F90CC
:100C70007F906F905F904F903F902F900895150157
:100C80004601A12CB12CC12CD12CA7CF17014801B2
:100C900075018601F6CF1701480190CF8F929F9280
:100CA000AF92BF92CF92DF92EF92FF920F931F937A
:100CB000CF93DF934B015C016901D42FC52F0E94B4
:100CC000EE179701A8011816BCF4B401C5010E94E3
:100CD000EE17181614F474018501B701C801DF91ED
:100CE000CF911F910F91FF90EF90DF90CF90BF9029
:100CF000AF909F908F900895B6018D2F9C2F0E94EA
:100D0000EE17181654F776010D2F1C2FE6CF8F9291
:100D10009F92AF92BF92CF92DF92EF92FF920F938A
:100D20001F93CF93DF934B015C016901D42FC52F33
:100D30000E94AA159701A80187FF17C0B401C50139
:100D40000E94AA1587FF02C074018501B701C8017E
:100D5000DF91CF911F910F91FF90EF90DF90CF9097
:100D6000BF90AF909F908F900895B6018D2F9C2FCC
:100D70000E94AA1587FFEACF76010D2F1C2FE6CF20
:100D8000422BFB01418382E08083089521E030E023
:100D9000209310213093112120930E2130930F21A5
:100DA00020930C2130930D211092F2201092F32009
:100DB000FC01848195818115F6E09F0791F482E022
:100DC0008093400281E080930002613049F1662304
:100DD00091F0623059F180EF80938001809381011E
:100DE0002AC08032964089F782E08093000281E039
:100DF00080934002EACF80EF8093800110928101BE
:100E00001092820183E690E08093260B9093270B4B
:100E100084E08093000B1092010B1092060B089552
:100E20001092800180EF80938101EACF10928001BF
:100E30001092810180EF80938201E4CFE0E0FBE03B
:100E400010821682E0E8F1E0108211821282089589
:100E50000F931F93FC01E61BF70B021B110BE09F86
:100E6000C001E19F900DF09F900D1124FA01E61B47
:100E7000F70BBF010E94DB14822F860F1F910F9189
:100E80000895DC011296ED91FC916383828187FFC6
:100E9000FDCF83810895CF93DF93EC018881998101
:100EA000803826E09207E1F480E18093850660E0D7
:100EB000CE010E94410760E0CE010E944107888177
:100EC0009981803626E0920791F480E1809325068F
:100ED00098E09093860680936606DF91CF910895FF
:100EE0008036964021F780E180936506E0CF803818
:100EF000964099F788E0809385068093860680E186
:100F000080938606EACFEF920F931F93CF93DF93E0
:100F1000EC01FB01688379834A835B832C833D83E7
:100F20000E831F83603626E0720709F04AC080E115
:100F30008093210680EB818380E4828388E085832F
:100F400080EDDA018C93EE2019F086858062868729
:100F5000CE010E944B07AC81BD818FE012968C932D
:100F60001297EE81FF8183E081A392E090A381E05C
:100F700082A391A790A782A781AB90AB82AB20E11F
:100F8000218312829483808323E82383A11526E0A2
:100F9000B207F9F4909340028093000280EF8093AF
:100FA000800180938101809382018091A200816001
:100FB0008093A2007894DF91CF911F910F91EF90D1
:100FC00008956038764009F0B5CF88E080938106B7
:100FD000B1CFA032B64011F7909300028093400247
:100FE000DDCF1F93CF93DF93EC01162F672F8881FE
:100FF0009981803826E09207E1F480E180938506AC
:10100000CE010E944107612FCE010E9441078881D5
:101010009981803626E0920799F480E18093250635
:1010200098E09093860680936606DF91CF911F919A
:1010300008958036964021F780E180936506E0CFE1
:101040008038964091F788E08093850680938606E5
:1010500080E180938606E9CF2F923F924F925F9274
:101060006F927F928F929F92AF92BF92CF92DF92B8
:10107000EF92FF920F931F93CF93DF93CDB7DEB71D
:10108000A697CDBFDEBF4C0186E0EEE0F0E2DE01C8
:10109000199601900D928A95E1F7C4010E944B07C1
:1010A0001E010FE0200E311C310110E000E0602F26
:1010B000C4010E94C6068091F2209091F320892BF2
:1010C000D1F3C4010E941E07280193E0440C551C73
:1010D0009A95E1F7F201EC50FF4D20813181428178
:1010E00053816481758186819781A0E00E943115CA
:1010F00094F420813181428153816481758186819C
:1011000097810E9403152083318342835383648334
:10111000758386839783F201EC50FF4D30812181E6
:10112000828183818481858186818781832F922F2B
:10113000D3018D939D933D010F5F1F4F0330110528
:1011400009F0B5CFFE013996EB8FFC8F2E01F5E14A
:101150004F0E511C712C612CAB8DBC8D6D917D910E
:10116000AB8FBC8FC4010E94F107662DC4010E94A1
:10117000C6068091F2209091F320892BD1F3C4010F
:101180000E941E07830183E0000F111F8A95E1F77B
:10119000F801EC50FF4D20813181428153816481FF
:1011A000758186819781A0E00E94311594F4208199
:1011B00031814281538164817581868197810E944A
:1011C000031520833183428353836483758386832D
:1011D0009783F801EC50FF4D20813181428153818A
:1011E0006481758186819781D101AD90BD901D018B
:1011F000ADA2BEA2D12CC12CE12CF12C8701AD8E69
:10120000BE8ECF8ED8A2E9A2FAA20BA31CA3C12C3A
:10121000D12CE12CF12C00E010E00E9428150CF0FC
:10122000B6C0D2011D921C92BFEF6B1A7B0AE2E09E
:101230004E0E511CF3E06F16710409F08DCF6D89CD
:101240007E8990E080E00E948C1626E636E646E62F
:101250005FE30E94F3170E945D168B016D8B7E8BFE
:101260006F89788D90E080E00E948C1620E030E05D
:1012700040E45FE30E94F3170E945D162B016F8B21
:10128000788F698C7A8CC4010E944B070F3111054D
:1012900020F08EE190E08D8B9E8B6D897E8990E0B1
:1012A00080E00E948C1620E030E040EF51E40E9484
:1012B000AF1520E030E04FE753E40E94F3170E949F
:1012C0005D16062F972E15E14116510420F084E19A
:1012D00090E08F8B988F6F89788D90E080E00E94EE
:1012E0008C1620E030E040EA51E40E94AF1520E087
:1012F00030E04FE753E40E94F3170E945D16162F6B
:10130000872E80E16816710420F08FE090E0898FCD
:101310009A8F698D7A8D90E080E00E948C1620E093
:1013200030E040E751E40E94AF1520E030E04FE7A5
:1013300053E40E94F3170E945D16862F202F392D4B
:101340002B833C83212F382D2D833E83262F372F4F
:101350002F83388729813A81402F5C81612F7E81DC
:101360009885A696CDBFDEBFDF91CF911F910F91DB
:10137000FF90EF90DF90CF90BF90AF909F908F90B5
:101380007F906F905F904F903F902F9008950081D5
:101390001181228133814481558166817781EDA15C
:1013A000FEA10E1B1F0BD2010D931C933DCF0F927C
:1013B0000FB60F921F9211248F928BB68F929F922D
:1013C000AF92BF92CF92DF92EF92FF920F931F9353
:1013D0002F933F934F935F936F937F938F939F933D
:1013E000AF93BF93EF93FF938091102190911121C0
:1013F0000197E1F41092342110923521109232219C
:101400001092332110921021109211211092F42089
:101410001092F5201092F6201092F7201092F820EA
:101420001092F9201092FA201092FB208091240251
:10143000909125022091322130913321820F931F08
:101440008093322190933321609134217091352122
:101450006F5F7F4F6093342170933521643F21E0AB
:10146000720709F057C00E94EF14CB01770FAA0B47
:10147000BB0B80931A2190931B21A0931C21B09346
:101480001D2180911A2190911B21A0911C21B091C6
:101490001D21F091F420E091F520C090F620D0902D
:1014A000F720E090F820F090F9200091FA201091B8
:1014B000FB204C015D01BB0C8808982C54019C0159
:1014C000AD01682D782D882D982DAF2EBE2E0E944F
:1014D00013152093F4203093F5204093F620509379
:1014E000F7206093F8207093F9208093FA2090936E
:1014F000FB2010923221109233211092342110924D
:1015000035218091F2209091F32001968093F22072
:101510009093F320FF91EF91BF91AF919F918F91A5
:101520007F916F915F914F913F912F911F910F91FB
:10153000FF90EF90DF90CF90BF90AF909F908F90F3
:101540008BBE8F901F900F900FBE0F9018950F922B
:101550000FB60F921F9211248F928BB68F929F928B
:10156000AF92BF92CF92DF92EF92FF920F931F93B1
:101570002F933F934F935F936F937F938F939F939B
:10158000AF93BF93EF93FF9380910E2190910F2122
:101590000197E1F4109230211092312110922E2106
:1015A00010922F2110920E2110920F211092FC20E8
:1015B0001092FD201092FE201092FF201092002128
:1015C00010920121109202211092032180912C028D
:1015D00090912D0220912E2130912F21820F931F67
:1015E00080932E2190932F21609130217091312191
:1015F0006F5F7F4F6093302170933121643F21E012
:10160000720709F057C00E94EF14CB01770FAA0BA5
:10161000BB0B8093162190931721A0931821B093B0
:1016200019218091162190911721A0911821B09134
:101630001921F091FC20E091FD20C090FE20D09077
:10164000FF20E0900021F0900121009102211091F3
:1016500003214C015D01BB0C8808982C54019C01AE
:10166000AD01682D782D882D982DAF2EBE2E0E94AD
:1016700013152093FC203093FD204093FE205093BF
:10168000FF206093002170930121809302219093A9
:10169000032110922E2110922F21109230211092AE
:1016A00031218091F2209091F32001968093F220D5
:1016B0009093F320FF91EF91BF91AF919F918F9104
:1016C0007F916F915F914F913F912F911F910F915A
:1016D000FF90EF90DF90CF90BF90AF909F908F9052
:1016E0008BBE8F901F900F900FBE0F9018950F928A
:1016F0000FB60F921F9211248F928BB68F929F92EA
:10170000AF92BF92CF92DF92EF92FF920F931F930F
:101710002F933F934F935F936F937F938F939F93F9
:10172000AF93BF93EF93FF9380910C2190910D2184
:101730000197E1F410922C2110922D2110922A2170
:1017400010922B2110920C2110920D211092042145
:101750001092052110920621109207211092082163
:101760001092092110920A2110920B2180913402CB
:101770009091350220912A2130912B21820F931FC5
:1017800080932A2190932B2160912C2170912D21FF
:101790006F5F7F4F60932C2170932D21643F21E078
:1017A000720709F057C00E94EF14CB01770FAA0B04
:1017B000BB0B8093122190931321A0931421B0931B
:1017C00015218091122190911321A0911421B091A3
:1017D0001521F0910421E0910521C0900621D090BF
:1017E0000721E0900821F090092100910A21109131
:1017F0000B214C015D01BB0C8808982C54019C0105
:10180000AD01682D782D882D982DAF2EBE2E0E940B
:101810001315209304213093052140930621509302
:101820000721609308217093092180930A219093E6
:101830000B2110922A2110922B2110922C21109210
:101840002D218091F2209091F32001968093F22037
:101850009093F320FF91EF91BF91AF919F918F9162
:101860007F916F915F914F913F912F911F910F91B8
:10187000FF90EF90DF90CF90BF90AF909F908F90B0
:101880008BBE8F901F900F900FBE0F9018950F92E8
:101890000FB60F921F9211248F928BB68F929F9248
:1018A000AF92BF92CF92DF92EF92FF920F931F936E
:1018B0002F933F934F935F936F937F938F939F9358
:1018C000AF93BF93EF93FF938091102190911121DB
:1018D0000197E1F4109228211092292110922621DB
:1018E0001092272110921021109211211092F420B1
:1018F0001092F5201092F6201092F7201092F82006
:101900001092F9201092FA201092FB20809164022C
:10191000909165022091262130912721820F931FFB
:10192000809326219093272160912821709129216D
:101930006F5F7F4F6093282170932921643F21E0DE
:10194000720709F057C00E94EF14CB01770FAA0B62
:10195000BB0B80931A2190931B21A0931C21B09361
:101960001D2180911A2190911B21A0911C21B091E1
:101970001D21F091F420E091F520C090F620D09048
:10198000F720E090F820F090F9200091FA201091D3
:10199000FB204C015D01BB0C8808982C54019C0174
:1019A000AD01682D782D882D982DAF2EBE2E0E946A
:1019B00013152093F4203093F5204093F620509394
:1019C000F7206093F8207093F9208093FA20909389
:1019D000FB2010922621109227211092282110928C
:1019E00029218091F2209091F32001968093F2209A
:1019F0009093F320FF91EF91BF91AF919F918F91C1
:101A00007F916F915F914F913F912F911F910F9116
:101A1000FF90EF90DF90CF90BF90AF909F908F900E
:101A20008BBE8F901F900F900FBE0F9018950F9246
:101A30000FB60F921F9211248F928BB68F929F92A6
:101A4000AF92BF92CF92DF92EF92FF920F931F93CC
:101A50002F933F934F935F936F937F938F939F93B6
:101A6000AF93BF93EF93FF9380910E2190910F213D
:101A70000197E1F410922421109225211092222145
:101A80001092232110920E2110920F211092FC200F
:101A90001092FD201092FE201092FF201092002143
:101AA00010920121109202211092032180916C0268
:101AB00090916D022091222130912321820F931F5A
:101AC00080932221909323216091242170912521DC
:101AD0006F5F7F4F6093242170932521643F21E045
:101AE000720709F057C00E94EF14CB01770FAA0BC1
:101AF000BB0B8093162190931721A0931821B093CC
:101B000019218091162190911721A0911821B0914F
:101B10001921F091FC20E091FD20C090FE20D09092
:101B2000FF20E0900021F09001210091022110910E
:101B300003214C015D01BB0C8808982C54019C01C9
:101B4000AD01682D782D882D982DAF2EBE2E0E94C8
:101B500013152093FC203093FD204093FE205093DA
:101B6000FF206093002170930121809302219093C4
:101B700003211092222110922321109224211092ED
:101B800025218091F2209091F32001968093F220FC
:101B90009093F320FF91EF91BF91AF919F918F911F
:101BA0007F916F915F914F913F912F911F910F9175
:101BB000FF90EF90DF90CF90BF90AF909F908F906D
:101BC0008BBE8F901F900F900FBE0F9018950F92A5
:101BD0000FB60F921F9211248F928BB68F929F9205
:101BE000AF92BF92CF92DF92EF92FF920F931F932B
:101BF0002F933F934F935F936F937F938F939F9315
:101C0000AF93BF93EF93FF9380910C2190910D219F
:101C10000197E1F4109220211092212110921E21AF
:101C200010921F2110920C2110920D21109204216C
:101C3000109205211092062110920721109208217E
:101C40001092092110920A2110920B2180917402A6
:101C50009091750220911E2130911F21820F931FB8
:101C600080931E2190931F2160912021709121214A
:101C70006F5F7F4F6093202170932121643F21E0AB
:101C8000720709F057C00E94EF14CB01770FAA0B1F
:101C9000BB0B8093122190931321A0931421B09336
:101CA00015218091122190911321A0911421B091BE
:101CB0001521F0910421E0910521C0900621D090DA
:101CC0000721E0900821F090092100910A2110914C
:101CD0000B214C015D01BB0C8808982C54019C0120
:101CE000AD01682D782D882D982DAF2EBE2E0E9427
:101CF000131520930421309305214093062150931E
:101D00000721609308217093092180930A21909301
:101D10000B2110921E2110921F211092202110924F
:101D200021218091F2209091F32001968093F2205E
:101D30009093F320FF91EF91BF91AF919F918F917D
:101D40007F916F915F914F913F912F911F910F91D3
:101D5000FF90EF90DF90CF90BF90AF909F908F90CB
:101D60008BBE8F901F900F900FBE0F901895FC01A7
:101D700080E991E08083918312821382148215821C
:101D80001682178210861186A0E6B6E0A287B38776
:101D900092E0958781E08487109236211092372156
:101DA000109238211092392110923A2110923B2141
:101DB00010923C2110923D2112969C9312971196FD
:101DC0008C93E0EAF0E082818160828378940895C8
:101DD000EF92FF920F931F93FC0160837183E28265
:101DE000F382048315832683378340875187A0E6D7
:101DF000B6E0A287B38792E0958781E0848710924E
:101E000036211092372110923821109239211092E8
:101E10003A2110923B2110923C2110923D211296C2
:101E20009C93129711968C93E0EAF0E08281816096
:101E3000828378941F910F91FF90EF900895FC0199
:101E400080E991E08083918312821382148215824B
:101E500016821782108611866287738725874487CA
:101E60001092362110923721109238211092392188
:101E700010923A2110923B2110923C2110923D2168
:101E800082E0FB01828381E08183E0EAF0E08281ED
:101E900081608283789408958F92AF92CF92DF927F
:101EA000EF92FF920F931F93CF93DF93CDB7DEB7DF
:101EB000FC01D60160837183E282F382048315837F
:101EC0002683378340875187C286D3868586A4863A
:101ED0001092362110923721109238211092392118
:101EE00010923A2110923B2110923C2110923D21F8
:101EF00012968C9212971196AC92E0EAF0E08281F1
:101F0000816082837894DF91CF911F910F91FF9030
:101F1000EF90DF90CF90AF908F900895E0E4F8E0DD
:101F20008FE190E086A397A381E08083118286836E
:101F30000895E0E4F8E01082168208952F923F920F
:101F40004F925F926F927F928F929F92AF92BF92C9
:101F5000CF92DF92EF92FF920F931F93CF93DF9375
:101F6000CDB7DEB72D97CDBFDEBF1C01CB01BA01C7
:101F700021EC3CE24EE758E30E94F31723E533EBF4
:101F800047E05DE30E943E156E837F8388879987D3
:101F9000D1016D917C9190E080E00E948C1620E050
:101FA00030E040E250E40E94F3172E813F814885E3
:101FB00059850E94AF150E94261639014A016B8788
:101FC0007A872C01F101F281F983D1011396BC913A
:101FD000BA83F101B481F581FC87F101F681FD87B7
:101FE000F101F781FB83F101F085FC83F101F185BB
:101FF000FD8329813A814B2F5C856D857B818C81A6
:102000009F2FA0E00E943115B1F09301A4016B85D0
:102010007A85C201A980BA80CB2EDC84ED84FB8056
:102020000C811F2F0E94281530F435018B2E9D2C1A
:10203000EB86FA862801D1011A96ED91FC911B9747
:102040001C968C911C978683EFE3F1E03197F1F7B2
:1020500000C000001A96ED91FC911B971C968C9184
:102060001C978583EFE7FEE33197F1F700C000008E
:102070001A96ED91FC911B971C968C918683109279
:102080003621109237211092382110923921109266
:102090003A2110923B2110923C2110923D210E9446
:1020A0008E0FF1018585883009F4A4C108F055C070
:1020B000823009F40BC1843009F452C1813009F037
:1020C00054C00284F385E02D808580FD18C02091E6
:1020D000362130913721409138215091392160913A
:1020E0003A2170913B2180913C2190913D215301F7
:1020F0006401EB84FA8482010E94281528F310926F
:1021000036211092372110923821109239211092E5
:102110003A2110923B2110923C2110923D21808562
:1021200080FF18C02091362130913721409138210D
:102130005091392160913A2170913B2180913C214D
:1021400090913D2153016401EB84FA8482010E9445
:10215000281528F30E94990F08C0803209F4DEC1C7
:1021600008F064C0803109F48FC12091362130918C
:102170003721409138215091392160913A21709155
:102180003B2180913C2190913D2153016401EB84DE
:10219000FA8482010E94281508F054C22091362149
:1021A00030913721409138215091392160913A2165
:1021B00070913B2180913C2190913D210E94C91654
:1021C00020E030E040E05FE30E94F3172E813F8182
:1021D000488559850E94F31726E636E646E650E420
:1021E0000E94F3170E945D166115710541F0F1011F
:1021F000808191818617970710F470E060E0CB0131
:102200002D96CDBFDEBFDF91CF911F910F91FF9033
:10221000EF90DF90CF90BF90AF909F908F907F9086
:102220006F905F904F903F902F900895803409F405
:10223000BFC1803809F099CF0284F385E02D8085F5
:1022400087FD18C0209136213091372140913821E7
:102250005091392160913A2170913B2180913C212C
:1022600090913D2153016401EB84FA8482010E9424
:10227000281528F310923621109237211092382118
:102280001092392110923A2110923B2110923C2158
:1022900010923D21808587FF5DCF209136213091BE
:1022A0003721409138215091392160913A21709124
:1022B0003B2180913C2190913D2153016401EB84AD
:1022C000FA8482010E94281528F344CF0284F38502
:1022D000E02D808581FD18C0209136213091372175
:1022E000409138215091392160913A2170913B21E0
:1022F00080913C2190913D2153016401EB84FA844B
:1023000082010E94281528F310923621109237215D
:10231000109238211092392110923A2110923B21CB
:1023200010923C2110923D21808581FF13CF209196
:1023300036213091372140913821509139216091D7
:102340003A2170913B2180913C2190913D21530194
:102350006401EB84FA8482010E94281528F3FACEE6
:102360000284F385E02D808582FD18C020913621FE
:1023700030913721409138215091392160913A2193
:1023800070913B2180913C2190913D21530164014A
:10239000EB84FA8482010E94281528F310923621DA
:1023A00010923721109238211092392110923A213F
:1023B00010923B2110923C2110923D21808582FF9A
:1023C000C9CE20913621309137214091382150914A
:1023D000392160913A2170913B2180913C2190916B
:1023E0003D2153016401EB84FA8482010E94281587
:1023F00028F3B0CE0284F385E02D808583FD18C0DC
:102400002091362130913721409138215091392146
:1024100060913A2170913B2180913C2190913D2126
:1024200053016401EB84FA8482010E94281528F389
:1024300010923621109237211092382110923921B2
:1024400010923A2110923B2110923C2110923D2192
:10245000808583FF7FCE20913621309137214091B6
:1024600038215091392160913A2170913B2180911E
:102470003C2190913D2153016401EB84FA84820157
:102480000E94281528F366CE0284F385E02D80850E
:1024900084FD18C020913621309137214091382198
:1024A0005091392160913A2170913B2180913C21DA
:1024B00090913D2153016401EB84FA8482010E94D2
:1024C000281528F3109236211092372110923821C6
:1024D0001092392110923A2110923B2110923C2106
:1024E00010923D21808584FF35CE20913621309198
:1024F0003721409138215091392160913A217091D2
:102500003B2180913C2190913D2153016401EB845A
:10251000FA8482010E94281528F31CCE0284F385D8
:10252000E02D808585FD18C020913621309137211E
:10253000409138215091392160913A2170913B218D
:1025400080913C2190913D2153016401EB84FA84F8
:1025500082010E94281528F310923621109237210B
:10256000109238211092392110923A2110923B2179
:1025700010923C2110923D21808585FFEBCD20916A
:102580003621309137214091382150913921609185
:102590003A2170913B2180913C2190913D21530142
:1025A0006401EB84FA8482010E94281528F3D2CDBD
:1025B0000284F385E02D808586FD18C020913621A8
:1025C00030913721409138215091392160913A2141
:1025D00070913B2180913C2190913D2153016401F8
:1025E000EB84FA8482010E94281528F31092362188
:1025F00010923721109238211092392110923A21ED
:1026000010923B2110923C2110923D21808586FF43
:10261000A1CD209136213091372140913821509120
:10262000392160913A2170913B2180913C21909118
:102630003D2153016401EB84FA8482010E94281534
:1026400028F388CD20E030E040E050E060E070E02A
:1026500080E090E0B3CD0F920FB60F921F9211243D
:102660002F933F934F935F936F937F938F939F939A
:10267000AF932091362130913721409138215091EC
:10268000392160913A2170913B2180913C219091B8
:102690003D21A1E00E941C15209336213093372163
:1026A000409338215093392160933A2170933B2114
:1026B00080933C2190933D21AF919F918F917F9189
:1026C0006F915F914F913F912F911F900F900FBE8F
:1026D0000F901895CDB7DEB7EB97CDBFDEBF8AE080
:1026E0008BAF0E943A0160E078E488EE91E00E94AE
:1026F000BE02E12C00E012E020E036E040EC5AE0BF
:1027000060E876E0CE0185960E94830700E412E03F
:1027100020E236E040EC59E060E676E0CE014D96EE
:102720000E94830782E0882EAA24A39490E8C92EF1
:1027300096E0D92EF12C00E010E020E030E040E0FF
:1027400050E068E270E0CE010F960E944C0F20E648
:10275000C22E26E0D22E20E030E040E050E068E2D9
:1027600070E0CE0101960E944C0F78943E012BE35D
:10277000620E711C34E1C32E30E2D32E44E6A42E47
:10278000B12C54E1852E912C3324339407E110E2CF
:1027900066E0262E7CE1472E70E2572E0E9403034E
:1027A000882309F44BC07F926F92DF92CF920E94F0
:1027B000ED188BAD0F900F900F900F90823509F4AC
:1027C0006BC08C34D9F5CE0185960E942C082DA7BC
:1027D0003EA74FA758AB69AB7AAB8BAB9CABCE0196
:1027E0008D960E94F1032DAB3EAB4FAB58AF69AF56
:1027F0007AAF8FA998AD0A9708F051C01F921F9227
:102800001F930F930E94D9180F900F900F900F9065
:10281000AFAAB8AE89AE9AAECE01C5960E94540555
:102820002DA73EA74FA758AB69AB7AAB8BAB9CAB40
:10283000CE018D960E94C3038AE08BAF4CEB54E728
:1028400062EB71E4CE010F960E949E0F7C014CEB6F
:1028500054E762EB71E4CE0101960E949E0F092EAF
:10286000000CAA0BBB0BBF93AF939F938F93C70131
:10287000FF0CAA0BBB0BBF93AF939F938F935F92F9
:102880004F920E94D9188FE39FE10197F1F700C0A2
:102890000000CDBFDEBF82CFCE014D9696CF8DA971
:1028A0009EA9069750F41F923F921F930F930E9488
:1028B000D9180F900F900F900F908DA99EA9069791
:1028C000839758F41F9282E08F931F930F930E9477
:1028D000D9180F900F900F900F908DA99EA98997EE
:1028E000C29758F41F9283E08F931F930F930E9417
:1028F000D9180F900F900F900F908DA99EA98B550E
:1029000091098A35910558F41F9284E08F931F93A3
:102910000F930E94D9180F900F900F900F908DA9D0
:102920009EA9855B91094E9758F41F9285E08F937D
:102930001F930F930E94D9180F900F900F900F9034
:102940008DA99EA9835D9109889750F41F922F92BB
:102950001F930F930E94D9180F900F900F900F9014
:102960008DA99EA98B5F9109889758F41F9288E0E2
:102970008F931F930F930E94D9180F900F900F9071
:102980000F908DA99EA983529140C29758F41F922F
:1029900097E09F931F930F930E94D9180F900F9069
:1029A0000F900F908DA99EA98535914008F430CFE6
:1029B0001F923F9225CFAA1BBB1B51E107C0AA1F44
:1029C000BB1FA617B70710F0A61BB70B881F991FD0
:1029D0005A95A9F780959095BC01CD01089597FB74
:1029E000072E16F4009407D077FD09D00E94DB145F
:1029F00007FC05D03EF4909581959F4F0895709502
:102A000061957F4F0895609570958095909530956C
:102A10004095509521953F4F4F4F5F4F6F4F7F4FE0
:102A20008F4F9F4F08952A0D3B1D4C1D5D1D6E1D40
:102A30007F1D801F911F08950024A7FD00942A0F79
:102A4000301D401D501D601D701D801D901D08957E
:102A50002A153B054C055D056E057F05800791072E
:102A600008950024A7FD00942A173005400550055D
:102A7000600570058005900508955058BB27AA276A
:102A80000E9455150C94B4170E94A61738F00E94A6
:102A9000AD1720F039F49F3F19F426F40C949317E6
:102AA0000EF4E095E7FB0C947F17E92F0E94C51701
:102AB00058F3BA17620773078407950720F079F473
:102AC000A6F50C94E7170EF4E0950B2EBA2FA02D67
:102AD0000B01B90190010C01CA01A0011124FF27CB
:102AE000591B99F0593F50F4503E68F11A16F040C6
:102AF000A22F232F342F4427585FF3CF46953795C5
:102B00002795A795F0405395C9F77EF41F16BA0B89
:102B1000620B730B840BBAF09150A1F0FF0FBB1F37
:102B2000661F771F881FC2F70EC0BA0F621F731F80
:102B3000841F48F4879577956795B795F7959E3FDD
:102B400008F0B0CF9395880F08F09927EE0F97956E
:102B5000879508950E945B1708F481E008950E940C
:102B6000C3150C94B4170E94AD1758F00E94A61715
:102B700040F029F45F3F29F00C947F1751110C9419
:102B8000E8170C9493170E94C51768F39923B1F3C3
:102B9000552391F3951B550BBB27AA276217730783
:102BA000840738F09F5F5F4F220F331F441FAA1F17
:102BB000A9F335D00E2E3AF0E0E832D091505040D3
:102BC000E695001CCAF72BD0FE2F29D0660F771F81
:102BD000881FBB1F261737074807AB07B0E809F067
:102BE000BB0B802DBF01FF2793585F4F3AF09E3FEC
:102BF000510578F00C947F170C94E8175F3FE4F3CD
:102C0000983ED4F3869577956795B795F7959F5F2E
:102C1000C9F7880F911D9695879597F90895E1E07A
:102C2000660F771F881FBB1F621773078407BA07D9
:102C300020F0621B730B840BBA0BEE1F88F7E09534
:102C40000895BEE304D008F490E80895BFE3222776
:102C50003327A9010E94CD1760F19F5748F1B9179A
:102C600040F1BFE3B91B9927B8503AF4660F771FBC
:102C7000881F991FB395D2F316C0B8504AF0232F7E
:102C8000342F452F562F672F782F8827B850BAF743
:102C9000B85F49F08695779567955795479537952D
:102CA0002795BA95B9F716F40E9496178894089557
:102CB000889460E070E0CB0108950E94CD1788F001
:102CC0009F5798F0B92F9927B751B0F0E1F0660FF0
:102CD000771F881F991F1AF0BA95C9F714C0B13031
:102CE00091F00E94E717B1E008950C94E717672F61
:102CF000782F8827B85F39F0B93FCCF38695779560
:102D00006795B395D9F73EF4909580957095619548
:102D10007F4F8F4F9F4F0895E89409C097FB3EF473
:102D200090958095709561957F4F8F4F9F4F992318
:102D3000A9F0F92F96E9BB279395F6958795779596
:102D40006795B795F111F8CFFAF4BB0F11F460FF56
:102D50001BC06F5F7F4F8F4F9F4F16C0882311F0AE
:102D600096E911C0772321F09EE8872F762F05C0C2
:102D7000662371F096E8862F70E060E02AF09A955D
:102D8000660F771F881FDAF7880F9695879597F952
:102D90000895E894F92F96EBFF2381F0121613069D
:102DA0001406440B9395F6958795779567955795F7
:102DB0004040FF23B9F71BC099270895882351F499
:102DC0009850D2F7872B762F652F542F432F322F11
:102DD00020E0B1F3121613061406440B88233AF0D0
:102DE0009A95440F551F661F771F881FCAF75523F2
:102DF0004AF4440F551F11F460FF04C06F5F7F4F0A
:102E00008F4F9F4F880F9695879597F908950E9449
:102E1000A61720F019F00E94AD1750F40C949317E8
:102E20000C94E817E92F0E94C51788F35523B1F3D6
:102E3000E7FB6217730784079507A8F189F3E92F69
:102E4000FF2788232AF03197660F771F881FDAF74C
:102E5000952F5527442332F091505040220F331FB5
:102E6000441FD2F7BB27E91BF50B621B730B840BC6
:102E7000B109B1F222F4620F731F841FB11D3197A3
:102E80002AF0660F771F881FBB1FEFCF915050406D
:102E900062F041F0882332F0660F771F881F91504F
:102EA0005040C1F793950C94851786957795679553
:102EB0009F5FD9F7F7CF990F0008550FAA0BE0E8ED
:102EC000FEEF16161706E807F907C0F012161306EC
:102ED000E407F50798F0621B730B840B950B39F42C
:102EE0000A2661F0232B242B252B21F408950A2692
:102EF00009F4A140A6958FEF811D811D089597F9D2
:102F00009F6780E870E060E008959F3F31F0915046
:102F100020F4879577956795B795880F911D9695BD
:102F2000879597F908959FEF80EC08959095809587
:102F30007095609550954095309521953F4F4F4F36
:102F40005F4F6F4F7F4F8F4F9F4F089500240A941C
:102F50001616170618060906089500240A94121674
:102F60001306140605060895092E0394000C11F4A7
:102F7000882352F0BB0F40F4BF2B11F460FF04C054
:102F80006F5F7F4F8F4F9F4F089557FD9058440FAD
:102F9000551F59F05F3F71F04795880F97FB991FB8
:102FA00061F09F3F79F08795089512161306140675
:102FB000551FF2CF4695F1DF08C016161706180602
:102FC000991FF1CF86957105610508940895E894DD
:102FD000BB2766277727CB0197F908950E945B17D7
:102FE00008F48FEF08950E9406180C94B4170E94FD
:102FF000A61738F00E94AD1720F0952311F00C941D
:103000007F170C94931711240C94E8170E94C5178E
:1030100070F3959FC1F3950F50E0551F629FF0012B
:10302000729FBB27F00DB11D639FAA27F00DB11D44
:10303000AA1F649F6627B00DA11D661F829F2227CD
:10304000B00DA11D621F739FB00DA11D621F839F54
:10305000A00D611D221F749F3327A00D611D231F2A
:10306000849F600D211D822F762F6A2F11249F5778
:1030700050409AF0F1F088234AF0EE0FFF1FBB1F7B
:10308000661F771F881F91505040A9F79E3F51053A
:1030900080F00C947F170C94E8175F3FE4F3983EA0
:1030A000D4F3869577956795B795F795E7959F5FE4
:1030B000C1F7FE2B880F911D9695879597F9089576
:1030C0000E94CD17E8F09E37E8F09639B8F49E38A4
:1030D00048F4672F782F8827985FF9CF86957795E2
:1030E000679593959539D0F3B62FB1706B0F711D1D
:1030F000811D20F487957795679593950C94841896
:103100000C9485170C94E817882371F4772321F029
:103110009850872B762F07C0662311F499270DC08E
:103120009051862B70E060E02AF09A95660F771F29
:10313000881FDAF7880F9695879597F90895CF93AA
:10314000DF93EC012B8120FF2FC026FF0CC02F7BCB
:103150002B838E819F8101968E839F838A8190E04D
:10316000DF91CF91089522FF14C0E881F981808119
:10317000082E000C990B20620097A9F03196E88385
:10318000F9832E813F812F5F3F4F2E833F83992705
:10319000E7CFEA85FB85199597FFF3CF2B81019641
:1031A00031F080E2282B2B838FEF9FEFD9CF80E186
:1031B000F9CFCF93DF93CDB7DEB7AE014A5F5F4F54
:1031C000FA0161917191AF0180914021909141216B
:1031D0000E941919DF91CF910895CF93DF93CDB756
:1031E000DEB7AE014A5F5F4FFA0161917191AF01A5
:1031F00080913E2190913F210E94901CDF91CF91C0
:103200000895FB01238120FF11C026FD0FC08F3FD1
:10321000980771F082832F7D206423832681378174
:103220002150310926833783992708958FEF9FEF27
:1032300008952F923F924F925F926F927F928F925A
:103240009F92AF92BF92CF92DF92EF92FF920F9335
:103250001F93CF93DF93CDB7DEB72B97CDBFDEBFE4
:103260007C013B018A01FC0116821782838181FF68
:10327000CBC19AE0292ECE0101965C01F701938122
:10328000F30193FD859193FF81913F01882309F418
:1032900046C1853239F493FD859193FF81913F01B9
:1032A000853229F4B70190E00E94CE1DE7CF912C22
:1032B000412C512CFFE1F51538F08B3209F188F4DF
:1032C000803201F1833221F157FC3AC020ED280F02
:1032D0002A3040F556FE1FC0929C200D1124922EDC
:1032E00006C08D3291F0803379F7689450F8F3017D
:1032F00093FD859193FF81913F018111DBCF20C028
:10330000689451F8689452F8F2CF689453F8EFCF6C
:10331000689454F8ECCF429C200D1124422E6894FE
:1033200055F8E5CF8E3229F456FCF9C0689456F86A
:10333000DECF8C3619F4689457F8D9CF8836B9F2B5
:10334000982F9F7D95549330C0F08336A1F1833739
:10335000C1F1833509F05BC0F801C190D1908F01B4
:10336000692D70E056FC02C06FEF7FEFC6010E942E
:10337000B81D4C01689457F80AC00C5F1F4F2FE32B
:10338000298388248394912C6501E89457F853FC91
:1033900004C04814190409F018F5342C8114910460
:1033A00031F5332009F46ACFB70180E290E00E9442
:1033B000CE1D3A94F6CFF801808189830E5F1F4FAE
:1033C000E0CFF801C190D1908F01692D70E056FCDB
:1033D00002C06FEF7FEFC6010E94C31D4C01D5CF25
:1033E000B70180E290E00E94CE1D4A94D2CFF60150
:1033F00057FC859157FE81916F01B70190E00E94C3
:10340000CE1D31103A94F1E08F1A9108C7CF84365F
:1034100019F0893609F074C0F80157FE6AC061914D
:103420007191819191918F01252D2F76D22E97FF49
:1034300009C090958095709561957F4F8F4F9F4FF4
:103440006894D7F82AE030E0A5010E94FE1DC82E3E
:10345000CA188C2C5D2CD6FE0CC0E89450F8C91408
:1034600040F4D4FE05C0D2FC03C0FD2DFE7E5F2ECD
:10347000892C54FEA1C0FE01EC0DF11D808180332A
:1034800009F093C0252D297E522E852D8870382E67
:1034900053FCA1C050FE9BC09C2C841418F44C0C0F
:1034A000942C981854FE9DC0B70180E390E00E94D0
:1034B000CE1D52FE09C088E790E051FE02C088E5AB
:1034C00090E0B7010E94CE1DC91408F496C0CA94BA
:1034D000D12C9FEFC91AD90ACA0CDB1CF6018291C4
:1034E0006F01B70190E00E94CE1DAC14BD04B1F78E
:1034F00058CF61917191072E000C880B990B93CFD7
:10350000D52CE894D4F82AE030E08537C9F1952D20
:10351000997FD92E8F3691F1D8F4883539F1F7019A
:10352000868197812B96CDBFDEBFDF91CF911F9112
:103530000F91FF90EF90DF90CF90BF90AF909F9052
:103540008F907F906F905F904F903F902F90089555
:10355000803749F0883719F7D4FE02C06894D2F852
:1035600020E130E00DC06894D4F8F6CF54FE03C0DB
:10357000E92FE660DE2E20E132E002C028E030E0F4
:10358000F801D7FE0DC061917191819191918F01E8
:10359000A5010E94FE1DC82ECA18E894D7F859CF7D
:1035A0006191719190E080E0F2CF52FC02C083946F
:1035B0006CCF8394839469CF852D867809F465CF89
:1035C000F6CFB70180E290E00E94CE1D8394841470
:1035D000C0F3312C67CF342C3818841408F462CF30
:1035E000F8CF852D867809F46FCF8BE251FE80E20B
:1035F00057FC8DE2B70190E065CFB70180E390E022
:103600000E94CE1D9A9460CF8FEF9FEF8BCF20FD4D
:1036100009C0FC0123FD05C022FF02C07383628341
:1036200051834083089533E044FD10C034E046FDEB
:103630000DC0DB01FC01AA0FBB1FEE1FFF1F109482
:10364000D1F76A0F7B1F8E1F9F1F31E0660F771F18
:10365000881F991F3150D1F7620F711D811D911D77
:1036600008950F931F93CF93DF938C01C8010E949D
:103670009F18EC0197FD08C00E94A41D892BB1F78B
:10368000B801CE010E940119CE01DF91CF911F91A7
:103690000F9108958F929F92AF92BF92EF92FF92F7
:1036A0000F931F93CF93DF938C01D62F7A01B22E05
:1036B0000E949F189C0133272B32310529F02D32AF
:1036C0003105A9F46894B7F8D15061F480E0DF9136
:1036D000CF911F910F91FF90EF90BF90AF909F906F
:1036E0008F900895C8010E949F1897FDEFCFCB2DB2
:1036F000CD7F2B2D2073F9F48033E9F4AA24AA940A
:10370000AD0E89F0C8010E949F1897FD0CC0282FAC
:103710002F7D283561F4C264D25029F0C8010E947F
:103720009F1897FF08C0812C912C54011BC0B6FE36
:103730002BC0C260DA2D812C912C540120ED280F72
:10374000283028F1C4FD09C02A3008F1C6FF05C0A1
:103750002F7D3FEE320F3630C8F0B8010E940119BC
:10376000C1FFB4CFC7FF08C0B094A09490948094D8
:10377000811C911CA11CB11C2C2FB501A401C701F7
:103780000E94071B81E0A3CFC261D4CF27504C2FEA
:10379000C501B4010E94131B4B015C01C260D150F2
:1037A00009F3C8010E949F1897FFC8CFD9CF8F9205
:1037B0009F92AF92BF92CF92DF92EF92FF920F93C0
:1037C0001F93CF93DF93CDB7DEB7A097CDBFDEBFFA
:1037D0005C01962E7A01CE0101966C0180E2F60121
:1037E00011928A95E9F7F5018380890150E040E064
:1037F000B0E020E0A0E061E070E0F80183FC95918A
:1038000083FE9191892F8F01911113C010E000E088
:10381000C801A096CDBFDEBFDF91CF911F910F9160
:10382000FF90EF90DF90CF90BF90AF909F908F90E0
:1038300008959E3519F44115510531F1A417150667
:10384000ECF49D3549F19D32C9F4222309F1E82FAA
:10385000E695E695E695EC0DFD2DF11D982F9770F8
:103860009B0101C0220F9A95EAF79081292B2083B2
:103870008B1781F08B1730F48F5FE9CF2111E7CFE1
:10388000B92FE5CF8150E3CFA1E04F5F5F4FB5CFB8
:1038900021E0FBCF20E0F9CF222319F08E81806256
:1038A0008E83AA2361F0F6019E012F5D3F4FDF0159
:1038B0008D9180958083FD01A217B307C1F78824FD
:1038C0008394C5010E949F1897FD16C0E82FE695C6
:1038D000E695E695EC0DFD2DF11D208130E0AC0163
:1038E0004770552702C0359527954A95E2F720FD88
:1038F00006C0B5010E940119882059F087CFE11454
:10390000F10419F0F70181937F019A94812C9110B1
:10391000D8CFE114F10409F47BCFF701108278CFFE
:103920006F927F928F929F92AF92BF92CF92DF92CF
:10393000EF92FF920F931F93CF93DF935C01EB0104
:10394000742E652EFC0116821782C12CF501F380BE
:10395000FE01F3FC8591F3FE8191182FEF0188237E
:10396000E9F090E00E94A41D892B21F0C5010E947E
:10397000311BECCF153241F4FE01F3FC1591F3FE3F
:103980001191EF01153269F4C5010E949F1897FD4E
:103990008CC01817D9F2B5010E9401198C2D90E046
:1039A00088C000E01A3231F4F3FC1591F3FE119156
:1039B000EF0101E0D12C20ED210F2A3048F101FF69
:1039C00037C0DD2059F31836B1F11C3609F43DC07B
:1039D000112321F3612F70E084E092E00E94AD1D7D
:1039E000892BE1F2F12CE12C00FD06C0E72DF62D2C
:1039F000E190F1907E2E6F2E1E3679F5F50146810D
:103A0000578170E060E0202FC7010E94071B9ECF06
:103A100002606D2D70E090E080E040E20E94131B98
:103A2000D62EFE01F3FC1591F3FE1191EF01C3CFE9
:103A3000DD24DA94C8CFFE01F3FC1591F3FE119159
:103A4000EF01183609F0C4CF08600460FE01F3FCF2
:103A50001591F3FE1191EF01BBCF1336B1F401FDC7
:103A600002C0DD24D394C5010E949F1897FD1DC09C
:103A7000E114F10419F0F70181937F01DA94D11078
:103A8000F2CF00FD63CFC39461CF1B3509F59E01D2
:103A9000A7016D2DC5010E94D71BEC01892B89F769
:103AA000F5018381807309F479CF8FEF9FEFC11007
:103AB00075CFDF91CF911F910F91FF90EF90DF9025
:103AC000CF90BF90AF909F908F907F906F90089510
:103AD000C5010E94311B97FDE8CF1F3699F130F4E4
:103AE000143641F0193639F0006405C01337A9F0D7
:103AF0001537D1F70062202FA7016D2DC5010E9457
:103B00004A1B8111BECFCCCFE114F10419F0F701AB
:103B100081927F01DA94DD2071F0C5010E949F1827
:103B20004C0197FD08C00E94A41D892B69F3B501C3
:103B3000C4010E940119E114F10409F4A2CFF701B4
:103B400010829FCF0061D7CF91110C945C1E803200
:103B500019F089508550C8F70895FC0105900616A4
:103B600021F00020D9F7C00108953197CF010895C1
:103B7000FC010590615070400110D8F78095909538
:103B80008E0F9F1F0895FC0161507040019001103D
:103B9000D8F7809590958E0F9F1F08950F931F93D0
:103BA000CF93DF93182F092FEB018B8181FD09C083
:103BB0001FEF0FEF812F902FDF91CF911F910F916A
:103BC000089582FF14C02E813F818C819D8128172A
:103BD00039073CF4E881F981CF0101968883998304
:103BE00010838E819F8101968E839F83E3CFE8852A
:103BF000F985812F1995892BA1F3DACFFA01AA272C
:103C0000283051F1203181F1E8946F936E7F6E5F1F
:103C10007F4F8F4F9F4FAF4FB1E03ED0B4E03CD0CD
:103C2000670F781F891F9A1FA11D680F791F8A1FB0
:103C3000911DA11D6A0F711D811D911DA11D20D017
:103C400009F468943F912AE0269F11243019305DD1
:103C50003193DEF6CF010895462F4770405D4193C2
:103C6000B3E00FD0C9F7F6CF462F4F70405D4A330F
:103C700018F0495D31FD4052419302D0A9F7EACFD7
:103C8000B4E0A6959795879577956795BA95C9F706
:103C900000976105710508959B01AC010A2E0694F9
:103CA0005795479537952795BA95C9F7620F731FB2
:103CB000841F951FA01D0895992788270895F894BB
:023CC000FFCF34
:103CC20000000003000000002E02210300004992C0
:103CD200922424492563002025640A0020256C646F
:063CE20020256C640A00BD
:00000001FF
