:100000000C940A010C942B010C942B010C942B01E1
:100010000C942B010C942B010C942B010C942B01B0
:100020000C942B010C942B010C942B010C942B01A0
:100030000C942B010C942B010C942B010C942B0190
:100040000C942B010C942B010C942B010C942B0180
:100050000C942B010C942B010C942B010C942B0170
:100060000C942B010C942B010C942B010C942B0160
:100070000C942B010C942B010C942B010C942B0150
:100080000C942B010C942B010C942B010C942B0140
:100090000C942B010C942B010C942B010C940B0D44
:1000A0000C94ED0D0C94CF0E0C942B010C942B01A1
:1000B0000C942B010C942B010C942B010C942B0110
:1000C0000C942B010C942B010C942B010C942B0100
:1000D0000C942B010C9434140C942B010C942B01D4
:1000E0000C942B010C942B010C942B010C942B01E0
:1000F0000C942B010C942B010C942B010C942B01D0
:100100000C942B010C942B010C942B010C942B01BF
:100110000C942B010C942B010C942B010C94650A6C
:100120000C94470B0C94290C0C942B010C942B0170
:100130000C942B010C942B010C942B010C942B018F
:100140000C942B010C942B010C942B010C942B017F
:100150000C942B010C942B010C942B010C942B016F
:100160000C942B010C942B010C942B010C942B015F
:100170000C942B010C942B010C942B010C942B014F
:100180000C942B010C942B010C942B010C942B013F
:100190000C942B010C942B010C942B010C942B012F
:1001A0000C942B010C942B010C942B010C942B011F
:1001B0000C942B010C942B010C942B010C942B010F
:1001C0000C942B010C942B010C942B010C942B01FF
:1001D0000C942B010C942B010C942B010C947503A3
:1001E0000C9498030C942B010C942B010C942B0170
:1001F0000C942B010C942B010C942B010C949B154B
:100200000C9423030C9430026364696E6F707375F1
:1002100078585B0011241FBECFEFCDBFDFE5DEBFF6
:1002200000E00CBF10E2A0E0B0E2ECEBFFE300E086
:100230000BBF02C007900D92A43CB107D9F721E291
:10024000A4ECB0E201C01D92AC3DB207E1F70E9400
:1002500073140C94DC1F0C94000080915000826099
:10026000809350008091510081FFFCCF88ED84BFC6
:1002700081E08093400008958BEC80935200809140
:1002800050008860809350008091510083FFFCCF24
:1002900082EC8093550080915000806180935000E3
:1002A0008091510084FFFCCF88ED84BF84E080936F
:1002B0004000809150008E7F8093500080915000CC
:1002C0008D7F8093500008958BEC80935200809135
:1002D00050008860809350008091510083FFFCCFD4
:1002E00081EC809355008091500080618093500094
:1002F0008091510084FFFCCF88ED84BF84E080931F
:100300004000809150008E7F80935000809150007B
:100310008D7F809350000895809150008460809379
:1003200050008091510082FFFCCF80915600897F60
:100330008093560080915600809356008091600013
:100340008160809360000895809150008460809364
:1003500050008091510082FFFCCF809156008E7F2B
:1003600080935600809156008093560080916800DB
:10037000816080936800089580915200826080932C
:10038000520080915000886080935000809151000D
:1003900083FFFCCF80915600897F80935600809127
:1003A0005600826080935600809160008160809347
:1003B000600008958091520082608093520088ED21
:1003C00084BF8091500088608093500080915100DC
:1003D00083FFFCCF809156008E7F809356008091E2
:1003E0005600816080935600809168008160809300
:1003F0006800089520918F2191E0920F80918E21C5
:10040000943610F09DE9920F891710F0891B08951A
:100410008C59FCCFCF93DF93C82FD1E20E94FA0111
:100420008823D9F080918F21E82FF0E0E65DFE4D22
:10043000C0838F5F843608F080E09091A200292F5E
:100440002E7F2093A20080938F2181E28093A30BC3
:100450009093A200DF91CF910895D093A30BDECFAC
:10046000CF93DF93D82FCFEF0E94FA01882379F042
:10047000CC2389F0DA3019F48DE00E940A028D2F26
:100480000E940A0290E080E0DF91CF910895CC2392
:1004900011F0C150E9CF81E090E0F6CF8F929F92AA
:1004A000AF92BF92CF92DF92EF92FF92CF93C42F81
:1004B0000E94D71720E030E041EE59E40E94FA167E
:1004C0006B017C018C2F0C2E000C990BC7FF2FC0E9
:1004D00091958195910961E070E002C0660F771FE8
:1004E0008A95E2F7072E000C880B990B0E94D9170A
:1004F0004B015C0120E030E040E85FE3C701B6015A
:100500000E9488169B01AC01C501B4010E943E19EE
:100510000E94AB190E94A817CB01CF91FF90EF90DA
:10052000DF90CF90BF90AF909F908F90089561E043
:1005300070E002C0660F771FCA95E2F7072E000C25
:10054000880B990B0E94D9179B01AC01C701B6011A
:100550000E94FA1620E030E040E85FE30E9488162F
:10056000D7CF0C940A02CF93DF93EC0189918111CC
:1005700003C0DF91CF9108950E940A02CE01F5CF0A
:10058000CF92DF92EF92FF92CF936B017C01C9EF84
:100590004C2FC701B6010E944E028115904118F000
:1005A000CF5FC830A9F74C2FC701B6010E944E0299
:1005B00028E12093B20638E03093A5063093A106D7
:1005C00034E03093A2068093A60B9F70C295C07F43
:1005D000C92BC093A70B2093A40B80E28093A30B9D
:1005E0008091A20083608093A20080E090E28093DB
:1005F000D6219093D7218093D8219093D921CF9160
:10060000FF90EF90DF90CF900895809129219091F5
:100610002821891710F0891B08958C59FCCFCF939E
:10062000C09128210E9405038823E1F3EC2FF0E01C
:10063000EC53FF4D8081CF5FC43608F0C0E0C0931B
:100640002821CF9108950E940F0390E008950E9401
:100650000503882321F00E940F0390E0089580E0B5
:1006600091E00895CF92DF92EF92FF920F931F9344
:10067000CF93DF937C016B01C82FDF2D10E000E0EA
:100680008091D6219091D7210E94EA198A3059F0A1
:100690008D30A1F400ED17E00E940503811115C013
:1006A00001501109C9F71882C701DF91CF911F913D
:1006B0000F91FF90EF90DF90CF9008950C151D05DE
:1006C00008F489930F5F1F4FDBCF8091D621909163
:1006D000D7210E94EA198A3031F36091D6217091B6
:1006E000D72190E00E947E1ADECF8F938FB78F9331
:1006F0008BB78F939F93EF93FF9380912921E82FDE
:10070000F0E09091A00BEC53FF4D90838F5F843607
:1007100008F080E090912821981380932921FF917F
:10072000EF919F918F918BBF8F918FBF8F91189574
:100730002F932FB72F932BB72F938F939F93EF93D5
:10074000FF9380918E2190918F21891310C080E2B8
:100750008093A30B892F80938E21FF91EF919F911E
:100760008F912F912BBF2F912FBF2F911895E82F8D
:10077000F0E0E65DFE4D20812093A00B8F5F843674
:1007800008F080E08913E7CFE2CFCF93DF93EC014D
:1007900083E08093A10691E090934106E0E0FBE0C6
:1007A00093E39183A0E0B8E093E111969C931197B5
:1007B00080838C938FEF90E086A397A396968D937A
:1007C0009C9397978A819B8182A793A78C819D8117
:1007D00080A791A78E819F8198968D939C939997DE
:1007E000DF91CF9108952F923F924F925F926F9237
:1007F0007F928F929F92AF92BF92CF92DF92EF92B1
:10080000FF920F931F93CF93DF93CDB7DEB760971F
:10081000CDBFDEBF7B01FB016281738190E080E090
:100820000E94D71720E030E04FE753E40E94FA1609
:100830006F83788789879A87F7016481758190E053
:1008400080E00E94D71720E030E04FE753E40E9499
:10085000FA163B018B879C87F7016681778190E0D0
:1008600080E00E94D71720E030E04FE753E40E9479
:10087000FA166B017C0193014B855C856F8178854D
:1008800089859A850E9439199601A701181664F482
:100890006F81788589859A850E94391918160CF41C
:1008A000D2C0460157010AC0B3018B859C850E94C6
:1008B00039194301AB84BC8418169CF793014B850E
:1008C0005C856F81788589859A850E94F5169601E9
:1008D000A70187FFBDC06F81788589859A850E94B1
:1008E000F51687FDC3C0CD86DE86EF86F88A2D8596
:1008F0003E854F855889B401C5010E9488161B01A9
:100900002C012D853E854F855889B401C5010E9473
:10091000F516882309F4F3C09401A5016F81788549
:1009200089859A850E94F5168111A9C09601A701B3
:10093000B3018B859C850E948816A20191010E94BB
:10094000FA1620E030E040E752E40E943E1920E031
:1009500030E044EB53E40E94891620E030E044EBA1
:1009600053E40E945D180E94A8178B01C8010B97E1
:10097000893A910508F0C6C064EB70E0601B710B0A
:1009800090E080E00E94D7172DEC3CEC4CE45EE355
:100990000E943E196B017C01B80190E080E00E944A
:1009A000D7179B01AC01C701B6010E9489160E94AE
:1009B000A8178B0120E030E0A901B401C5010E9415
:1009C000F51620E090E0882381F09401A501C20192
:1009D000B1010E94FA1620E030E048EC52E40E9497
:1009E0003E190E94A817262F972F09831A83122FCA
:1009F0002B839C8320E030E048EC52E4B401C50135
:100A00000E943E190E94A8176D837E83202F3A8191
:100A1000412F5C817E8180E090E06096CDBFDEBF9B
:100A2000DF91CF911F910F91FF90EF90DF90CF90CA
:100A3000BF90AF909F908F907F906F905F904F90FE
:100A40003F902F9008958F809884A984BA8436CFE0
:100A5000B3018B859C850E94F51687FF44CF6D8678
:100A60007E868B858F87EC85E88B41CFFF81FD8764
:100A700088858E87E985EF87FA85F88B38CF9401D2
:100A8000A501B3018B859C850E94F516811117C0C5
:100A90002F81388549855A85B601C7010E9488167D
:100AA000A20191010E94FA1620E030E040E752E4F2
:100AB0000E943E1920E030E040EF52E44CCF940118
:100AC000A501B601C7010E94F51681114FCF930110
:100AD0004B855C856F81788589859A850E9488160B
:100AE000A20191010E94FA1620E030E040E752E4B2
:100AF0000E943E1920E030E040E753E42CCF10E0A4
:100B000000E034CF053B110508F454CFB80190E064
:100B100080E00E94D7176B017C01045B1109B801CA
:100B200090E080E00E94D7172DEC3CEC4CEC5EE3AB
:100B30000E943E199B01AC01C701B6010E948816B4
:100B400036CF2F923F924F925F926F927F928F9209
:100B50009F92AF92BF92CF92DF92EF92FF920F934C
:100B60001F93CF93DF93CDB7DEB72A97CDBFDEBFFC
:100B70008B01FB01808091806481758190E080E031
:100B80000E94D71720E030E048EC52E40E94FA16A9
:100B90002B013C01F8016281738190E080E00E94AA
:100BA000D71720E030E048EC52E40E94FA16A30187
:100BB00092010E943E197B018C01B40190E080E01B
:100BC0000E94D71720E030E040E752E40E94FA1676
:100BD00020E030E040E050E40E945D1820E030E08A
:100BE00040E85FE30E9488169B01AC015F7760E0FC
:100BF00070E080E89FE30E9488169701A8010E9498
:100C00003E195B016C01362E2B2C8987DA86970101
:100C1000A801C301B2010E9488162B013C01FCE32C
:100C20008F169104E8F088E788169104F8F0E4EB59
:100C30008E16910408F470C0F0EF8F16910408F43A
:100C400072C08CE2881681E0980608F471C0150124
:100C5000460157016801E12CF12C00E010E00AC0C8
:100C600057016801E32CF22C09851A85212C312CBF
:100C7000812C912CA3019201B501C6010E94891615
:100C800020E030E04FE753E40E943E190E94A8178D
:100C9000D62E6B837C83A3019201B701C8010E9409
:100CA000891620E030E04FE753E40E943E190E948D
:100CB000A817162F6D837E83A3019201B101C40191
:100CC0000E94891620E030E04FE753E40E943E196D
:100CD0000E94A817862F262F372F2F833887298128
:100CE0003A814D2D5C81612F7E8198852A96CDBFFA
:100CF000DEBFDF91CF911F910F91FF90EF90DF90BA
:100D0000CF90BF90AF909F908F907F906F905F90AB
:100D10004F903F902F90089515014601A12CB12CC2
:100D2000C12CD12CA7CF1701480175018601F6CF40
:100D30001701480190CF422BFB01418382E0808361
:100D4000089581E090E08093AE219093AF2180934D
:100D5000AC219093AD218093AA219093AB21109266
:100D60009021109291216130F9F0662341F06230B8
:100D700009F180EE809380018093810120C080EE94
:100D80008093800110928101109282018BE390E0A8
:100D90008093260A9093270A84E08093000A109299
:100DA000010A1092060A08951092800180EE809345
:100DB0008101EACF109280011092810180EE809330
:100DC0008201E4CFE0E0FAE01082168208950F93EA
:100DD0001F93FC01E61BF70B021B110BE09FC001E8
:100DE000E19F900DF09F900D1124FA01E61BF70B87
:100DF000BF010E946515822F860F1F910F910895E4
:100E00008F929F92AF92BF92CF92DF92EF92FF921A
:100E10000F931F93CF93DF934A015B01D22FC32F10
:100E200098014D2F5C2FB401C5010E94391996011C
:100E3000A7011816BCF4B401C5010E94391918168F
:100E400014F464017501B601C701DF91CF911F91C0
:100E50000F91FF90EF90DF90CF90BF90AF909F9059
:100E60008F900895B8018D2F9C2F0E943919181664
:100E700054F76801ED2EFC2EE6CF8F929F92AF9231
:100E8000BF92CF92DF92EF92FF920F931F93CF9377
:100E9000DF934A015B01D22FC32F98014D2F5C2FA6
:100EA000B401C5010E94F5169601A70187FF17C07E
:100EB000B401C5010E94F51687FF02C064017501E7
:100EC000B601C701DF91CF911F910F91FF90EF9075
:100ED000DF90CF90BF90AF909F908F900895B80112
:100EE0008D2F9C2F0E94F51687FFEACF6801ED2E0B
:100EF000FC2EE6CFDC011296ED91FC91638382819A
:100F000087FFFDCF83810895CF93DF93EC01888124
:100F10009981803826E09207D1F480E1809385069C
:100F200060E0CE010E947A0760E0CE010E947A075D
:100F3000E881F98188E085838683E03886E0F807D8
:100F400069F480E180938606DF91CF910895803621
:100F5000964031F780E180936506E2CFE036F640B7
:100F600099F780E180936606EFCFEF920F931F937E
:100F7000CF93DF93EC01FB01688379834A835B8322
:100F80002C833D830E831F8388EB818380E48283DF
:100F900088E0858380EDDA018C93EE2019F0868558
:100FA00080628687CE010E948407EC81FD818FE0FC
:100FB0008283EE81FF818DE081A392E090A381E0A6
:100FC00082A325E121A790A782A72DE121AB90ABB9
:100FD00082AB20E1218312829483808383E8838320
:100FE00080EE8093800180938101809382018091C3
:100FF000A20081608093A2007894DF91CF911F912D
:101000000F91EF9008951F93CF93DF93EC01162F6C
:1010100088819981803826E09207D9F480E1809315
:101020008506612FCE010E947A07612FCE010E94B2
:101030007A07E881F98188E085838683E03886E055
:10104000F80771F480E180938606DF91CF911F91BC
:1010500008958036964029F780E180936506E1CFB8
:10106000E036F64091F780E180936606EECF2F924E
:101070003F924F925F926F927F928F929F92AF9228
:10108000BF92CF92DF92EF92FF920F931F93CF9375
:10109000DF93CDB7DEB7AB97CDBFDEBF1C0180912C
:1010A0000E2090910F20A09110208B8F9C8FAD8FE0
:1010B00089E990E29F938F930E94241AC1010E94B4
:1010C000840785EA90E29F938F930E94241A8E01F1
:1010D000015F1F4F08A319A30F900F900F900F905F
:1010E0002801712C612C662DC1010E94A1068091FE
:1010F000902190919121C297D0F31092000A109202
:10110000060A830133E0000F111F3A95E1F7F80159
:10111000EE56FE4D2081318142815381648175817B
:1011200086819781A0E00E947C1694F42081318111
:101130004281538164817581868197810E941D1649
:1011400020833183428353836483758386839783AB
:10115000C0909021D0909121C8018E569E4D4C0197
:10116000DC01FC911196EC91119712964C9112971B
:1011700013965C91139714966C91149715967C9125
:10118000159716968C91169717969C915601C12C1F
:10119000D12CE12CF12C00E010E02F2F3E2F0E94EB
:1011A0008F15F401208331834283538364837583D5
:1011B0008683978380819181228133814481558107
:1011C000668177817F936F935F934F933F932F93C4
:1011D0009F938F9320EBA22E20E2B22EBF92AF926C
:1011E0000E94241AD4013C9111962C9111971296C9
:1011F0008C91129713968C91139714968C91149747
:1012000015968C91159716968C91169717968C912A
:10121000832F922FF201819391932F01FFEF6F1A89
:101220007F0ACDBFDEBF13E06116710409F05BCF0A
:1012300085EB90E29F938F930E94241ACE014B96E8
:101240008AA39BA32E0195E1490E511C0F900F908C
:101250004E8E5F8E712C612CAAA1BBA16D91AAA3A9
:10126000BBA3C1010E940308662DC1010E94A10613
:101270008091902190919121C297D0F31092000A11
:101280001092060A830193E0000F111F9A95E1F76F
:10129000F801EE56FE4D20813181428153816481F7
:1012A000758186819781A0E00E947C1694F420814C
:1012B00031814281538164817581868197810E9449
:1012C0001D16208331834283538364837583868311
:1012D0009783C0909021D0909121F801EE56FE4D59
:1012E0004F01F081D4011196EC91119712964C9117
:1012F000129713965C91139714966C911497159608
:101300007C91159716968C91169717969C9156017D
:10131000C12CD12CE12CF12C00E010E02F2F3E2F1E
:101320000E948F15F40120833183428353836483A9
:101330007583868397838081918122813381448163
:101340005581668177817F936F935F934F933F932E
:101350002F939F938F9380EBA82E80E2B82EBF929D
:10136000AF920E94241AD4012C9111963C911197AE
:1013700012964C91129713965C91139714966C9158
:10138000149715967C91159716968C91169717962B
:101390009C91A8A1B9A1ED91FD91A8A3B9A35F016A
:1013A000D12CC12CE12CF12C8701ECA3BDA2CEA243
:1013B000DFA2E8A6F9A60AA71BA7CDBFDEBFC12CF6
:1013C000D12CE12CF12C00E010E00E9473160CF0FF
:1013D0005FC0AE8DBF8D1D921C92FFEF6F1A7F0A0A
:1013E0000E8D1F8D0E5F1F4F0E8F1F8F13E0611626
:1013F000710409F031CF8AE090E00E94381AC101EF
:101400000E9484078E01075F1F4F420126E0820E73
:10141000911CD2016D917D912D0190E080E00E94A0
:10142000D71720E030E844ED54E40E94FA1620E09B
:1014300030E04FE753E40E943E190E94A817F801DC
:10144000619371938F014814590419F76B852C85AA
:101450008D859E8549853A853C832E8329813A81F5
:101460005C817E81AB96CDBFDEBFDF91CF911F91B6
:101470000F91FF90EF90DF90CF90BF90AF909F9033
:101480008F907F906F905F904F903F902F90089536
:10149000D4010C9111961C91119712962C911297D0
:1014A00013963C91139714964C91149715965C9152
:1014B000159716966C91169717967C910E1B1F0B1D
:1014C000EE8DFF8D0083118388CF0F920FB60F92A0
:1014D0001F9211248F928BB68F929F92AF92BF92E0
:1014E000CF92DF92EF92FF920F931F932F933F9330
:1014F0004F935F936F937F938F939F93AF93BF931C
:10150000EF93FF938091AE219091AF21019751F518
:101510001092CD211092CB211092CC211092AE21AD
:101520001092AF2110929221109293211092942147
:101530001092952110929621109297211092982145
:101540001092992120912402309125028091CB2183
:101550009091CC21820F931F8093CB219093CC212B
:1015600085E013C08091CB219091CC212091CD2199
:1015700020FFE8CF2091240230912502821B930B9B
:101580008093CB219093CC218DE080932102809198
:10159000CD218F5F8093CD218A3009F05BC080918F
:1015A000CB219091CC216AE070E00E947915CB01AB
:1015B000770FAA0BBB0B8093B8219093B921A0930E
:1015C000BA21B093BB218091B8219091B921A0910B
:1015D000BA21B091BB21F0919221E0919321C0906A
:1015E0009421D0909521E0909621F0909721009140
:1015F0009821109199214C015D01BB0C8808982C11
:1016000054019C01AD01682D782D882D982DAF2EA9
:10161000BE2E0E945E162093922130939321409318
:1016200094215093952160939621709397218093F4
:101630009821909399211092CB211092CC21109255
:10164000CD218091902190919121019680939021BC
:1016500090939121FF91EF91BF91AF919F918F91C5
:101660007F916F915F914F913F912F911F910F91BA
:10167000FF90EF90DF90CF90BF90AF909F908F90B2
:101680008BBE8F901F900F900FBE0F9018950F92EA
:101690000FB60F921F9211248F928BB68F929F924A
:1016A000AF92BF92CF92DF92EF92FF920F931F9370
:1016B0002F933F934F935F936F937F938F939F935A
:1016C000AF93BF93EF93FF938091AC219091AD21A5
:1016D000019751F51092CA211092C8211092C92188
:1016E0001092AC211092AD2110929A2110929B2160
:1016F00010929C2110929D2110929E2110929F2168
:101700001092A0211092A12120912C0230912D0243
:101710008091C8219091C921820F931F8093C82185
:101720009093C92187E013C08091C8219091C9216D
:101730002091CA2120FFE8CF20912C0230912D0268
:10174000821B930B8093C8219093C92185E18093DC
:1017500029028091CA218F5F8093CA218A3009F0C3
:101760005BC08091C8219091C9216AE070E00E941D
:101770007915CB01770FAA0BBB0B8093B421909303
:10178000B521A093B621B093B7218091B421909157
:10179000B521A091B621B091B721F0919A21E091A5
:1017A0009B21C0909C21D0909D21E0909E21F090A3
:1017B0009F210091A0211091A1214C015D01BB0C42
:1017C0008808982C54019C01AD01682D782D882D36
:1017D000982DAF2EBE2E0E945E1620939A21309334
:1017E0009B2140939C2150939D2160939E21709357
:1017F0009F218093A0219093A1211092C821109243
:10180000C9211092CA218091902190919121019635
:101810008093902190939121FF91EF91BF91AF918F
:101820009F918F917F916F915F914F913F912F91F8
:101830001F910F91FF90EF90DF90CF90BF90AF90EE
:101840009F908F908BBE8F901F900F900FBE0F9028
:1018500018950F920FB60F921F9211248F928BB68C
:101860008F929F92AF92BF92CF92DF92EF92FF92B0
:101870000F931F932F933F934F935F936F937F9398
:101880008F939F93AF93BF93EF93FF938091AA2180
:101890009091AB21019751F51092C7211092C5216B
:1018A0001092C6211092AA211092AB211092A2216F
:1018B0001092A3211092A4211092A5211092A6218A
:1018C0001092A7211092A8211092A92120913402F0
:1018D000309135028091C5219091C621820F931FCE
:1018E0008093C5219093C62187E013C08091C521C4
:1018F0009091C6212091C72120FFE8CF209134028A
:1019000030913502821B930B8093C5219093C621A1
:101910008DE1809331028091C7218F5F8093C72131
:101920008A3009F05BC08091C5219091C6216AE0A0
:1019300070E00E947915CB01770FAA0BBB0B809347
:10194000B0219093B121A093B221B093B3218091A3
:10195000B0219091B121A091B221B091B321F09129
:10196000A221E091A321C090A421D090A521E090D4
:10197000A621F090A7210091A8211091A9214C0146
:101980005D01BB0C8808982C54019C01AD01682DA9
:10199000782D882D982DAF2EBE2E0E945E16209396
:1019A000A2213093A3214093A4215093A5216093B9
:1019B000A6217093A7218093A8219093A92110922A
:1019C000C5211092C6211092C7218091902190913B
:1019D000912101968093902190939121FF91EF9115
:1019E000BF91AF919F918F917F916F915F914F9137
:1019F0003F912F911F910F91FF90EF90DF90CF902B
:101A0000BF90AF909F908F908BBE8F901F900F9044
:101A10000FBE0F9018950F920FB60F921F921124C0
:101A20008F928BB68F929F92AF92BF92CF92DF929E
:101A3000EF92FF920F931F932F933F934F935F93D8
:101A40006F937F938F939F93AF93BF93EF93FF9386
:101A50008091AE219091AF21019751F51092C42150
:101A60001092C2211092C3211092AE211092AF2188
:101A7000109292211092932110929421109295210C
:101A800010929621109297211092982110929921EC
:101A900020916402309165028091C2219091C3210E
:101AA000820F931F8093C2219093C32181E013C0C2
:101AB0008091C2219091C3212091C42120FFE8CFC1
:101AC0002091640230916502821B930B8093C221A6
:101AD0009093C32188E0809361028091C4218F5F3D
:101AE0008093C4218A3009F05BC08091C22190911B
:101AF000C3216AE070E00E947915CB01770FAA0B31
:101B0000BB0B8093B8219093B921A093BA21B093D5
:101B1000BB218091B8219091B921A091BA21B091B7
:101B2000BB21F0919221E0919321C0909421D0901B
:101B30009521E0909621F0909721009198211091A5
:101B400099214C015D01BB0C8808982C54019C0123
:101B5000AD01682D782D882D982DAF2EBE2E0E94B8
:101B60005E162093922130939321409394215093B9
:101B7000952160939621709397218093982190935B
:101B800099211092C2211092C3211092C4218091F8
:101B90009021909191210196809390219093912191
:101BA000FF91EF91BF91AF919F918F917F916F9135
:101BB0005F914F913F912F911F910F91FF90EF9067
:101BC000DF90CF90BF90AF909F908F908BBE8F9003
:101BD0001F900F900FBE0F9018950F920FB60F9297
:101BE0001F9211248F928BB68F929F92AF92BF92C9
:101BF000CF92DF92EF92FF920F931F932F933F9319
:101C00004F935F936F937F938F939F93AF93BF9304
:101C1000EF93FF938091AC219091AD21019751F505
:101C20001092C1211092BF211092C0211092AC21BC
:101C30001092AD2110929A2110929B2110929C211A
:101C400010929D2110929E2110929F211092A0210E
:101C50001092A12120916C0230916D028091BF21E0
:101C60009091C021820F931F8093BF219093C02138
:101C700082E013C08091BF219091C0212091C121A9
:101C800020FFE8CF20916C0230916D02821B930BF4
:101C90008093BF219093C02180E18093690280915D
:101CA000C1218F5F8093C1218A3009F05BC0809190
:101CB000BF219091C0216AE070E00E947915CB01AC
:101CC000770FAA0BBB0B8093B4219093B521A093FF
:101CD000B621B093B7218091B4219091B521A09104
:101CE000B621B091B721F0919A21E0919B21C0904B
:101CF0009C21D0909D21E0909E21F0909F21009109
:101D0000A0211091A1214C015D01BB0C8808982CE9
:101D100054019C01AD01682D782D882D982DAF2E92
:101D2000BE2E0E945E1620939A2130939B214093F1
:101D30009C2150939D2160939E2170939F218093BD
:101D4000A0219093A1211092BF211092C021109246
:101D5000C1218091902190919121019680939021B1
:101D600090939121FF91EF91BF91AF919F918F91AE
:101D70007F916F915F914F913F912F911F910F91A3
:101D8000FF90EF90DF90CF90BF90AF909F908F909B
:101D90008BBE8F901F900F900FBE0F9018950F92D3
:101DA0000FB60F921F9211248F928BB68F929F9233
:101DB000AF92BF92CF92DF92EF92FF920F931F9359
:101DC0002F933F934F935F936F937F938F939F9343
:101DD000AF93BF93EF93FF938091AA219091AB2192
:101DE000019751F51092BE211092BC211092BD2195
:101DF0001092AA211092AB211092A2211092A3213D
:101E00001092A4211092A5211092A6211092A72130
:101E10001092A8211092A92120917402309175028C
:101E20008091BC219091BD21820F931F8093BC2192
:101E30009093BD2183E013C08091BC219091BD217E
:101E40002091BE2120FFE8CF2091740230917502CD
:101E5000821B930B8093BC219093BD2188E18093DA
:101E600071028091BE218F5F8093BE218A3009F07C
:101E70005BC08091BC219091BD216AE070E00E941E
:101E80007915CB01770FAA0BBB0B8093B0219093F0
:101E9000B121A093B221B093B3218091B021909150
:101EA000B121A091B221B091B321F091A221E09192
:101EB000A321C090A421D090A521E090A621F0906C
:101EC000A7210091A8211091A9214C015D01BB0C13
:101ED0008808982C54019C01AD01682D782D882D1F
:101EE000982DAF2EBE2E0E945E162093A221309315
:101EF000A3214093A4215093A5216093A621709320
:101F0000A7218093A8219093A9211092BC2110921F
:101F1000BD211092BE218091902190919121019636
:101F20008093902190939121FF91EF91BF91AF9178
:101F30009F918F917F916F915F914F913F912F91E1
:101F40001F910F91FF90EF90DF90CF90BF90AF90D7
:101F50009F908F908BBE8F901F900F900FBE0F9011
:101F60001895FC0180E991E08083918312821382AD
:101F7000148215821682178210861186A0E6B6E0BA
:101F8000A287B38792E0958781E084871092CE2163
:101F90001092CF211092D0211092D1211092D221F3
:101FA0001092D3211092D4211092D52112969C9395
:101FB000129711968C93E0EAF0E08281816082832F
:101FC00078940895EF92FF920F931F93FC01608322
:101FD0007183E282F38204831583268337834087EB
:101FE0005187A0E6B6E0A287B38792E0958781E0AB
:101FF00084871092CE211092CF211092D02110927E
:10200000D1211092D2211092D3211092D42110927A
:10201000D52112969C93129711968C93E0EAF0E0EA
:1020200082818160828378941F910F91FF90EF905D
:102030000895FC0180E991E08083918312821382EC
:102040001482158216821782108611866287738722
:10205000258744871092CE211092CF211092D02153
:102060001092D1211092D2211092D3211092D4211A
:102070001092D52182E0FB01828381E08183E0EA36
:10208000F0E0828181608283789408958F92AF928C
:10209000CF92DF92EF92FF920F931F93CF93DF9334
:1020A000CDB7DEB7FC01D60160837183E282F38293
:1020B000048315832683378340875187C286D3865E
:1020C0008586A4861092CE211092CF211092D02125
:1020D0001092D1211092D2211092D3211092D421AA
:1020E0001092D52112968C9212971196AC92E0EA3A
:1020F000F0E08281816082837894DF91CF911F919B
:102100000F91FF90EF90DF90CF90AF908F90089558
:10211000E0E4FAE08FE190E086A397A381E080837A
:10212000118286830895E0E4FAE010821682089511
:102130002F923F924F925F926F927F928F929F92D7
:10214000AF92BF92CF92DF92EF92FF920F931F93C5
:10215000CF93DF93CDB7DEB72D97CDBFDEBF1C0188
:10216000CB01BA0121EC3CE24EE758E30E943E1954
:1021700023E533EB47E05DE30E9489166E837F839E
:1021800088879987D1016D917C9190E080E00E94D1
:10219000D71720E030E040E250E40E943E192E8143
:1021A0003F81488559850E94FA160E9471173901AE
:1021B0004A016B877A872C01F101F281F983D10101
:1021C0001396BC91BA83F101B481F581FC87F101CA
:1021D000F681FD87F101F781FB83F101F085FC8336
:1021E000F101F185FD8329813A814B2F5C856D8555
:1021F0007B818C819F2FA0E00E947C16B1F093011F
:10220000A4016B857A85C201A980BA80CB2EDC84BB
:10221000ED84FB800C811F2F0E94731630F4350172
:102220008B2E9D2CEB86FA862801D1011A96ED9112
:10223000FC911B971C968C911C978683EFE3F1E031
:102240003197F1F700C000001A96ED91FC911B97B1
:102250001C968C911C978583EFE7FEE33197F1F78D
:1022600000C000001A96ED91FC911B971C968C9172
:1022700086831092CE211092CF211092D0211092FD
:10228000D1211092D2211092D3211092D4211092F8
:10229000D5210E948810F1018585883009F4AFC1ED
:1022A00008F055C0823009F416C1843009F45DC1CC
:1022B000813009F054C00284F385E02D808580FDD3
:1022C00018C02091CE213091CF214091D021509142
:1022D000D1216091D2217091D3218091D42190910C
:1022E000D52153016401EB84FA8482010E947316A4
:1022F00028F31092CE211092CF211092D02110926B
:10230000D1211092D2211092D3211092D421109277
:10231000D521808580FF18C02091CE213091CF211A
:102320004091D0215091D1216091D2217091D3213F
:102330008091D4219091D52153016401EB84FA84DA
:1023400082010E94731628F30E94931008C0803205
:1023500009F4E9C108F06FC0803109F49AC12091F5
:10236000CE213091CF214091D0215091D121609147
:10237000D2217091D3218091D4219091D521530104
:102380006401EB84FA8482010E94731608F05FC234
:102390002091CE213091CF214091D0215091D12157
:1023A0006091D2217091D3218091D4219091D52137
:1023B0000E94141820E030E040E05FE30E943E19E4
:1023C0002E813F81488559850E943E1926E636E6D2
:1023D00046E650E40E943E192B013C0120E030E02B
:1023E000A9010E94F516882309F43AC2F10160811F
:1023F000718190E080E00E94D717A30192010E94B2
:10240000F51687FD2DC2C301B2012D96CDBFDEBFEB
:10241000DF91CF911F910F91FF90EF90DF90CF90C0
:10242000BF90AF909F908F907F906F905F904F90F4
:102430003F902F900895803409F4BFC1803809F08F
:102440008ECF0284F385E02D808587FD18C0209112
:10245000CE213091CF214091D0215091D121609156
:10246000D2217091D3218091D4219091D521530113
:102470006401EB84FA8482010E94731628F310929F
:10248000CE211092CF211092D0211092D121109202
:10249000D2211092D3211092D4211092D52180857F
:1024A00087FF52CF2091CE213091CF214091D02172
:1024B0005091D1216091D2217091D3218091D4216A
:1024C0009091D52153016401EB84FA8482010E942A
:1024D000731628F339CF0284F385E02D808581FDC2
:1024E00018C02091CE213091CF214091D021509120
:1024F000D1216091D2217091D3218091D4219091EA
:10250000D52153016401EB84FA8482010E94731681
:1025100028F31092CE211092CF211092D021109248
:10252000D1211092D2211092D3211092D421109255
:10253000D521808581FF08CF2091CE213091CF21F8
:102540004091D0215091D1216091D2217091D3211D
:102550008091D4219091D52153016401EB84FA84B8
:1025600082010E94731628F3EFCE0284F385E02DDA
:10257000808582FD18C02091CE213091CF214091DD
:10258000D0215091D1216091D2217091D32180919D
:10259000D4219091D52153016401EB84FA84820106
:1025A0000E94731628F31092CE211092CF21109220
:1025B000D0211092D1211092D2211092D3211092C9
:1025C000D4211092D521808582FFBECE2091CE21CC
:1025D0003091CF214091D0215091D1216091D221D1
:1025E0007091D3218091D4219091D5215301640120
:1025F000EB84FA8482010E94731628F3A5CE02842C
:10260000F385E02D808583FD18C02091CE21309187
:10261000CF214091D0215091D1216091D221709150
:10262000D3218091D4219091D52153016401EB8471
:10263000FA8482010E94731628F31092CE21109220
:10264000CF211092D0211092D1211092D22110923C
:10265000D3211092D4211092D521808583FF74CE8E
:102660002091CE213091CF214091D0215091D12184
:102670006091D2217091D3218091D4219091D52164
:1026800053016401EB84FA8482010E94731628F3DB
:102690005BCE0284F385E02D808584FD18C02091F7
:1026A000CE213091CF214091D0215091D121609104
:1026B000D2217091D3218091D4219091D5215301C1
:1026C0006401EB84FA8482010E94731628F310924D
:1026D000CE211092CF211092D0211092D1211092B0
:1026E000D2211092D3211092D4211092D52180852D
:1026F00084FF2ACE2091CE213091CF214091D0214C
:102700005091D1216091D2217091D3218091D42117
:102710009091D52153016401EB84FA8482010E94D7
:10272000731628F311CE0284F385E02D808585FD94
:1027300018C02091CE213091CF214091D0215091CD
:10274000D1216091D2217091D3218091D421909197
:10275000D52153016401EB84FA8482010E9473162F
:1027600028F31092CE211092CF211092D0211092F6
:10277000D1211092D2211092D3211092D421109203
:10278000D521808585FFE0CD2091CE213091CF21CC
:102790004091D0215091D1216091D2217091D321CB
:1027A0008091D4219091D52153016401EB84FA8466
:1027B00082010E94731628F3C7CD0284F385E02DB1
:1027C000808586FD18C02091CE213091CF21409187
:1027D000D0215091D1216091D2217091D32180914B
:1027E000D4219091D52153016401EB84FA848201B4
:1027F0000E94731628F31092CE211092CF211092CE
:10280000D0211092D1211092D2211092D321109276
:10281000D4211092D521808586FF96CD2091CE219E
:102820003091CF214091D0215091D1216091D2217E
:102830007091D3218091D4219091D52153016401CD
:10284000EB84FA8482010E94731628F37DCD20E088
:1028500030E040E050E060E070E080E090E0A8CD43
:10286000412C512C3201CFCD0F920FB60F921F92F7
:1028700011242F933F934F935F936F937F938F9385
:102880009F93AF932091CE213091CF214091D021C1
:102890005091D1216091D2217091D3218091D42186
:1028A0009091D521A1E00E9467162093CE2130930C
:1028B000CF214093D0215093D1216093D2217093A6
:1028C000D3218093D4219093D521AF919F918F9163
:1028D0007F916F915F914F913F912F911F900F903A
:1028E0000FBE0F901895CDB7DEB76797CDBFDEBF8F
:1028F00083E58F8B0E943C0160E078E488EE91E0F4
:102900000E94C002E12C00E012E020E036E040EC42
:102910005AE060E876E0CE0109960E94B507789407
:102920006E0127E1C20ED11C81E1A82E80E2B82EF3
:1029300091E5E92E90E2F92E0BE610E22AE0922EC4
:102940000E940503882351F0DF92CF92BF92AF928D
:102950000E946A1A0F900F900F900F908F89833505
:1029600079F7CE0109960E94370829833A834B8371
:102970005C836D837E838F839887BE016F5F7F4FFB
:10298000CE0109960E94F303298B3A8B4B8B5C8B0B
:102990006D8B7E8B8B899C890A9708F03FC084E100
:1029A00090E20E943E1A8E898F938D898F938C8935
:1029B0008F938B898F938A898F9389898F93FF92C5
:1029C000EF920E94241A8A818F9389818F93888540
:1029D0008F938F818F938E818F938D818F938C8135
:1029E0008F938B818F931F930F930E94241ABE01A4
:1029F0006F5E7F4FCE0109960E94A10529833A831D
:102A00004B835C836D837E838F839887CE01019691
:102A10000E94C5039F8ACDBFDEBFA0CF89899A8956
:102A2000459720F48BE190E20E943E1A89899A89A9
:102A30004597449720F480E290E20E943E1A8989EB
:102A40009A898997839720F488E290E20E943E1A3F
:102A500089899A898C5491098134910520F480E305
:102A600090E20E943E1A89899A898D58910985358C
:102A7000910520F487E390E20E943E1A89899A89A1
:102A8000825E9109839720F48DE390E20E943E1AC2
:102A900089899A89855091404E9720F483E490E289
:102AA0000E943E1A89899A8983529140889720F41E
:102AB0008BE490E20E943E1A89899A898B34914076
:102AC00008F471CF8BE190E26CCFAA1BBB1B51E1E4
:102AD00007C0AA1FBB1FA617B70710F0A61BB70B8E
:102AE000881F991F5A95A9F780959095BC01CD0133
:102AF000089597FB072E16F4009407D077FD09D0B0
:102B00000E94651507FC05D03EF4909581959F4F76
:102B10000895709561957F4F0895689401C0E89479
:102B2000F92FF12B12F00C94C115A0E0B0E0EBE905
:102B3000F5E10C943316092E059422F40E941D161B
:102B4000112392F4F0E80F26FFEFE094F094009543
:102B50001095B094C094D094A194BF0ACF0ADF0A14
:102B6000EF0AFF0A0F0B1F0B0E94CC1507FC0E94F7
:102B70001D16CDB7DEB7ECE00C944C16689401C07E
:102B8000E8948F929F92CF93DF930E94CC15DF91B0
:102B9000CF919F908F90089588249924F401E401A7
:102BA000B0E49F93AA279A158B049C04ED05FE05BB
:102BB000CF05D007A10798F4AD2FDC2FCF2FFE2F24
:102BC000E92D982C892E982F872F762F652F542F3B
:102BD000432F322F2227B85031F7BF9127C01B2E29
:102BE000BF91BB27220F331F441F551F661F771F3E
:102BF000881F991F881C991CEE1FFF1FCC1FDD1F0B
:102C0000AA1FBB1F8A149B04EC05FD05CE05DF053A
:102C1000A007B10748F08A189B08EC09FD09CE0906
:102C2000DF09A00BB10B21601A94E1F62EF4940198
:102C3000AF01BE01CD01000C08956095709580959F
:102C4000909530954095509521953F4F4F4F5F4F50
:102C50006F4F7F4F8F4F9F4F08952F923F924F920C
:102C60005F926F927F928F929F92AF92BF92CF921C
:102C7000DF92EF92FF920F931F93CF93DF93CDB725
:102C8000DEB7CA1BDB0BCDBFDEBF19942A8839889B
:102C900048885F846E847D848C849B84AA84B984F4
:102CA000C884DF80EE80FD800C811B81AA81B98100
:102CB000CE0FD11DCDBFDEBFED0108952A0D3B1D06
:102CC0004C1D5D1D6E1D7F1D801F911F08950024EA
:102CD000A7FD00942A0F301D401D501D601D701D62
:102CE000801D901D08952A153B054C055D056E0558
:102CF0007F058007910708950024A7FD00942A17F7
:102D00003005400550056005700580059005089563
:102D10005058BB27AA270E94A0160C94FF180E94A7
:102D2000F11838F00E94F81820F039F49F3F19F498
:102D300026F40C94DE180EF4E095E7FB0C94CA1808
:102D4000E92F0E94101958F3BA1762077307840716
:102D5000950720F079F4A6F50C9432190EF4E0955D
:102D60000B2EBA2FA02D0B01B90190010C01CA0145
:102D7000A0011124FF27591B99F0593F50F4503EF0
:102D800068F11A16F040A22F232F342F4427585FE2
:102D9000F3CF469537952795A795F0405395C9F7FA
:102DA0007EF41F16BA0B620B730B840BBAF09150B2
:102DB000A1F0FF0FBB1F661F771F881FC2F70EC051
:102DC000BA0F621F731F841F48F487957795679524
:102DD000B795F7959E3F08F0B0CF9395880F08F010
:102DE0009927EE0F9795879508950E94A61808F4E5
:102DF00081E008950E940E170C94FF180E94F818A5
:102E000058F00E94F11840F029F45F3F29F00C942B
:102E1000CA1851110C9433190C94DE180E94101921
:102E200068F39923B1F3552391F3951B550BBB27F9
:102E3000AA2762177307840738F09F5F5F4F220F3E
:102E4000331F441FAA1FA9F335D00E2E3AF0E0E835
:102E500032D091505040E695001CCAF72BD0FE2F7F
:102E600029D0660F771F881FBB1F26173707480713
:102E7000AB07B0E809F0BB0B802DBF01FF279358CB
:102E80005F4F3AF09E3F510578F00C94CA180C94AD
:102E900033195F3FE4F3983ED4F3869577956795B1
:102EA000B795F7959F5FC9F7880F911D9695879500
:102EB00097F90895E1E0660F771F881FBB1F62171F
:102EC00073078407BA0720F0621B730B840BBA0BDD
:102ED000EE1F88F7E0950895BEE304D008F490E86B
:102EE0000895BFE322273327A9010E94181960F132
:102EF0009F5748F1B91740F1BFE3B91B9927B85064
:102F00003AF4660F771F881F991FB395D2F316C046
:102F1000B8504AF0232F342F452F562F672F782F84
:102F20008827B850BAF7B85F49F0869577956795C6
:102F30005795479537952795BA95B9F716F40E9496
:102F4000E11888940895889460E070E0CB010895BA
:102F50000E94181988F09F5798F0B92F9927B751F8
:102F6000B0F0E1F0660F771F881F991F1AF0BA952D
:102F7000C9F714C0B13091F00E943219B1E0089540
:102F80000C943219672F782F8827B85F39F0B93F32
:102F9000CCF3869577956795B395D9F73EF49095E0
:102FA0008095709561957F4F8F4F9F4F0895E8945E
:102FB00009C097FB3EF490958095709561957F4F81
:102FC0008F4F9F4F9923A9F0F92F96E9BB2793952F
:102FD000F695879577956795B795F111F8CFFAF43F
:102FE000BB0F11F460FF1BC06F5F7F4F8F4F9F4F70
:102FF00016C0882311F096E911C0772321F09EE8CE
:10300000872F762F05C0662371F096E8862F70E033
:1030100060E02AF09A95660F771F881FDAF7880F0D
:103020009695879597F90895E894F92F96EBFF23E5
:1030300081F0121613061406440B9395F6958795A6
:103040007795679557954040FF23B9F71BC099279F
:103050000895882351F49850D2F7872B762F652F47
:10306000542F432F322F20E0B1F31216130614060B
:10307000440B88233AF09A95440F551F661F771F1B
:10308000881FCAF755234AF4440F551F11F460FFF7
:1030900004C06F5F7F4F8F4F9F4F880F9695879526
:1030A00097F908950E94F11820F019F00E94F8187D
:1030B00050F40C94DE180C943319E92F0E94101967
:1030C00088F35523B1F3E7FB62177307840795076D
:1030D000A8F189F3E92FFF2788232AF03197660F9B
:1030E000771F881FDAF7952F5527442332F0915028
:1030F0005040220F331F441FD2F7BB27E91BF50BAB
:10310000621B730B840BB109B1F222F4620F731FBF
:10311000841FB11D31972AF0660F771F881FBB1FD0
:10312000EFCF9150504062F041F0882332F0660FAB
:10313000771F881F91505040C1F793950C94D01879
:103140008695779567959F5FD9F7F7CF990F000818
:10315000550FAA0BE0E8FEEF16161706E807F90769
:10316000C0F012161306E407F50798F0621B730B04
:10317000840B950B39F40A2661F0232B242B252B85
:1031800021F408950A2609F4A140A6958FEF811D28
:10319000811D089597F99F6780E870E060E00895C9
:1031A0009F3F31F0915020F4879577956795B795BB
:1031B000880F911D9695879597F908959FEF80EC5C
:1031C00008959095809570956095509540953095AF
:1031D00021953F4F4F4F5F4F6F4F7F4F8F4F9F4F07
:1031E000089500240A94161617061806090608956D
:1031F00000240A9412161306140605060895092ED3
:103200000394000C11F4882352F0BB0F40F4BF2B41
:1032100011F460FF04C06F5F7F4F8F4F9F4F089581
:1032200057FD9058440F551F59F05F3F71F0479577
:10323000880F97FB991F61F09F3F79F0879508955C
:10324000121613061406551FF2CF4695F1DF08C07B
:10325000161617061806991FF1CF86957105610598
:1032600008940895E894BB2766277727CB0197F940
:1032700008950E94A61808F48FEF08950E9451192E
:103280000C94FF180E94F11838F00E94F81820F0F2
:10329000952311F00C94CA180C94DE1811240C9488
:1032A00033190E94101970F3959FC1F3950F50E0E8
:1032B000551F629FF001729FBB27F00DB11D639FE8
:1032C000AA27F00DB11DAA1F649F6627B00DA11D8E
:1032D000661F829F2227B00DA11D621F739FB00D34
:1032E000A11D621F839FA00D611D221F749F3327A4
:1032F000A00D611D231F849F600D211D822F762F3D
:103300006A2F11249F5750409AF0F1F088234AF019
:10331000EE0FFF1FBB1F661F771F881F9150504085
:10332000A9F79E3F510580F00C94CA180C943319EC
:103330005F3FE4F3983ED4F3869577956795B7950C
:10334000F795E7959F5FC1F7FE2B880F911D969526
:10335000879597F908950E941819E8F09E37E8F0CC
:103360009639B8F49E3848F4672F782F8827985FED
:10337000F9CF86957795679593959539D0F3B62FC4
:10338000B1706B0F711D811D20F48795779567953E
:1033900093950C94CF190C94D0180C94331988235E
:1033A00071F4772321F09850872B762F07C066237E
:1033B00011F499270DC09051862B70E060E02AF03F
:1033C0009A95660F771F881FDAF7880F969587956D
:1033D00097F90895CF93DF93EC012B8120FF2FC045
:1033E00026FF0CC02F7B2B838E819F8101968E83BD
:1033F0009F838A8190E0DF91CF91089522FF14C0CE
:10340000E881F9818081082E000C990B20620097D9
:10341000A9F03196E883F9832E813F812F5F3F4FDA
:103420002E833F839927E7CFEA85FB85199597FF80
:10343000F3CF2B81019631F080E2282B2B838FEF85
:103440009FEFD9CF80E1F9CFCF93DF93CDB7DEB730
:10345000AE014A5F5F4FFA0161917191AF018091B6
:10346000D8219091D9210E94961ADF91CF91089589
:103470006091D8217091D9210C944B1F0F931F9309
:10348000CF93DF93E091D821F091D921238110E0EF
:1034900000E021FD0EC00FEF1FEFC801DF91CF91BB
:1034A0001F910F9108951995892B11F00FEF1FEFC0
:1034B000CE01EC0189916091D8217091D921DB0175
:1034C0001896ED91FC918111EECF8AE01995892B28
:1034D00021F3E1CFCF93DF93CDB7DEB7AE014A5FE3
:1034E0005F4FFA0161917191AF018091D621909166
:1034F000D7210E940D1EDF91CF910895FB012381FA
:1035000020FF11C026FD0FC08F3F980771F0828306
:103510002F7D206423832681378121503109268322
:103520003783992708958FEF9FEF08952F923F9249
:103530004F925F926F927F928F929F92AF92BF92C3
:10354000CF92DF92EF92FF920F931F93CF93DF936F
:10355000CDB7DEB72B97CDBFDEBF7C013B018A0123
:10356000FC0116821782838181FFCBC19AE0292E4C
:10357000CE0101965C01F7019381F30193FD8591E2
:1035800093FF81913F01882309F446C1853239F4C4
:1035900093FD859193FF81913F01853229F4B70115
:1035A00090E00E944B1FE7CF912C412C512CFFE162
:1035B000F51538F08B3209F188F4803201F183324D
:1035C00021F157FC3AC020ED280F2A3040F556FE75
:1035D0001FC0929C200D1124922E06C08D3291F0B6
:1035E000803379F7689450F8F30193FD859193FF48
:1035F00081913F018111DBCF20C0689451F868941C
:1036000052F8F2CF689453F8EFCF689454F8ECCFA7
:10361000429C200D1124422E689455F8E5CF8E323D
:1036200029F456FCF9C0689456F8DECF8C3619F4AC
:10363000689457F8D9CF8836B9F2982F9F7D955462
:103640009330C0F08336A1F18337C1F1833509F09F
:103650005BC0F801C190D1908F01692D70E056FCDC
:1036600002C06FEF7FEFC6010E94351F4C016894C6
:1036700057F80AC00C5F1F4F2FE3298388248394D7
:10368000912C6501E89457F853FC04C048141904C0
:1036900009F018F5342C8114910431F5332009F424
:1036A0006ACFB70180E290E00E944B1F3A94F6CFB8
:1036B000F801808189830E5F1F4FE0CFF801C19030
:1036C000D1908F01692D70E056FC02C06FEF7FEF43
:1036D000C6010E94401F4C01D5CFB70180E290E0A7
:1036E0000E944B1F4A94D2CFF60157FC859157FE9A
:1036F00081916F01B70190E00E944B1F31103A9405
:10370000F1E08F1A9108C7CF843619F0893609F095
:1037100074C0F80157FE6AC06191719181919191D5
:103720008F01252D2F76D22E97FF09C09095809579
:10373000709561957F4F8F4F9F4F6894D7F82AE01F
:1037400030E0A5010E947B1FC82ECA188C2C5D2C6E
:10375000D6FE0CC0E89450F8C91440F4D4FE05C05D
:10376000D2FC03C0FD2DFE7E5F2E892C54FEA1C02D
:10377000FE01EC0DF11D8081803309F093C0252DF1
:10378000297E522E852D8870382E53FCA1C050FE04
:103790009BC09C2C841418F44C0C942C981854FE48
:1037A0009DC0B70180E390E00E944B1F52FE09C00C
:1037B00088E790E051FE02C088E590E0B7010E94E2
:1037C0004B1FC91408F496C0CA94D12C9FEFC91A94
:1037D000D90ACA0CDB1CF60182916F01B70190E097
:1037E0000E944B1FAC14BD04B1F758CF6191719189
:1037F000072E000C880B990B93CFD52CE894D4F8A6
:103800002AE030E08537C9F1952D997FD92E8F3682
:1038100091F1D8F4883539F1F701868197812B969B
:10382000CDBFDEBFDF91CF911F910F91FF90EF9041
:10383000DF90CF90BF90AF909F908F907F906F90D0
:103840005F904F903F902F900895803749F08837D0
:1038500019F7D4FE02C06894D2F820E130E00DC020
:103860006894D4F8F6CF54FE03C0E92FE660DE2E4C
:1038700020E132E002C028E030E0F801D7FE0DC0C0
:1038800061917191819191918F01A5010E947B1F9E
:10389000C82ECA18E894D7F859CF6191719190E079
:1038A00080E0F2CF52FC02C083946CCF8394839467
:1038B00069CF852D867809F465CFF6CFB70180E210
:1038C00090E00E944B1F83948414C0F3312C67CF87
:1038D000342C3818841408F462CFF8CF852D8678FC
:1038E00009F46FCF8BE251FE80E257FC8DE2B70105
:1038F00090E065CFB70180E390E00E944B1F9A945F
:1039000060CF8FEF9FEF8BCF20FD09C0FC0123FD1F
:1039100005C022FF02C073836283518340830895F0
:1039200033E044FD10C034E046FD0DC0DB01FC0176
:10393000AA0FBB1FEE1FFF1F1094D1F76A0F7B1F4A
:103940008E1F9F1F31E0660F771F881F991F315010
:10395000D1F7620F711D811D911D08950F931F9363
:10396000CF93DF938C01C8010E94EA19EC0197FD07
:1039700008C00E94211F892BB1F7B801CE010E9417
:103980007E1ACE01DF91CF911F910F9108958F92F2
:103990009F92AF92BF92EF92FF920F931F93CF939C
:1039A000DF938C01D62F7A01B22E0E94EA199C0176
:1039B00033272B32310529F02D323105A9F46894D3
:1039C000B7F8D15061F480E0DF91CF911F910F9152
:1039D000FF90EF90BF90AF909F908F900895C80197
:1039E0000E94EA1997FDEFCFCB2DCD7F2B2D2073B1
:1039F000F9F48033E9F4AA24AA94AD0E89F0C80141
:103A00000E94EA1997FD0CC0282F2F7D283561F4FC
:103A1000C264D25029F0C8010E94EA1997FF08C079
:103A2000812C912C54011BC0B6FE2BC0C260DA2D34
:103A3000812C912C540120ED280F283028F1C4FD51
:103A400009C02A3008F1C6FF05C02F7D3FEE320FB6
:103A50003630C8F0B8010E947E1AC1FFB4CFC7FF4C
:103A600008C0B094A09490948094811C911CA11CD7
:103A7000B11C2C2FB501A401C7010E94841C81E058
:103A8000A3CFC261D4CF27504C2FC501B4010E94EF
:103A9000901C4B015C01C260D15009F3C8010E9427
:103AA000EA1997FFC8CFD9CF8F929F92AF92BF925A
:103AB000CF92DF92EF92FF920F931F93CF93DF93FA
:103AC000CDB7DEB7A097CDBFDEBF5C01962E7A01E1
:103AD000CE0101966C0180E2F60111928A95E9F718
:103AE000F5018380890150E040E0B0E020E0A0E0F3
:103AF00061E070E0F80183FC959183FE9191892F3C
:103B00008F01911113C010E000E0C801A096CDBF55
:103B1000DEBFDF91CF911F910F91FF90EF90DF906B
:103B2000CF90BF90AF909F908F9008959E3519F4DD
:103B30004115510531F1A4171506ECF49D3549F1F5
:103B40009D32C9F4222309F1E82FE695E695E69522
:103B5000EC0DFD2DF11D982F97709B0101C0220FD8
:103B60009A95EAF79081292B20838B1781F08B1788
:103B700030F48F5FE9CF2111E7CFB92FE5CF815026
:103B8000E3CFA1E04F5F5F4FB5CF21E0FBCF20E057
:103B9000F9CF222319F08E8180628E83AA2361F0EF
:103BA000F6019E012F5D3F4FDF018D91809580834F
:103BB000FD01A217B307C1F788248394C5010E94B1
:103BC000EA1997FD16C0E82FE695E695E695EC0D07
:103BD000FD2DF11D208130E0AC014770552702C05A
:103BE000359527954A95E2F720FD06C0B5010E945C
:103BF0007E1A882059F087CFE114F10419F0F701FB
:103C000081937F019A94812C9110D8CFE114F10413
:103C100009F47BCFF701108278CF6F927F928F9259
:103C20009F92AF92BF92CF92DF92EF92FF920F934B
:103C30001F93CF93DF935C01EB01742E652EFC0183
:103C400016821782C12CF501F380FE01F3FC8591E9
:103C5000F3FE8191182FEF018823E9F090E00E9494
:103C6000211F892B21F0C5010E94AE1CECCF15321B
:103C700041F4FE01F3FC1591F3FE1191EF011532B1
:103C800069F4C5010E94EA1997FD8CC01817D9F292
:103C9000B5010E947E1A8C2D90E088C000E01A3297
:103CA00031F4F3FC1591F3FE1191EF0101E0D12CF9
:103CB00020ED210F2A3048F101FF37C0DD2059F3F4
:103CC0001836B1F11C3609F43DC0112321F3612FE0
:103CD00070E088E092E00E942A1F892BE1F2F12C2B
:103CE000E12C00FD06C0E72DF62DE190F1907E2E2F
:103CF0006F2E1E3679F5F5014681578170E060E040
:103D0000202FC7010E94841C9ECF02606D2D70E0A1
:103D100090E080E040E20E94901CD62EFE01F3FC71
:103D20001591F3FE1191EF01C3CFDD24DA94C8CFD2
:103D3000FE01F3FC1591F3FE1191EF01183609F025
:103D4000C4CF08600460FE01F3FC1591F3FE1191ED
:103D5000EF01BBCF1336B1F401FD02C0DD24D394D3
:103D6000C5010E94EA1997FD1DC0E114F10419F084
:103D7000F70181937F01DA94D110F2CF00FD63CF78
:103D8000C39461CF1B3509F59E01A7016D2DC501B7
:103D90000E94541DEC01892B89F7F5018381807302
:103DA00009F479CF8FEF9FEFC11075CFDF91CF91DD
:103DB0001F910F91FF90EF90DF90CF90BF90AF9049
:103DC0009F908F907F906F900895C5010E94AE1CC8
:103DD00097FDE8CF1F3699F130F4143641F01936CB
:103DE00039F0006405C01337A9F01537D1F7006228
:103DF000202FA7016D2DC5010E94C71C8111BECFC8
:103E0000CCCFE114F10419F0F70181927F01DA942B
:103E1000DD2071F0C5010E94EA194C0197FD08C030
:103E20000E94211F892B69F3B501C4010E947E1AEB
:103E3000E114F10409F4A2CFF70110829FCF0061D1
:103E4000D7CF91110C94D91F803219F08950855029
:103E5000C8F70895FC010590061621F00020D9F757
:103E6000C00108953197CF010895FC01059061507C
:103E700070400110D8F7809590958E0F9F1F089580
:103E8000FC016150704001900110D8F78095909529
:103E90008E0F9F1F08950F931F93CF93DF93182FBB
:103EA000092FEB018B8181FD09C01FEF0FEF812FDF
:103EB000902FDF91CF911F910F91089582FF14C031
:103EC0002E813F818C819D81281739073CF4E88140
:103ED000F981CF0101968883998310838E819F8118
:103EE00001968E839F83E3CFE885F985812F19950D
:103EF000892BA1F3DACFFA01AA27283051F120311A
:103F000081F1E8946F936E7F6E5F7F4F8F4F9F4F6D
:103F1000AF4FB1E03ED0B4E03CD0670F781F891FAF
:103F20009A1FA11D680F791F8A1F911DA11D6A0F7D
:103F3000711D811D911DA11D20D009F468943F9130
:103F40002AE0269F11243019305D3193DEF6CF012F
:103F50000895462F4770405D4193B3E00FD0C9F7F5
:103F6000F6CF462F4F70405D4A3318F0495D31FD62
:103F70004052419302D0A9F7EACFB4E0A6959795B5
:103F8000879577956795BA95C9F70097610571058B
:103F900008959B01AC010A2E0694579547953795D5
:103FA0002795BA95C9F7620F731F841F951FA01D2F
:0C3FB0000895992788270895F894FFCF02
:103FBC000000000300000000300223030000112267
:103FCC00442563002057484954450020524544007D
:103FDC00204F52414E4745002059454C4C4F5700FD
:103FEC0020475245454E00204359414E0020424C3B
:103FFC0055450020505552504C45002050494E4BD1
:10400C0000483A20253564207C20533A202535641D
:10401C00207C20563A202535640A004C45445F52DA
:10402C00656420253564207C20477265656E2025EB
:10403C003564207C20426C756520253564207C20FD
:10404C0043616C202535640A001B5B481B5B324ABC
:10405C001B5B334A0044696F646520636F723A00DE
:10406C0025356420000A44696F64652056616C75BF
:04407C0065733A002E
:00000001FF
