:100000000C9402010C9423010C9423010C94230101
:100010000C9423010C9423010C9423010C942301D0
:100020000C9423010C9423010C9423010C942301C0
:100030000C9423010C9423010C9423010C942301B0
:100040000C9423010C9423010C9423010C942301A0
:100050000C9423010C9423010C9423010C94230190
:100060000C9423010C9423010C9423010C94230180
:100070000C9423010C9423010C9423010C94230170
:100080000C9423010C9423010C9423010C94230160
:100090000C9423010C9423010C9423010C94D3029F
:1000A0000C941E030C9469030C94B4030C94230168
:1000B0000C9423010C9423010C9423010C94230130
:1000C0000C9423010C9423010C9423010C94230120
:1000D0000C9423010C9423010C9423010C94230110
:1000E0000C9423010C9423010C9423010C94230100
:1000F0000C9423010C9423010C9423010C942301F0
:100100000C9423010C9423010C9423010C942301DF
:100110000C9423010C9423010C9423010C94F20100
:100120000C943D020C9488020C9423010C9423013E
:100130000C9423010C9423010C9423010C942301AF
:100140000C9423010C9423010C9423010C9423019F
:100150000C9423010C9423010C9423010C9423018F
:100160000C9423010C9423010C9423010C9423017F
:100170000C9423010C9423010C9423010C9423016F
:100180000C9423010C9423010C9423010C9423015F
:100190000C9423010C9423010C9423010C9423014F
:1001A0000C9423010C9423010C9423010C9423013F
:1001B0000C9423010C9423010C9423010C9423012F
:1001C0000C9423010C9423010C9423010C9423011F
:1001D0000C9423010C9423010C9423010C94250608
:1001E0000C9448060C9423010C9423010C942301D5
:1001F0000C9423010C9423010C9423010C9402050C
:100200000C94C80411241FBECFEFCDBFDFE5DEBFC5
:1002100000E00CBF14E2A0E0B0E2EEE3F8E100E0A1
:100220000BBF02C007900D92A63BB107D9F725E29C
:10023000A6EBB4E201C01D92AB3AB207E1F70E940F
:1002400075060C941D0C0C94000080915000826087
:10025000809350008091510081FFFCCF88ED84BFD6
:1002600081E08093400008958BEC80935200809150
:1002700050008860809350008091510083FFFCCF34
:1002800082EC8093550080915000806180935000F3
:100290008091510084FFFCCF88ED84BF84E080937F
:1002A0004000809150008E7F8093500080915000DC
:1002B0008D7F8093500008958BEC80935200809145
:1002C00050008860809350008091510083FFFCCFE4
:1002D00081EC8093550080915000806180935000A4
:1002E0008091510084FFFCCF88ED84BF84E080932F
:1002F0004000809150008E7F80935000809150008C
:100300008D7F809350000895809150008460809389
:1003100050008091510082FFFCCF80915600897F70
:100320008093560080915600809356008091600023
:100330008160809360000895809150008460809374
:1003400050008091510082FFFCCF809156008E7F3B
:1003500080935600809156008093560080916800EB
:10036000816080936800089580915200826080933C
:10037000520080915000886080935000809151001D
:1003800083FFFCCF80915600897F80935600809137
:100390005600826080935600809160008160809357
:1003A000600008958091520082608093520088ED31
:1003B00084BF8091500088608093500080915100EC
:1003C00083FFFCCF809156008E7F809356008091F2
:1003D0005600816080935600809168008160809310
:1003E000680008951F921FB61F9211242F933F9308
:1003F0004F935F938F939F938091CA242091C82439
:100400003091C924409124025091250280FF2DC0D3
:10041000241B350B2093C8243093C9249BE0909370
:1004200021028F5F8093CA248830A9F48091C82468
:100430009091C92497FD079633E0959587953A9555
:10044000E1F78093D7249093D8241092C824109277
:10045000C9241092CA249F918F915F914F913F912F
:100460002F911F901FBE1F901895240F351F2093AA
:10047000C8243093C92499E1D2CF1F921FB61F928E
:1004800011242F933F934F935F938F939F9380916A
:10049000C7242091C5243091C62440912C0250914C
:1004A0002D0280FF2DC0241B350B2093C5243093D3
:1004B000C62493E2909329028F5F8093C7248830EB
:1004C000A9F48091C5249091C62497FD079633E046
:1004D000959587953A95E1F78093D5249093D62406
:1004E0001092C5241092C6241092C7249F918F9118
:1004F0005F914F913F912F911F901FBE1F901895B4
:10050000240F351F2093C5243093C62498E1D2CF01
:100510001F921FB61F9211242F933F934F935F9307
:100520008F939F938091C4242091C2243091C3243F
:10053000409134025091350280FF2DC0241B350BB1
:100540002093C2243093C32493E3909331028F5FAE
:100550008093C4248830A9F48091C2249091C3244C
:1005600097FD079633E0959587953A95E1F7809347
:10057000D3249093D4241092C2241092C3241092B6
:10058000C4249F918F915F914F913F912F911F9024
:100590001FBE1F901895240F351F2093C22430933F
:1005A000C3249AE1D2CF1F921FB61F9211242F931A
:1005B0003F934F935F938F939F938091C12420919A
:1005C000BF243091C024409164025091650280FFA5
:1005D0002DC0241B350B2093BF243093C02493E0FF
:1005E000909361028F5F8093C1248830A9F4809139
:1005F000BF249091C02497FD079633E09595879589
:100600003A95E1F78093D1249093D2241092BF249D
:100610001092C0241092C1249F918F915F914F91AD
:100620003F912F911F901FBE1F901895240F351FCB
:100630002093BF243093C02498E1D2CF1F921FB6DD
:100640001F9211242F933F934F935F938F939F9308
:100650008091BE242091BC243091BD2440916C0235
:1006600050916D0280FF2DC0241B350B2093BC24BC
:100670003093BD2493E1909369028F5F8093BE24F1
:100680008830A9F48091BC249091BD2497FD0796F1
:1006900033E0959587953A95E1F78093CF24909331
:1006A000D0241092BC241092BD241092BE249F919D
:1006B0008F915F914F913F912F911F901FBE1F907F
:1006C0001895240F351F2093BC243093BD249AE144
:1006D000D2CF1F921FB61F9211242F933F934F9397
:1006E0005F938F939F938091BB242091B924309185
:1006F000BA24409174025091750280FF2DC0241BD2
:10070000350B2093B9243093BA249BE29093710265
:100710008F5F8093BB248830A9F48091B924909195
:10072000BA2497FD079633E0959587953A95E1F7BA
:100730008093CD249093CE241092B9241092BA24A1
:100740001092BB249F918F915F914F913F912F9178
:100750001F901FBE1F901895240F351F2093B9249A
:100760003093BA2499E1D2CF1F921FB61F92112461
:100770002F933F934F935F938F939F938091B824D0
:100780002091B6243091B72440917C0250917D0293
:1007900080FF2DC0241B350B2093B6243093B72443
:1007A0009BE3909379028F5F8093B8248830A9F4FB
:1007B0008091B6249091B72497FD079633E09595E4
:1007C00087953A95E1F78093CB249093CC241092AF
:1007D000B6241092B7241092B8249F918F915F9104
:1007E0004F913F912F911F901FBE1F901895240F7E
:1007F000351F2093B6243093B7249BE1D2CFE0E09D
:10080000FAE087EE93E086A397A386E080831182C7
:1008100016820895E0E8F1E290E880E221913191BA
:100820002130310599F49093850680938506809355
:10083000860622E2E034F20789F780E1809385069C
:100840008093860688E080938606089590938606B6
:10085000ECCF90E89093810680E48093820680E25A
:100860008093810680E18093810688E080938106F1
:10087000909386068093850680E690E290938506A5
:10088000909386068150D1F720E12093850620932E
:1008900086068AE5809302068BE08093210292E02F
:1008A0009093200281E08093220233E23093290268
:1008B0009093280280932A0233E33093310290937D
:1008C0003002809332022093010230E4309302021E
:1008D000909304028093000243E8409303024DEAA0
:1008E0004093220643E0409361029093600280931C
:1008F000620243E1409369029093680280936A0226
:100900004BE24093710290937002809372024BE32A
:10091000409379029093780280937A022093410267
:1009200030934202909344028093400284EC80937F
:1009300043020E940A0480EE80938001809381012B
:1009400080938201809383018091A20081608093D3
:10095000A200089580913E2590913D25891710F0C1
:10096000891B08958C59FCCFCF93C0913D250E94DF
:10097000AA048823E1F3EC2FF0E0E752FB4D8081DD
:10098000CF5FC43608F0C0E0C0933D25CF910895F5
:100990000E94B40490E008952091A42591E0920F64
:1009A0008091A325943610F09DE9920F891710F0DD
:1009B000891B08958C59FCCFCF93DF93C82FD1E2C8
:1009C0000E94CC048823D9F08091A425E82FF0E080
:1009D000E15CFA4DC0838F5F843608F080E090912F
:1009E000A200292F2E7F2093A2008093A42581E2CC
:1009F0008093A30B9093A200DF91CF910895D093A1
:100A0000A30BDECFCF93DF93D82FCFEF0E94CC0480
:100A1000882379F0CC2389F0DA3019F48DE00E9434
:100A2000DC048D2F0E94DC0490E080E0DF91CF9108
:100A30000895CC2311F0C150E9CF81E090E0F6CFCA
:100A40008F929F92AF92BF92CF92DF92EF92FF92DE
:100A5000CF93C42F0E94D70720E030E041EE59E445
:100A60000E9436076B017C018C2F0C2E000C990B19
:100A7000C7FF2FC091958195910961E070E002C098
:100A8000660F771F8A95E2F7072E000C880B990BEB
:100A90000E94D9074B015C0120E030E040E85FE3B1
:100AA000C701B6010E94C9069B01AC01C501B40192
:100AB0000E9465080E94D2080E94A807CB01CF912E
:100AC000FF90EF90DF90CF90BF90AF909F908F906E
:100AD000089561E070E002C0660F771FCA95E2F7E3
:100AE000072E000C880B990B0E94D9079B01AC01C3
:100AF000C701B6010E94360720E030E040E85FE31E
:100B00000E94C906D7CF0C94DC040E94AA04882353
:100B100021F00E94B40490E0089580E091E00895EF
:100B2000CF93DF93EC018991811103C0DF91CF91C5
:100B300008950E94DC04CE01F5CFCF92DF92EF92B0
:100B4000FF920F931F93CF93DF937C016B01C82F0C
:100B5000DF2D10E000E08091A5259091A6250E9450
:100B60001F098A3059F08D30A1F400ED17E00E9482
:100B7000AA04811115C001501109C9F71882C701D3
:100B8000DF91CF911F910F91FF90EF90DF90CF9069
:100B900008950C151D0508F489930F5F1F4FDBCFD7
:100BA0008091A5259091A6250E941F098A3031F3D6
:100BB0006091A5257091A62590E00E947309DECF73
:100BC000CF92DF92EF92FF92CF936B017C01C9EF3E
:100BD0004C2FC701B6010E9420058115904118F0E5
:100BE000CF5FC830A9F74C2FC701B6010E9420057E
:100BF00028E12093B20638E03093A5063093A10691
:100C000034E03093A2068093A60B9F70C295C07FFC
:100C1000C92BC093A70B2093A40B80E28093A30B56
:100C20008091A20083608093A20080E894E2809388
:100C3000A5259093A6258093A7259093A825CF91CD
:100C4000FF90EF90DF90CF9008958F938FB78F93A1
:100C50008BB78F939F93EF93FF9380913E25E82F5F
:100C6000F0E09091A00BE752FB4D90838F5F8436AC
:100C700008F080E090913D25981380933E25FF91E8
:100C8000EF919F918F918BBF8F918FBF8F9118950F
:100C90002F932FB72F932BB72F938F939F93EF9370
:100CA000FF938091A3259091A425891310C080E221
:100CB0008093A30B892F8093A325FF91EF919F91A0
:100CC0008F912F912BBF2F912FBF2F911895E82F28
:100CD000F0E0E15CFA4D20812093A00B8F5F843619
:100CE00008F080E08913E7CFE2CF0E9429040E9438
:100CF000FF030E94340160E078E488EE91E00E94F6
:100D0000E0057894CEE8D4E28AE090E00E946D0994
:100D10000091CB241091CC24A091CD24B091CE246D
:100D2000E091CF24F091D0246091D1247091D2240D
:100D30004091D3245091D4242091D5243091D624AD
:100D40008091D7249091D8241F930F93BF93AF9392
:100D5000FF93EF937F936F935F934F933F932F9303
:100D60009F938F93DF93CF930E9459098AE090E07D
:100D70000E946D099FEF23EC89E091502040804054
:100D8000E1F700C000008DB79EB740968DBF9EBFB3
:100D9000BBCF5058BB27AA270E94E1060C942B0812
:100DA0000E941D0838F00E94240820F039F49F3F6B
:100DB00019F426F40C941A080EF4E095E7FB0C9451
:100DC0001408E92F0E943C0858F3BA17620773070A
:100DD0008407950720F079F4A6F50C945E080EF4CC
:100DE000E0950B2EBA2FA02D0B01B90190010C013B
:100DF000CA01A0011124FF27591B99F0593F50F453
:100E0000503E68F11A16F040A22F232F342F4427AA
:100E1000585FF3CF469537952795A795F0405395A2
:100E2000C9F77EF41F16BA0B620B730B840BBAF072
:100E30009150A1F0FF0FBB1F661F771F881FC2F7DD
:100E40000EC0BA0F621F731F841F48F487957795F1
:100E50006795B795F7959E3F08F0B0CF9395880FAB
:100E600008F09927EE0F9795879508950E944A07F5
:100E70000C942B080E94240858F00E941D0840F092
:100E800029F45F3F29F00C94140851110C945F0869
:100E90000C941A080E943C0868F39923B1F3552377
:100EA00091F3951B550BBB27AA276217730784077D
:100EB00038F09F5F5F4F220F331F441FAA1FA9F313
:100EC00035D00E2E3AF0E0E832D091505040E69501
:100ED000001CCAF72BD0FE2F29D0660F771F881F62
:100EE000BB1F261737074807AB07B0E809F0BB0B55
:100EF000802DBF01FF2793585F4F3AF09E3F510569
:100F000078F00C9414080C945F085F3FE4F3983E6B
:100F1000D4F3869577956795B795F7959F5FC9F751
:100F2000880F911D9695879597F90895E1E0660FD2
:100F3000771F881FBB1F621773078407BA0720F04B
:100F4000621B730B840BBA0BEE1F88F7E0950895B4
:100F50000E94440888F09F5798F0B92F9927B751FD
:100F6000B0F0E1F0660F771F881F991F1AF0BA954D
:100F7000C9F714C0B13091F00E945E08B1E0089545
:100F80000C945E08672F782F8827B85F39F0B93F37
:100F9000CCF3869577956795B395D9F73EF4909500
:100FA0008095709561957F4F8F4F9F4F0895E8947E
:100FB00009C097FB3EF490958095709561957F4FA1
:100FC0008F4F9F4F9923A9F0F92F96E9BB2793954F
:100FD000F695879577956795B795F111F8CFFAF45F
:100FE000BB0F11F460FF1BC06F5F7F4F8F4F9F4F90
:100FF00016C0882311F096E911C0772321F09EE8EE
:10100000872F762F05C0662371F096E8862F70E053
:1010100060E02AF09A95660F771F881FDAF7880F2D
:101020009695879597F9089597F99F6780E870E0FE
:1010300060E008959FEF80EC089500240A9416164E
:10104000170618060906089500240A9412161306B6
:10105000140605060895092E0394000C11F4882344
:1010600052F0BB0F40F4BF2B11F460FF04C06F5F60
:101070007F4F8F4F9F4F089557FD9058440F551F36
:1010800059F05F3F71F04795880F97FB991F61F00A
:101090009F3F79F087950895121613061406551F81
:1010A000F2CF4695F1DF08C0161617061806991FED
:1010B000F1CF86957105610508940895E894BB27E2
:1010C00066277727CB0197F908950E9478080C943A
:1010D0002B080E941D0838F00E94240820F0952358
:1010E00011F00C9414080C941A0811240C945F0845
:1010F0000E943C0870F3959FC1F3950F50E0551F77
:10110000629FF001729FBB27F00DB11D639FAA275C
:10111000F00DB11DAA1F649F6627B00DA11D661FAB
:10112000829F2227B00DA11D621F739FB00DA11DCC
:10113000621F839FA00D611D221F749F3327A00D86
:10114000611D231F849F600D211D822F762F6A2F22
:1011500011249F5750409AF0F1F088234AF0EE0F87
:10116000FF1FBB1F661F771F881F91505040A9F7B4
:101170009E3F510580F00C9414080C945F085F3F6B
:10118000E4F3983ED4F3869577956795B795F795F0
:10119000E7959F5FC1F7FE2B880F911D9695879568
:1011A00097F908950E944408E8F09E37E8F09639D0
:1011B000B8F49E3848F4672F782F8827985FF9CFC6
:1011C00086957795679593959539D0F3B62FB1703D
:1011D0006B0F711D811D20F4879577956795939509
:1011E0000C94F6080C9411090C945F08882371F490
:1011F000772321F09850872B762F07C0662311F4B0
:1012000099270DC09051862B70E060E02AF09A95E6
:10121000660F771F881FDAF7880F9695879597F9DD
:1012200008959F3F31F0915020F487957795679509
:10123000B795880F911D9695879597F90895CF9347
:10124000DF93EC012B8120FF2FC026FF0CC02F7BEA
:101250002B838E819F8101968E839F838A8190E06C
:10126000DF91CF91089522FF14C0E881F981808138
:10127000082E000C990B20620097A9F03196E883A4
:10128000F9832E813F812F5F3F4F2E833F83992724
:10129000E7CFEA85FB85199597FFF3CF2B81019660
:1012A00031F080E2282B2B838FEF9FEFD9CF80E1A5
:1012B000F9CFCF93DF93CDB7DEB7AE014A5F5F4F73
:1012C000FA0161917191AF018091A7259091A825B4
:1012D0000E948B09DF91CF9108956091A7257091AD
:1012E000A8250C948F0BFB01238120FF11C026FD44
:1012F0000FC08F3F980771F082832F7D2064238376
:101300002681378121503109268337839927089513
:101310008FEF9FEF08952F923F924F925F926F92BF
:101320007F928F929F92AF92BF92CF92DF92EF9275
:10133000FF920F931F93CF93DF93CDB7DEB72B9719
:10134000CDBFDEBF7C013B018A01FC011682178202
:10135000838181FFCBC19AE0292ECE0101965C01E9
:10136000F7019381F30193FD859193FF81913F01F3
:10137000882309F446C1853239F493FD859193FFA2
:1013800081913F01853229F4B70190E00E948F0BD3
:10139000E7CF912C412C512CFFE1F51538F08B3221
:1013A00009F188F4803201F1833221F157FC3AC00F
:1013B00020ED280F2A3040F556FE1FC0929C200DCC
:1013C0001124922E06C08D3291F0803379F7689403
:1013D00050F8F30193FD859193FF81913F018111B5
:1013E000DBCF20C0689451F8689452F8F2CF68942B
:1013F00053F8EFCF689454F8ECCF429C200D1124A1
:10140000422E689455F8E5CF8E3229F456FCF9C087
:10141000689456F8DECF8C3619F4689457F8D9CF13
:101420008836B9F2982F9F7D95549330C0F083365B
:10143000A1F18337C1F1833509F05BC0F801C19098
:10144000D1908F01692D70E056FC02C06FEF7FEFE5
:10145000C6010E94790B4C01689457F80AC00C5FD2
:101460001F4F2FE3298388248394912C6501E894EE
:1014700057F853FC04C04814190409F018F5342C2B
:101480008114910431F5332009F46ACFB70180E269
:1014900090E00E948F0B3A94F6CFF8018081898307
:1014A0000E5F1F4FE0CFF801C190D1908F01692DE1
:1014B00070E056FC02C06FEF7FEFC6010E94840B04
:1014C0004C01D5CFB70180E290E00E948F0B4A9487
:1014D000D2CFF60157FC859157FE81916F01B7017C
:1014E00090E00E948F0B31103A94F1E08F1A91082E
:1014F000C7CF843619F0893609F074C0F80157FE59
:101500006AC061917191819191918F01252D2F7602
:10151000D22E97FF09C090958095709561957F4F69
:101520008F4F9F4F6894D7F82AE030E0A5010E94C2
:10153000BF0BC82ECA188C2C5D2CD6FE0CC0E894AC
:1015400050F8C91440F4D4FE05C0D2FC03C0FD2DF0
:10155000FE7E5F2E892C54FEA1C0FE01EC0DF11D14
:101560008081803309F093C0252D297E522E852D50
:101570008870382E53FCA1C050FE9BC09C2C841454
:1015800018F44C0C942C981854FE9DC0B70180E3BD
:1015900090E00E948F0B52FE09C088E790E051FE58
:1015A00002C088E590E0B7010E948F0BC91408F4CF
:1015B00096C0CA94D12C9FEFC91AD90ACA0CDB1C59
:1015C000F60182916F01B70190E00E948F0BAC147D
:1015D000BD04B1F758CF61917191072E000C880BB3
:1015E000990B93CFD52CE894D4F82AE030E08537D6
:1015F000C9F1952D997FD92E8F3691F1D8F4883580
:1016000039F1F701868197812B96CDBFDEBFDF913F
:10161000CF911F910F91FF90EF90DF90CF90BF90EF
:10162000AF909F908F907F906F905F904F903F9082
:101630002F900895803749F0883719F7D4FE02C0FB
:101640006894D2F820E130E00DC06894D4F8F6CF69
:1016500054FE03C0E92FE660DE2E20E132E002C036
:1016600028E030E0F801D7FE0DC0619171918191C1
:1016700091918F01A5010E94BF0BC82ECA18E89452
:10168000D7F859CF6191719190E080E0F2CF52FC90
:1016900002C083946CCF8394839469CF852D867820
:1016A00009F465CFF6CFB70180E290E00E948F0B7E
:1016B00083948414C0F3312C67CF342C38188414ED
:1016C00008F462CFF8CF852D867809F46FCF8BE2CE
:1016D00051FE80E257FC8DE2B70190E065CFB70183
:1016E00080E390E00E948F0B9A9460CF8FEF9FEF82
:1016F0008BCFFC010590615070400110D8F78095A8
:1017000090958E0F9F1F0895FC01615070400190CD
:101710000110D8F7809590958E0F9F1F08950F9315
:101720001F93CF93DF93182F092FEB018B8181FD3E
:1017300009C01FEF0FEF812F902FDF91CF911F91E5
:101740000F91089582FF14C02E813F818C819D816D
:10175000281739073CF4E881F981CF010196888385
:10176000998310838E819F8101968E839F83E3CF1F
:10177000E885F985812F1995892BA1F3DACFFA0134
:10178000AA27283051F1203181F1E8946F936E7FC0
:101790006E5F7F4F8F4F9F4FAF4FB1E03ED0B4E0B1
:1017A0003CD0670F781F891F9A1FA11D680F791FF2
:1017B0008A1F911DA11D6A0F711D811D911DA11D03
:1017C00020D009F468943F912AE0269F1124301913
:1017D000305D3193DEF6CF010895462F4770405DAE
:1017E0004193B3E00FD0C9F7F6CF462F4F70405D5D
:1017F0004A3318F0495D31FD4052419302D0A9F7B8
:10180000EACFB4E0A6959795879577956795BA95B1
:10181000C9F700976105710508959B01AC010A2E77
:1018200006945795479537952795BA95C9F7620F4E
:0E183000731F841F951FA01D0895F894FFCF0D
:10183E00000000000000000000000000000000009A
:10184E00000000000000000000000000000000008A
:10185E00000000000000000000000000000000007A
:10186E00000000000000000000000000000000006A
:10187E000000010001000000000001000100000056
:10188E000000010001000000000001000100000046
:10189E000000010001000000000001000100000036
:1018AE000000010001000000000001000100000026
:1018BE00000000000000000000000000000000001A
:1018CE00000000000000000000000000000000000A
:1018DE0000000000000000000000000000000000FA
:1018EE0000000000000000000000000000000000EA
:1018FE0000000000000000000000000000000000DA
:10190E0000000000000000000000000000000000C9
:10191E0001000000000000000100000000000000B7
:10192E0001000000000000000100000000000000A7
:10193E000000000000000000000000000000000099
:10194E000000000000000000000000000000000089
:10195E000000000000000000000000000000000079
:10196E000000000000000000000000000000000069
:10197E000100000000000000010000000000000057
:10198E000100000000000000010000000000000047
:10199E000000000000000000000000000000000039
:1019AE000000000000000000000000000000000029
:1019BE000000000000000000000000000000000019
:1019CE000000000000000000000000000000000009
:1019DE0000000000000000000000000000000000F9
:1019EE0000000000000000000000000000000000E9
:1019FE0000000100000000000000010000000000D7
:101A0E0000000100000000000000010000000000C6
:101A1E0000000100000000000000010000000000B6
:101A2E0000000100000000000000010000000000A6
:101A3E000000000000000000000000000000000098
:101A4E000000000000000000000000000000000088
:101A5E000000000000000000000000000000000078
:101A6E000000000000000000000000000000000068
:101A7E000000000000000000000000000000000058
:101A8E000000000000000000000000000000000048
:101A9E000000000000000000000000000000000038
:101AAE000000000000000000000000000000000028
:101ABE000000010001000100000001000100010012
:101ACE000000010001000100000001000100010002
:101ADE0000000100010001000000010001000100F2
:101AEE0000000100010001000000010001000100E2
:101AFE0000000000000000000000000000000000D8
:101B0E0000000000000000000000000000000000C7
:101B1E0000000000000000000000000000000000B7
:101B2E0000000000000000000000000000000000A7
:101B3E000000000000000000000000000000000097
:101B4E000000000000000000000000000000000087
:101B5E000000000000000000000000000000000077
:101B6E000000000000000000000000000000000067
:101B7E000000000000000100000000000000010055
:101B8E000000000000000100000000000000010045
:101B9E000000000000000100000000000000010035
:101BAE000000000000000100000000000000010025
:101BBE000000000000000000000000000000000017
:101BCE000000000000000000000000000000000007
:101BDE0000000000000000000000000000000000F7
:101BEE0000000000000000000000000000000000E7
:101BFE0000000000000000000000000000000000D7
:101C0E0000000000000000000000000000000000C6
:101C1E0000000000000000000000000000000000B6
:101C2E0000000000000000000000000000000000A6
:101C3E000000000001000000000000000100000094
:101C4E000000000001000000000000000100000084
:101C5E000000000001000000000000000100000074
:101C6E000000000001000000000000000100000064
:101C7E000000000000000000000000000000000056
:101C8E000000000000000000000000000000000046
:101C9E000000000000000000000000000000000036
:101CAE000000000000000000000000000000000026
:101CBE0000000003000000000205C80400002535E6
:101CCE0064207C20253564207C20253564207C20F2
:101CDE00253564207C20253564207C202535642024
:061CEE007C202535640096
:00000001FF
